{
	"safe.sol": {
		"MultiSignerSafe": {
			"abi": [
				{
					"inputs": [
						{
							"internalType": "address[]",
							"name": "_owners",
							"type": "address[]"
						},
						{
							"internalType": "uint256",
							"name": "_threshold",
							"type": "uint256"
						}
					],
					"stateMutability": "nonpayable",
					"type": "constructor"
				},
				{
					"anonymous": false,
					"inputs": [
						{
							"indexed": false,
							"internalType": "address",
							"name": "owner",
							"type": "address"
						}
					],
					"name": "AddOwnerInitiated",
					"type": "event"
				},
				{
					"anonymous": false,
					"inputs": [
						{
							"indexed": false,
							"internalType": "uint256",
							"name": "newThreshold",
							"type": "uint256"
						}
					],
					"name": "ChangeThresholdInitiated",
					"type": "event"
				},
				{
					"anonymous": false,
					"inputs": [
						{
							"indexed": false,
							"internalType": "address",
							"name": "owner",
							"type": "address"
						}
					],
					"name": "OwnerAdded",
					"type": "event"
				},
				{
					"anonymous": false,
					"inputs": [
						{
							"indexed": false,
							"internalType": "address",
							"name": "owner",
							"type": "address"
						}
					],
					"name": "OwnerRemoved",
					"type": "event"
				},
				{
					"anonymous": false,
					"inputs": [
						{
							"indexed": false,
							"internalType": "address",
							"name": "owner",
							"type": "address"
						}
					],
					"name": "RemoveOwnerInitiated",
					"type": "event"
				},
				{
					"anonymous": false,
					"inputs": [
						{
							"indexed": false,
							"internalType": "address[]",
							"name": "owners",
							"type": "address[]"
						},
						{
							"indexed": false,
							"internalType": "uint256",
							"name": "threshold",
							"type": "uint256"
						}
					],
					"name": "SafeInitialized",
					"type": "event"
				},
				{
					"anonymous": false,
					"inputs": [
						{
							"indexed": false,
							"internalType": "uint256",
							"name": "newThreshold",
							"type": "uint256"
						}
					],
					"name": "ThresholdChanged",
					"type": "event"
				},
				{
					"anonymous": false,
					"inputs": [
						{
							"indexed": true,
							"internalType": "uint256",
							"name": "transactionId",
							"type": "uint256"
						},
						{
							"indexed": true,
							"internalType": "address",
							"name": "owner",
							"type": "address"
						}
					],
					"name": "TransactionConfirmed",
					"type": "event"
				},
				{
					"anonymous": false,
					"inputs": [
						{
							"indexed": true,
							"internalType": "uint256",
							"name": "transactionId",
							"type": "uint256"
						},
						{
							"indexed": true,
							"internalType": "address",
							"name": "owner",
							"type": "address"
						}
					],
					"name": "TransactionExecuted",
					"type": "event"
				},
				{
					"anonymous": false,
					"inputs": [
						{
							"indexed": true,
							"internalType": "uint256",
							"name": "transactionId",
							"type": "uint256"
						},
						{
							"indexed": true,
							"internalType": "address",
							"name": "owner",
							"type": "address"
						},
						{
							"indexed": false,
							"internalType": "address",
							"name": "destination",
							"type": "address"
						},
						{
							"indexed": false,
							"internalType": "uint256",
							"name": "value",
							"type": "uint256"
						},
						{
							"indexed": false,
							"internalType": "bytes",
							"name": "data",
							"type": "bytes"
						}
					],
					"name": "TransactionProposed",
					"type": "event"
				},
				{
					"inputs": [
						{
							"internalType": "address",
							"name": "owner",
							"type": "address"
						}
					],
					"name": "addOwner",
					"outputs": [],
					"stateMutability": "nonpayable",
					"type": "function"
				},
				{
					"inputs": [
						{
							"internalType": "uint256",
							"name": "newThreshold",
							"type": "uint256"
						}
					],
					"name": "changeThreshold",
					"outputs": [],
					"stateMutability": "nonpayable",
					"type": "function"
				},
				{
					"inputs": [
						{
							"internalType": "uint256",
							"name": "transactionId",
							"type": "uint256"
						}
					],
					"name": "confirmTransaction",
					"outputs": [],
					"stateMutability": "nonpayable",
					"type": "function"
				},
				{
					"inputs": [
						{
							"internalType": "uint256",
							"name": "",
							"type": "uint256"
						},
						{
							"internalType": "address",
							"name": "",
							"type": "address"
						}
					],
					"name": "confirmations",
					"outputs": [
						{
							"internalType": "bool",
							"name": "",
							"type": "bool"
						}
					],
					"stateMutability": "view",
					"type": "function"
				},
				{
					"inputs": [
						{
							"internalType": "uint256",
							"name": "transactionId",
							"type": "uint256"
						}
					],
					"name": "executeTransaction",
					"outputs": [],
					"stateMutability": "nonpayable",
					"type": "function"
				},
				{
					"inputs": [],
					"name": "getOwners",
					"outputs": [
						{
							"internalType": "address[]",
							"name": "",
							"type": "address[]"
						}
					],
					"stateMutability": "view",
					"type": "function"
				},
				{
					"inputs": [
						{
							"internalType": "uint256",
							"name": "transactionId",
							"type": "uint256"
						}
					],
					"name": "getTransaction",
					"outputs": [
						{
							"internalType": "address",
							"name": "destination",
							"type": "address"
						},
						{
							"internalType": "uint256",
							"name": "value",
							"type": "uint256"
						},
						{
							"internalType": "bytes",
							"name": "data",
							"type": "bytes"
						},
						{
							"internalType": "bool",
							"name": "executed",
							"type": "bool"
						},
						{
							"internalType": "uint256",
							"name": "noOfconfirmations",
							"type": "uint256"
						}
					],
					"stateMutability": "view",
					"type": "function"
				},
				{
					"inputs": [],
					"name": "getTransactionCount",
					"outputs": [
						{
							"internalType": "uint256",
							"name": "",
							"type": "uint256"
						}
					],
					"stateMutability": "view",
					"type": "function"
				},
				{
					"inputs": [
						{
							"internalType": "address",
							"name": "",
							"type": "address"
						}
					],
					"name": "isOwner",
					"outputs": [
						{
							"internalType": "bool",
							"name": "",
							"type": "bool"
						}
					],
					"stateMutability": "view",
					"type": "function"
				},
				{
					"inputs": [
						{
							"internalType": "uint256",
							"name": "",
							"type": "uint256"
						}
					],
					"name": "owners",
					"outputs": [
						{
							"internalType": "address",
							"name": "",
							"type": "address"
						}
					],
					"stateMutability": "view",
					"type": "function"
				},
				{
					"inputs": [
						{
							"internalType": "address",
							"name": "owner",
							"type": "address"
						}
					],
					"name": "removeOwner",
					"outputs": [],
					"stateMutability": "nonpayable",
					"type": "function"
				},
				{
					"inputs": [
						{
							"internalType": "address",
							"name": "destination",
							"type": "address"
						},
						{
							"internalType": "uint256",
							"name": "value",
							"type": "uint256"
						},
						{
							"internalType": "bytes",
							"name": "data",
							"type": "bytes"
						}
					],
					"name": "submitTransaction",
					"outputs": [],
					"stateMutability": "nonpayable",
					"type": "function"
				},
				{
					"inputs": [],
					"name": "threshold",
					"outputs": [
						{
							"internalType": "uint256",
							"name": "",
							"type": "uint256"
						}
					],
					"stateMutability": "view",
					"type": "function"
				},
				{
					"inputs": [],
					"name": "transactionCount",
					"outputs": [
						{
							"internalType": "uint256",
							"name": "",
							"type": "uint256"
						}
					],
					"stateMutability": "view",
					"type": "function"
				},
				{
					"inputs": [
						{
							"internalType": "uint256",
							"name": "",
							"type": "uint256"
						}
					],
					"name": "transactions",
					"outputs": [
						{
							"internalType": "address",
							"name": "destination",
							"type": "address"
						},
						{
							"internalType": "uint256",
							"name": "value",
							"type": "uint256"
						},
						{
							"internalType": "bytes",
							"name": "data",
							"type": "bytes"
						},
						{
							"internalType": "bool",
							"name": "executed",
							"type": "bool"
						},
						{
							"internalType": "uint256",
							"name": "noOfConfirmations",
							"type": "uint256"
						}
					],
					"stateMutability": "view",
					"type": "function"
				}
			],
			"devdoc": {
				"custom:dev-run-script": "scripts/deploy_with_ethers.ts",
				"details": "ContractDescription",
				"kind": "dev",
				"methods": {},
				"title": "ContractName",
				"version": 1
			},
			"evm": {
				"assembly": "    /* \"safe.sol\":187:5199  contract MultiSignerSafe {... */\n  mstore(0x40, 0x80)\n    /* \"safe.sol\":1423:1874  constructor(address[] memory _owners, uint256 _threshold) {... */\n  callvalue\n  dup1\n  iszero\n  tag_1\n  jumpi\n  0x00\n  dup1\n  revert\ntag_1:\n  pop\n  mload(0x40)\n  sub(codesize, bytecodeSize)\n  dup1\n  bytecodeSize\n  dup4\n  codecopy\n  dup2\n  dup2\n  add\n  0x40\n  mstore\n  dup2\n  add\n  swap1\n  tag_2\n  swap2\n  swap1\n  tag_3\n  jump\t// in\ntag_2:\n    /* \"safe.sol\":1517:1518  0 */\n  0x00\n    /* \"safe.sol\":1500:1507  _owners */\n  dup3\n    /* \"safe.sol\":1500:1514  _owners.length */\n  mload\n    /* \"safe.sol\":1500:1518  _owners.length > 0 */\n  gt\n    /* \"safe.sol\":1492:1553  require(_owners.length > 0, \"At least one owner is required\") */\n  tag_6\n  jumpi\n  mload(0x40)\n  0x08c379a000000000000000000000000000000000000000000000000000000000\n  dup2\n  mstore\n  0x04\n  add\n  tag_7\n  swap1\n  tag_8\n  jump\t// in\ntag_7:\n  mload(0x40)\n  dup1\n  swap2\n  sub\n  swap1\n  revert\ntag_6:\n    /* \"safe.sol\":1585:1586  0 */\n  0x00\n    /* \"safe.sol\":1572:1582  _threshold */\n  dup2\n    /* \"safe.sol\":1572:1586  _threshold > 0 */\n  gt\n    /* \"safe.sol\":1572:1618  _threshold > 0 && _threshold <= _owners.length */\n  dup1\n  iszero\n  tag_9\n  jumpi\n  pop\n    /* \"safe.sol\":1604:1611  _owners */\n  dup2\n    /* \"safe.sol\":1604:1618  _owners.length */\n  mload\n    /* \"safe.sol\":1590:1600  _threshold */\n  dup2\n    /* \"safe.sol\":1590:1618  _threshold <= _owners.length */\n  gt\n  iszero\n    /* \"safe.sol\":1572:1618  _threshold > 0 && _threshold <= _owners.length */\ntag_9:\n    /* \"safe.sol\":1564:1640  require(_threshold > 0 && _threshold <= _owners.length, \"Invalid threshold\") */\n  tag_10\n  jumpi\n  mload(0x40)\n  0x08c379a000000000000000000000000000000000000000000000000000000000\n  dup2\n  mstore\n  0x04\n  add\n  tag_11\n  swap1\n  tag_12\n  jump\t// in\ntag_11:\n  mload(0x40)\n  dup1\n  swap2\n  sub\n  swap1\n  revert\ntag_10:\n    /* \"safe.sol\":1662:1669  _owners */\n  dup2\n    /* \"safe.sol\":1653:1659  owners */\n  0x00\n    /* \"safe.sol\":1653:1669  owners = _owners */\n  swap1\n  dup1\n  mload\n  swap1\n  0x20\n  add\n  swap1\n  tag_13\n  swap3\n  swap2\n  swap1\n  tag_14\n  jump\t// in\ntag_13:\n  pop\n    /* \"safe.sol\":1692:1702  _threshold */\n  dup1\n    /* \"safe.sol\":1680:1689  threshold */\n  0x02\n    /* \"safe.sol\":1680:1702  threshold = _threshold */\n  dup2\n  swap1\n  sstore\n  pop\n    /* \"safe.sol\":1720:1729  uint256 i */\n  0x00\n    /* \"safe.sol\":1715:1813  for (uint256 i = 0; i < _owners.length; i++) {... */\ntag_15:\n    /* \"safe.sol\":1739:1746  _owners */\n  dup3\n    /* \"safe.sol\":1739:1753  _owners.length */\n  mload\n    /* \"safe.sol\":1735:1736  i */\n  dup2\n    /* \"safe.sol\":1735:1753  i < _owners.length */\n  lt\n    /* \"safe.sol\":1715:1813  for (uint256 i = 0; i < _owners.length; i++) {... */\n  iszero\n  tag_16\n  jumpi\n    /* \"safe.sol\":1797:1801  true */\n  0x01\n    /* \"safe.sol\":1775:1782  isOwner */\n  dup1\n    /* \"safe.sol\":1775:1794  isOwner[_owners[i]] */\n  0x00\n    /* \"safe.sol\":1783:1790  _owners */\n  dup6\n    /* \"safe.sol\":1791:1792  i */\n  dup5\n    /* \"safe.sol\":1783:1793  _owners[i] */\n  dup2\n  mload\n  dup2\n  lt\n  tag_18\n  jumpi\n  tag_19\n  tag_20\n  jump\t// in\ntag_19:\ntag_18:\n  0x20\n  mul\n  0x20\n  add\n  add\n  mload\n    /* \"safe.sol\":1775:1794  isOwner[_owners[i]] */\n  0xffffffffffffffffffffffffffffffffffffffff\n  and\n  0xffffffffffffffffffffffffffffffffffffffff\n  and\n  dup2\n  mstore\n  0x20\n  add\n  swap1\n  dup2\n  mstore\n  0x20\n  add\n  0x00\n  keccak256\n  0x00\n    /* \"safe.sol\":1775:1801  isOwner[_owners[i]] = true */\n  0x0100\n  exp\n  dup2\n  sload\n  dup2\n  0xff\n  mul\n  not\n  and\n  swap1\n  dup4\n  iszero\n  iszero\n  mul\n  or\n  swap1\n  sstore\n  pop\n    /* \"safe.sol\":1755:1758  i++ */\n  dup1\n  dup1\n  0x01\n  add\n  swap2\n  pop\n  pop\n    /* \"safe.sol\":1715:1813  for (uint256 i = 0; i < _owners.length; i++) {... */\n  jump(tag_15)\ntag_16:\n  pop\n    /* \"safe.sol\":1830:1866  SafeInitialized(_owners, _threshold) */\n  0x7699bae868b89dd6a1d348a18c33d02d0b7cdcb2f598af9eacc0d5060e779b58\n    /* \"safe.sol\":1846:1853  _owners */\n  dup3\n    /* \"safe.sol\":1855:1865  _threshold */\n  dup3\n    /* \"safe.sol\":1830:1866  SafeInitialized(_owners, _threshold) */\n  mload(0x40)\n  tag_21\n  swap3\n  swap2\n  swap1\n  tag_22\n  jump\t// in\ntag_21:\n  mload(0x40)\n  dup1\n  swap2\n  sub\n  swap1\n  log1\n    /* \"safe.sol\":1423:1874  constructor(address[] memory _owners, uint256 _threshold) {... */\n  pop\n  pop\n    /* \"safe.sol\":187:5199  contract MultiSignerSafe {... */\n  jump(tag_23)\ntag_14:\n  dup3\n  dup1\n  sload\n  dup3\n  dup3\n  sstore\n  swap1\n  0x00\n  mstore\n  keccak256(0x00, 0x20)\n  swap1\n  dup2\n  add\n  swap3\n  dup3\n  iszero\n  tag_24\n  jumpi\n  swap2\n  0x20\n  mul\n  dup3\n  add\ntag_25:\n  dup3\n  dup2\n  gt\n  iszero\n  tag_26\n  jumpi\n  dup3\n  mload\n  dup3\n  exp(0x0100, 0x00)\n  dup2\n  sload\n  dup2\n  0xffffffffffffffffffffffffffffffffffffffff\n  mul\n  not\n  and\n  swap1\n  dup4\n  0xffffffffffffffffffffffffffffffffffffffff\n  and\n  mul\n  or\n  swap1\n  sstore\n  pop\n  swap2\n  0x20\n  add\n  swap2\n  swap1\n  0x01\n  add\n  swap1\n  jump(tag_25)\ntag_26:\ntag_24:\n  pop\n  swap1\n  pop\n  tag_27\n  swap2\n  swap1\n  tag_28\n  jump\t// in\ntag_27:\n  pop\n  swap1\n  jump\t// out\ntag_28:\ntag_29:\n  dup1\n  dup3\n  gt\n  iszero\n  tag_30\n  jumpi\n  0x00\n  dup2\n  0x00\n  swap1\n  sstore\n  pop\n  0x01\n  add\n  jump(tag_29)\ntag_30:\n  pop\n  swap1\n  jump\t// out\n    /* \"#utility.yul\":7:82   */\ntag_31:\n    /* \"#utility.yul\":40:46   */\n  0x00\n    /* \"#utility.yul\":73:75   */\n  0x40\n    /* \"#utility.yul\":67:76   */\n  mload\n    /* \"#utility.yul\":57:76   */\n  swap1\n  pop\n    /* \"#utility.yul\":7:82   */\n  swap1\n  jump\t// out\n    /* \"#utility.yul\":88:205   */\ntag_32:\n    /* \"#utility.yul\":197:198   */\n  0x00\n    /* \"#utility.yul\":194:195   */\n  dup1\n    /* \"#utility.yul\":187:199   */\n  revert\n    /* \"#utility.yul\":211:328   */\ntag_33:\n    /* \"#utility.yul\":320:321   */\n  0x00\n    /* \"#utility.yul\":317:318   */\n  dup1\n    /* \"#utility.yul\":310:322   */\n  revert\n    /* \"#utility.yul\":334:451   */\ntag_34:\n    /* \"#utility.yul\":443:444   */\n  0x00\n    /* \"#utility.yul\":440:441   */\n  dup1\n    /* \"#utility.yul\":433:445   */\n  revert\n    /* \"#utility.yul\":457:559   */\ntag_35:\n    /* \"#utility.yul\":498:504   */\n  0x00\n    /* \"#utility.yul\":549:551   */\n  0x1f\n    /* \"#utility.yul\":545:552   */\n  not\n    /* \"#utility.yul\":540:542   */\n  0x1f\n    /* \"#utility.yul\":533:538   */\n  dup4\n    /* \"#utility.yul\":529:543   */\n  add\n    /* \"#utility.yul\":525:553   */\n  and\n    /* \"#utility.yul\":515:553   */\n  swap1\n  pop\n    /* \"#utility.yul\":457:559   */\n  swap2\n  swap1\n  pop\n  jump\t// out\n    /* \"#utility.yul\":565:745   */\ntag_36:\n    /* \"#utility.yul\":613:690   */\n  0x4e487b7100000000000000000000000000000000000000000000000000000000\n    /* \"#utility.yul\":610:611   */\n  0x00\n    /* \"#utility.yul\":603:691   */\n  mstore\n    /* \"#utility.yul\":710:714   */\n  0x41\n    /* \"#utility.yul\":707:708   */\n  0x04\n    /* \"#utility.yul\":700:715   */\n  mstore\n    /* \"#utility.yul\":734:738   */\n  0x24\n    /* \"#utility.yul\":731:732   */\n  0x00\n    /* \"#utility.yul\":724:739   */\n  revert\n    /* \"#utility.yul\":751:1032   */\ntag_37:\n    /* \"#utility.yul\":834:861   */\n  tag_71\n    /* \"#utility.yul\":856:860   */\n  dup3\n    /* \"#utility.yul\":834:861   */\n  tag_35\n  jump\t// in\ntag_71:\n    /* \"#utility.yul\":826:832   */\n  dup2\n    /* \"#utility.yul\":822:862   */\n  add\n    /* \"#utility.yul\":964:970   */\n  dup2\n    /* \"#utility.yul\":952:962   */\n  dup2\n    /* \"#utility.yul\":949:971   */\n  lt\n    /* \"#utility.yul\":928:946   */\n  0xffffffffffffffff\n    /* \"#utility.yul\":916:926   */\n  dup3\n    /* \"#utility.yul\":913:947   */\n  gt\n    /* \"#utility.yul\":910:972   */\n  or\n    /* \"#utility.yul\":907:995   */\n  iszero\n  tag_72\n  jumpi\n    /* \"#utility.yul\":975:993   */\n  tag_73\n  tag_36\n  jump\t// in\ntag_73:\n    /* \"#utility.yul\":907:995   */\ntag_72:\n    /* \"#utility.yul\":1015:1025   */\n  dup1\n    /* \"#utility.yul\":1011:1013   */\n  0x40\n    /* \"#utility.yul\":1004:1026   */\n  mstore\n    /* \"#utility.yul\":794:1032   */\n  pop\n    /* \"#utility.yul\":751:1032   */\n  pop\n  pop\n  jump\t// out\n    /* \"#utility.yul\":1038:1167   */\ntag_38:\n    /* \"#utility.yul\":1072:1078   */\n  0x00\n    /* \"#utility.yul\":1099:1119   */\n  tag_75\n  tag_31\n  jump\t// in\ntag_75:\n    /* \"#utility.yul\":1089:1119   */\n  swap1\n  pop\n    /* \"#utility.yul\":1128:1161   */\n  tag_76\n    /* \"#utility.yul\":1156:1160   */\n  dup3\n    /* \"#utility.yul\":1148:1154   */\n  dup3\n    /* \"#utility.yul\":1128:1161   */\n  tag_37\n  jump\t// in\ntag_76:\n    /* \"#utility.yul\":1038:1167   */\n  swap2\n  swap1\n  pop\n  jump\t// out\n    /* \"#utility.yul\":1173:1484   */\ntag_39:\n    /* \"#utility.yul\":1250:1254   */\n  0x00\n    /* \"#utility.yul\":1340:1358   */\n  0xffffffffffffffff\n    /* \"#utility.yul\":1332:1338   */\n  dup3\n    /* \"#utility.yul\":1329:1359   */\n  gt\n    /* \"#utility.yul\":1326:1382   */\n  iszero\n  tag_78\n  jumpi\n    /* \"#utility.yul\":1362:1380   */\n  tag_79\n  tag_36\n  jump\t// in\ntag_79:\n    /* \"#utility.yul\":1326:1382   */\ntag_78:\n    /* \"#utility.yul\":1412:1416   */\n  0x20\n    /* \"#utility.yul\":1404:1410   */\n  dup3\n    /* \"#utility.yul\":1400:1417   */\n  mul\n    /* \"#utility.yul\":1392:1417   */\n  swap1\n  pop\n    /* \"#utility.yul\":1472:1476   */\n  0x20\n    /* \"#utility.yul\":1466:1470   */\n  dup2\n    /* \"#utility.yul\":1462:1477   */\n  add\n    /* \"#utility.yul\":1454:1477   */\n  swap1\n  pop\n    /* \"#utility.yul\":1173:1484   */\n  swap2\n  swap1\n  pop\n  jump\t// out\n    /* \"#utility.yul\":1490:1607   */\ntag_40:\n    /* \"#utility.yul\":1599:1600   */\n  0x00\n    /* \"#utility.yul\":1596:1597   */\n  dup1\n    /* \"#utility.yul\":1589:1601   */\n  revert\n    /* \"#utility.yul\":1613:1739   */\ntag_41:\n    /* \"#utility.yul\":1650:1657   */\n  0x00\n    /* \"#utility.yul\":1690:1732   */\n  0xffffffffffffffffffffffffffffffffffffffff\n    /* \"#utility.yul\":1683:1688   */\n  dup3\n    /* \"#utility.yul\":1679:1733   */\n  and\n    /* \"#utility.yul\":1668:1733   */\n  swap1\n  pop\n    /* \"#utility.yul\":1613:1739   */\n  swap2\n  swap1\n  pop\n  jump\t// out\n    /* \"#utility.yul\":1745:1841   */\ntag_42:\n    /* \"#utility.yul\":1782:1789   */\n  0x00\n    /* \"#utility.yul\":1811:1835   */\n  tag_83\n    /* \"#utility.yul\":1829:1834   */\n  dup3\n    /* \"#utility.yul\":1811:1835   */\n  tag_41\n  jump\t// in\ntag_83:\n    /* \"#utility.yul\":1800:1835   */\n  swap1\n  pop\n    /* \"#utility.yul\":1745:1841   */\n  swap2\n  swap1\n  pop\n  jump\t// out\n    /* \"#utility.yul\":1847:1969   */\ntag_43:\n    /* \"#utility.yul\":1920:1944   */\n  tag_85\n    /* \"#utility.yul\":1938:1943   */\n  dup2\n    /* \"#utility.yul\":1920:1944   */\n  tag_42\n  jump\t// in\ntag_85:\n    /* \"#utility.yul\":1913:1918   */\n  dup2\n    /* \"#utility.yul\":1910:1945   */\n  eq\n    /* \"#utility.yul\":1900:1963   */\n  tag_86\n  jumpi\n    /* \"#utility.yul\":1959:1960   */\n  0x00\n    /* \"#utility.yul\":1956:1957   */\n  dup1\n    /* \"#utility.yul\":1949:1961   */\n  revert\n    /* \"#utility.yul\":1900:1963   */\ntag_86:\n    /* \"#utility.yul\":1847:1969   */\n  pop\n  jump\t// out\n    /* \"#utility.yul\":1975:2118   */\ntag_44:\n    /* \"#utility.yul\":2032:2037   */\n  0x00\n    /* \"#utility.yul\":2063:2069   */\n  dup2\n    /* \"#utility.yul\":2057:2070   */\n  mload\n    /* \"#utility.yul\":2048:2070   */\n  swap1\n  pop\n    /* \"#utility.yul\":2079:2112   */\n  tag_88\n    /* \"#utility.yul\":2106:2111   */\n  dup2\n    /* \"#utility.yul\":2079:2112   */\n  tag_43\n  jump\t// in\ntag_88:\n    /* \"#utility.yul\":1975:2118   */\n  swap3\n  swap2\n  pop\n  pop\n  jump\t// out\n    /* \"#utility.yul\":2141:2873   */\ntag_45:\n    /* \"#utility.yul\":2248:2253   */\n  0x00\n    /* \"#utility.yul\":2273:2354   */\n  tag_90\n    /* \"#utility.yul\":2289:2353   */\n  tag_91\n    /* \"#utility.yul\":2346:2352   */\n  dup5\n    /* \"#utility.yul\":2289:2353   */\n  tag_39\n  jump\t// in\ntag_91:\n    /* \"#utility.yul\":2273:2354   */\n  tag_38\n  jump\t// in\ntag_90:\n    /* \"#utility.yul\":2264:2354   */\n  swap1\n  pop\n    /* \"#utility.yul\":2374:2379   */\n  dup1\n    /* \"#utility.yul\":2403:2409   */\n  dup4\n    /* \"#utility.yul\":2396:2401   */\n  dup3\n    /* \"#utility.yul\":2389:2410   */\n  mstore\n    /* \"#utility.yul\":2437:2441   */\n  0x20\n    /* \"#utility.yul\":2430:2435   */\n  dup3\n    /* \"#utility.yul\":2426:2442   */\n  add\n    /* \"#utility.yul\":2419:2442   */\n  swap1\n  pop\n    /* \"#utility.yul\":2490:2494   */\n  0x20\n    /* \"#utility.yul\":2482:2488   */\n  dup5\n    /* \"#utility.yul\":2478:2495   */\n  mul\n    /* \"#utility.yul\":2470:2476   */\n  dup4\n    /* \"#utility.yul\":2466:2496   */\n  add\n    /* \"#utility.yul\":2519:2522   */\n  dup6\n    /* \"#utility.yul\":2511:2517   */\n  dup2\n    /* \"#utility.yul\":2508:2523   */\n  gt\n    /* \"#utility.yul\":2505:2627   */\n  iszero\n  tag_92\n  jumpi\n    /* \"#utility.yul\":2538:2617   */\n  tag_93\n  tag_40\n  jump\t// in\ntag_93:\n    /* \"#utility.yul\":2505:2627   */\ntag_92:\n    /* \"#utility.yul\":2653:2659   */\n  dup4\n    /* \"#utility.yul\":2636:2867   */\ntag_94:\n    /* \"#utility.yul\":2670:2676   */\n  dup2\n    /* \"#utility.yul\":2665:2668   */\n  dup2\n    /* \"#utility.yul\":2662:2677   */\n  lt\n    /* \"#utility.yul\":2636:2867   */\n  iszero\n  tag_96\n  jumpi\n    /* \"#utility.yul\":2745:2748   */\n  dup1\n    /* \"#utility.yul\":2774:2822   */\n  tag_97\n    /* \"#utility.yul\":2818:2821   */\n  dup9\n    /* \"#utility.yul\":2806:2816   */\n  dup3\n    /* \"#utility.yul\":2774:2822   */\n  tag_44\n  jump\t// in\ntag_97:\n    /* \"#utility.yul\":2769:2772   */\n  dup5\n    /* \"#utility.yul\":2762:2823   */\n  mstore\n    /* \"#utility.yul\":2852:2856   */\n  0x20\n    /* \"#utility.yul\":2847:2850   */\n  dup5\n    /* \"#utility.yul\":2843:2857   */\n  add\n    /* \"#utility.yul\":2836:2857   */\n  swap4\n  pop\n    /* \"#utility.yul\":2712:2867   */\n  pop\n    /* \"#utility.yul\":2696:2700   */\n  0x20\n    /* \"#utility.yul\":2691:2694   */\n  dup2\n    /* \"#utility.yul\":2687:2701   */\n  add\n    /* \"#utility.yul\":2680:2701   */\n  swap1\n  pop\n    /* \"#utility.yul\":2636:2867   */\n  jump(tag_94)\ntag_96:\n    /* \"#utility.yul\":2640:2661   */\n  pop\n    /* \"#utility.yul\":2254:2873   */\n  pop\n  pop\n    /* \"#utility.yul\":2141:2873   */\n  swap4\n  swap3\n  pop\n  pop\n  pop\n  jump\t// out\n    /* \"#utility.yul\":2896:3281   */\ntag_46:\n    /* \"#utility.yul\":2978:2983   */\n  0x00\n    /* \"#utility.yul\":3027:3030   */\n  dup3\n    /* \"#utility.yul\":3020:3024   */\n  0x1f\n    /* \"#utility.yul\":3012:3018   */\n  dup4\n    /* \"#utility.yul\":3008:3025   */\n  add\n    /* \"#utility.yul\":3004:3031   */\n  slt\n    /* \"#utility.yul\":2994:3116   */\n  tag_99\n  jumpi\n    /* \"#utility.yul\":3035:3114   */\n  tag_100\n  tag_34\n  jump\t// in\ntag_100:\n    /* \"#utility.yul\":2994:3116   */\ntag_99:\n    /* \"#utility.yul\":3145:3151   */\n  dup2\n    /* \"#utility.yul\":3139:3152   */\n  mload\n    /* \"#utility.yul\":3170:3275   */\n  tag_101\n    /* \"#utility.yul\":3271:3274   */\n  dup5\n    /* \"#utility.yul\":3263:3269   */\n  dup3\n    /* \"#utility.yul\":3256:3260   */\n  0x20\n    /* \"#utility.yul\":3248:3254   */\n  dup7\n    /* \"#utility.yul\":3244:3261   */\n  add\n    /* \"#utility.yul\":3170:3275   */\n  tag_45\n  jump\t// in\ntag_101:\n    /* \"#utility.yul\":3161:3275   */\n  swap2\n  pop\n    /* \"#utility.yul\":2984:3281   */\n  pop\n    /* \"#utility.yul\":2896:3281   */\n  swap3\n  swap2\n  pop\n  pop\n  jump\t// out\n    /* \"#utility.yul\":3287:3364   */\ntag_47:\n    /* \"#utility.yul\":3324:3331   */\n  0x00\n    /* \"#utility.yul\":3353:3358   */\n  dup2\n    /* \"#utility.yul\":3342:3358   */\n  swap1\n  pop\n    /* \"#utility.yul\":3287:3364   */\n  swap2\n  swap1\n  pop\n  jump\t// out\n    /* \"#utility.yul\":3370:3492   */\ntag_48:\n    /* \"#utility.yul\":3443:3467   */\n  tag_104\n    /* \"#utility.yul\":3461:3466   */\n  dup2\n    /* \"#utility.yul\":3443:3467   */\n  tag_47\n  jump\t// in\ntag_104:\n    /* \"#utility.yul\":3436:3441   */\n  dup2\n    /* \"#utility.yul\":3433:3468   */\n  eq\n    /* \"#utility.yul\":3423:3486   */\n  tag_105\n  jumpi\n    /* \"#utility.yul\":3482:3483   */\n  0x00\n    /* \"#utility.yul\":3479:3480   */\n  dup1\n    /* \"#utility.yul\":3472:3484   */\n  revert\n    /* \"#utility.yul\":3423:3486   */\ntag_105:\n    /* \"#utility.yul\":3370:3492   */\n  pop\n  jump\t// out\n    /* \"#utility.yul\":3498:3641   */\ntag_49:\n    /* \"#utility.yul\":3555:3560   */\n  0x00\n    /* \"#utility.yul\":3586:3592   */\n  dup2\n    /* \"#utility.yul\":3580:3593   */\n  mload\n    /* \"#utility.yul\":3571:3593   */\n  swap1\n  pop\n    /* \"#utility.yul\":3602:3635   */\n  tag_107\n    /* \"#utility.yul\":3629:3634   */\n  dup2\n    /* \"#utility.yul\":3602:3635   */\n  tag_48\n  jump\t// in\ntag_107:\n    /* \"#utility.yul\":3498:3641   */\n  swap3\n  swap2\n  pop\n  pop\n  jump\t// out\n    /* \"#utility.yul\":3647:4357   */\ntag_3:\n    /* \"#utility.yul\":3751:3757   */\n  0x00\n    /* \"#utility.yul\":3759:3765   */\n  dup1\n    /* \"#utility.yul\":3808:3810   */\n  0x40\n    /* \"#utility.yul\":3796:3805   */\n  dup4\n    /* \"#utility.yul\":3787:3794   */\n  dup6\n    /* \"#utility.yul\":3783:3806   */\n  sub\n    /* \"#utility.yul\":3779:3811   */\n  slt\n    /* \"#utility.yul\":3776:3895   */\n  iszero\n  tag_109\n  jumpi\n    /* \"#utility.yul\":3814:3893   */\n  tag_110\n  tag_32\n  jump\t// in\ntag_110:\n    /* \"#utility.yul\":3776:3895   */\ntag_109:\n    /* \"#utility.yul\":3955:3956   */\n  0x00\n    /* \"#utility.yul\":3944:3953   */\n  dup4\n    /* \"#utility.yul\":3940:3957   */\n  add\n    /* \"#utility.yul\":3934:3958   */\n  mload\n    /* \"#utility.yul\":3985:4003   */\n  0xffffffffffffffff\n    /* \"#utility.yul\":3977:3983   */\n  dup2\n    /* \"#utility.yul\":3974:4004   */\n  gt\n    /* \"#utility.yul\":3971:4088   */\n  iszero\n  tag_111\n  jumpi\n    /* \"#utility.yul\":4007:4086   */\n  tag_112\n  tag_33\n  jump\t// in\ntag_112:\n    /* \"#utility.yul\":3971:4088   */\ntag_111:\n    /* \"#utility.yul\":4112:4201   */\n  tag_113\n    /* \"#utility.yul\":4193:4200   */\n  dup6\n    /* \"#utility.yul\":4184:4190   */\n  dup3\n    /* \"#utility.yul\":4173:4182   */\n  dup7\n    /* \"#utility.yul\":4169:4191   */\n  add\n    /* \"#utility.yul\":4112:4201   */\n  tag_46\n  jump\t// in\ntag_113:\n    /* \"#utility.yul\":4102:4201   */\n  swap3\n  pop\n    /* \"#utility.yul\":3905:4211   */\n  pop\n    /* \"#utility.yul\":4250:4252   */\n  0x20\n    /* \"#utility.yul\":4276:4340   */\n  tag_114\n    /* \"#utility.yul\":4332:4339   */\n  dup6\n    /* \"#utility.yul\":4323:4329   */\n  dup3\n    /* \"#utility.yul\":4312:4321   */\n  dup7\n    /* \"#utility.yul\":4308:4330   */\n  add\n    /* \"#utility.yul\":4276:4340   */\n  tag_49\n  jump\t// in\ntag_114:\n    /* \"#utility.yul\":4266:4340   */\n  swap2\n  pop\n    /* \"#utility.yul\":4221:4350   */\n  pop\n    /* \"#utility.yul\":3647:4357   */\n  swap3\n  pop\n  swap3\n  swap1\n  pop\n  jump\t// out\n    /* \"#utility.yul\":4363:4532   */\ntag_50:\n    /* \"#utility.yul\":4447:4458   */\n  0x00\n    /* \"#utility.yul\":4481:4487   */\n  dup3\n    /* \"#utility.yul\":4476:4479   */\n  dup3\n    /* \"#utility.yul\":4469:4488   */\n  mstore\n    /* \"#utility.yul\":4521:4525   */\n  0x20\n    /* \"#utility.yul\":4516:4519   */\n  dup3\n    /* \"#utility.yul\":4512:4526   */\n  add\n    /* \"#utility.yul\":4497:4526   */\n  swap1\n  pop\n    /* \"#utility.yul\":4363:4532   */\n  swap3\n  swap2\n  pop\n  pop\n  jump\t// out\n    /* \"#utility.yul\":4538:4718   */\ntag_51:\n    /* \"#utility.yul\":4678:4710   */\n  0x4174206c65617374206f6e65206f776e65722069732072657175697265640000\n    /* \"#utility.yul\":4674:4675   */\n  0x00\n    /* \"#utility.yul\":4666:4672   */\n  dup3\n    /* \"#utility.yul\":4662:4676   */\n  add\n    /* \"#utility.yul\":4655:4711   */\n  mstore\n    /* \"#utility.yul\":4538:4718   */\n  pop\n  jump\t// out\n    /* \"#utility.yul\":4724:5090   */\ntag_52:\n    /* \"#utility.yul\":4866:4869   */\n  0x00\n    /* \"#utility.yul\":4887:4954   */\n  tag_118\n    /* \"#utility.yul\":4951:4953   */\n  0x1e\n    /* \"#utility.yul\":4946:4949   */\n  dup4\n    /* \"#utility.yul\":4887:4954   */\n  tag_50\n  jump\t// in\ntag_118:\n    /* \"#utility.yul\":4880:4954   */\n  swap2\n  pop\n    /* \"#utility.yul\":4963:5056   */\n  tag_119\n    /* \"#utility.yul\":5052:5055   */\n  dup3\n    /* \"#utility.yul\":4963:5056   */\n  tag_51\n  jump\t// in\ntag_119:\n    /* \"#utility.yul\":5081:5083   */\n  0x20\n    /* \"#utility.yul\":5076:5079   */\n  dup3\n    /* \"#utility.yul\":5072:5084   */\n  add\n    /* \"#utility.yul\":5065:5084   */\n  swap1\n  pop\n    /* \"#utility.yul\":4724:5090   */\n  swap2\n  swap1\n  pop\n  jump\t// out\n    /* \"#utility.yul\":5096:5515   */\ntag_8:\n    /* \"#utility.yul\":5262:5266   */\n  0x00\n    /* \"#utility.yul\":5300:5302   */\n  0x20\n    /* \"#utility.yul\":5289:5298   */\n  dup3\n    /* \"#utility.yul\":5285:5303   */\n  add\n    /* \"#utility.yul\":5277:5303   */\n  swap1\n  pop\n    /* \"#utility.yul\":5349:5358   */\n  dup2\n    /* \"#utility.yul\":5343:5347   */\n  dup2\n    /* \"#utility.yul\":5339:5359   */\n  sub\n    /* \"#utility.yul\":5335:5336   */\n  0x00\n    /* \"#utility.yul\":5324:5333   */\n  dup4\n    /* \"#utility.yul\":5320:5337   */\n  add\n    /* \"#utility.yul\":5313:5360   */\n  mstore\n    /* \"#utility.yul\":5377:5508   */\n  tag_121\n    /* \"#utility.yul\":5503:5507   */\n  dup2\n    /* \"#utility.yul\":5377:5508   */\n  tag_52\n  jump\t// in\ntag_121:\n    /* \"#utility.yul\":5369:5508   */\n  swap1\n  pop\n    /* \"#utility.yul\":5096:5515   */\n  swap2\n  swap1\n  pop\n  jump\t// out\n    /* \"#utility.yul\":5521:5688   */\ntag_53:\n    /* \"#utility.yul\":5661:5680   */\n  0x496e76616c6964207468726573686f6c64000000000000000000000000000000\n    /* \"#utility.yul\":5657:5658   */\n  0x00\n    /* \"#utility.yul\":5649:5655   */\n  dup3\n    /* \"#utility.yul\":5645:5659   */\n  add\n    /* \"#utility.yul\":5638:5681   */\n  mstore\n    /* \"#utility.yul\":5521:5688   */\n  pop\n  jump\t// out\n    /* \"#utility.yul\":5694:6060   */\ntag_54:\n    /* \"#utility.yul\":5836:5839   */\n  0x00\n    /* \"#utility.yul\":5857:5924   */\n  tag_124\n    /* \"#utility.yul\":5921:5923   */\n  0x11\n    /* \"#utility.yul\":5916:5919   */\n  dup4\n    /* \"#utility.yul\":5857:5924   */\n  tag_50\n  jump\t// in\ntag_124:\n    /* \"#utility.yul\":5850:5924   */\n  swap2\n  pop\n    /* \"#utility.yul\":5933:6026   */\n  tag_125\n    /* \"#utility.yul\":6022:6025   */\n  dup3\n    /* \"#utility.yul\":5933:6026   */\n  tag_53\n  jump\t// in\ntag_125:\n    /* \"#utility.yul\":6051:6053   */\n  0x20\n    /* \"#utility.yul\":6046:6049   */\n  dup3\n    /* \"#utility.yul\":6042:6054   */\n  add\n    /* \"#utility.yul\":6035:6054   */\n  swap1\n  pop\n    /* \"#utility.yul\":5694:6060   */\n  swap2\n  swap1\n  pop\n  jump\t// out\n    /* \"#utility.yul\":6066:6485   */\ntag_12:\n    /* \"#utility.yul\":6232:6236   */\n  0x00\n    /* \"#utility.yul\":6270:6272   */\n  0x20\n    /* \"#utility.yul\":6259:6268   */\n  dup3\n    /* \"#utility.yul\":6255:6273   */\n  add\n    /* \"#utility.yul\":6247:6273   */\n  swap1\n  pop\n    /* \"#utility.yul\":6319:6328   */\n  dup2\n    /* \"#utility.yul\":6313:6317   */\n  dup2\n    /* \"#utility.yul\":6309:6329   */\n  sub\n    /* \"#utility.yul\":6305:6306   */\n  0x00\n    /* \"#utility.yul\":6294:6303   */\n  dup4\n    /* \"#utility.yul\":6290:6307   */\n  add\n    /* \"#utility.yul\":6283:6330   */\n  mstore\n    /* \"#utility.yul\":6347:6478   */\n  tag_127\n    /* \"#utility.yul\":6473:6477   */\n  dup2\n    /* \"#utility.yul\":6347:6478   */\n  tag_54\n  jump\t// in\ntag_127:\n    /* \"#utility.yul\":6339:6478   */\n  swap1\n  pop\n    /* \"#utility.yul\":6066:6485   */\n  swap2\n  swap1\n  pop\n  jump\t// out\n    /* \"#utility.yul\":6491:6671   */\ntag_20:\n    /* \"#utility.yul\":6539:6616   */\n  0x4e487b7100000000000000000000000000000000000000000000000000000000\n    /* \"#utility.yul\":6536:6537   */\n  0x00\n    /* \"#utility.yul\":6529:6617   */\n  mstore\n    /* \"#utility.yul\":6636:6640   */\n  0x32\n    /* \"#utility.yul\":6633:6634   */\n  0x04\n    /* \"#utility.yul\":6626:6641   */\n  mstore\n    /* \"#utility.yul\":6660:6664   */\n  0x24\n    /* \"#utility.yul\":6657:6658   */\n  0x00\n    /* \"#utility.yul\":6650:6665   */\n  revert\n    /* \"#utility.yul\":6677:6791   */\ntag_55:\n    /* \"#utility.yul\":6744:6750   */\n  0x00\n    /* \"#utility.yul\":6778:6783   */\n  dup2\n    /* \"#utility.yul\":6772:6784   */\n  mload\n    /* \"#utility.yul\":6762:6784   */\n  swap1\n  pop\n    /* \"#utility.yul\":6677:6791   */\n  swap2\n  swap1\n  pop\n  jump\t// out\n    /* \"#utility.yul\":6797:6981   */\ntag_56:\n    /* \"#utility.yul\":6896:6907   */\n  0x00\n    /* \"#utility.yul\":6930:6936   */\n  dup3\n    /* \"#utility.yul\":6925:6928   */\n  dup3\n    /* \"#utility.yul\":6918:6937   */\n  mstore\n    /* \"#utility.yul\":6970:6974   */\n  0x20\n    /* \"#utility.yul\":6965:6968   */\n  dup3\n    /* \"#utility.yul\":6961:6975   */\n  add\n    /* \"#utility.yul\":6946:6975   */\n  swap1\n  pop\n    /* \"#utility.yul\":6797:6981   */\n  swap3\n  swap2\n  pop\n  pop\n  jump\t// out\n    /* \"#utility.yul\":6987:7119   */\ntag_57:\n    /* \"#utility.yul\":7054:7058   */\n  0x00\n    /* \"#utility.yul\":7077:7080   */\n  dup2\n    /* \"#utility.yul\":7069:7080   */\n  swap1\n  pop\n    /* \"#utility.yul\":7107:7111   */\n  0x20\n    /* \"#utility.yul\":7102:7105   */\n  dup3\n    /* \"#utility.yul\":7098:7112   */\n  add\n    /* \"#utility.yul\":7090:7112   */\n  swap1\n  pop\n    /* \"#utility.yul\":6987:7119   */\n  swap2\n  swap1\n  pop\n  jump\t// out\n    /* \"#utility.yul\":7125:7233   */\ntag_58:\n    /* \"#utility.yul\":7202:7226   */\n  tag_133\n    /* \"#utility.yul\":7220:7225   */\n  dup2\n    /* \"#utility.yul\":7202:7226   */\n  tag_42\n  jump\t// in\ntag_133:\n    /* \"#utility.yul\":7197:7200   */\n  dup3\n    /* \"#utility.yul\":7190:7227   */\n  mstore\n    /* \"#utility.yul\":7125:7233   */\n  pop\n  pop\n  jump\t// out\n    /* \"#utility.yul\":7239:7418   */\ntag_59:\n    /* \"#utility.yul\":7308:7318   */\n  0x00\n    /* \"#utility.yul\":7329:7375   */\n  tag_135\n    /* \"#utility.yul\":7371:7374   */\n  dup4\n    /* \"#utility.yul\":7363:7369   */\n  dup4\n    /* \"#utility.yul\":7329:7375   */\n  tag_58\n  jump\t// in\ntag_135:\n    /* \"#utility.yul\":7407:7411   */\n  0x20\n    /* \"#utility.yul\":7402:7405   */\n  dup4\n    /* \"#utility.yul\":7398:7412   */\n  add\n    /* \"#utility.yul\":7384:7412   */\n  swap1\n  pop\n    /* \"#utility.yul\":7239:7418   */\n  swap3\n  swap2\n  pop\n  pop\n  jump\t// out\n    /* \"#utility.yul\":7424:7537   */\ntag_60:\n    /* \"#utility.yul\":7494:7498   */\n  0x00\n    /* \"#utility.yul\":7526:7530   */\n  0x20\n    /* \"#utility.yul\":7521:7524   */\n  dup3\n    /* \"#utility.yul\":7517:7531   */\n  add\n    /* \"#utility.yul\":7509:7531   */\n  swap1\n  pop\n    /* \"#utility.yul\":7424:7537   */\n  swap2\n  swap1\n  pop\n  jump\t// out\n    /* \"#utility.yul\":7573:8305   */\ntag_61:\n    /* \"#utility.yul\":7692:7695   */\n  0x00\n    /* \"#utility.yul\":7721:7775   */\n  tag_138\n    /* \"#utility.yul\":7769:7774   */\n  dup3\n    /* \"#utility.yul\":7721:7775   */\n  tag_55\n  jump\t// in\ntag_138:\n    /* \"#utility.yul\":7791:7877   */\n  tag_139\n    /* \"#utility.yul\":7870:7876   */\n  dup2\n    /* \"#utility.yul\":7865:7868   */\n  dup6\n    /* \"#utility.yul\":7791:7877   */\n  tag_56\n  jump\t// in\ntag_139:\n    /* \"#utility.yul\":7784:7877   */\n  swap4\n  pop\n    /* \"#utility.yul\":7901:7957   */\n  tag_140\n    /* \"#utility.yul\":7951:7956   */\n  dup4\n    /* \"#utility.yul\":7901:7957   */\n  tag_57\n  jump\t// in\ntag_140:\n    /* \"#utility.yul\":7980:7987   */\n  dup1\n    /* \"#utility.yul\":8011:8012   */\n  0x00\n    /* \"#utility.yul\":7996:8280   */\ntag_141:\n    /* \"#utility.yul\":8021:8027   */\n  dup4\n    /* \"#utility.yul\":8018:8019   */\n  dup2\n    /* \"#utility.yul\":8015:8028   */\n  lt\n    /* \"#utility.yul\":7996:8280   */\n  iszero\n  tag_143\n  jumpi\n    /* \"#utility.yul\":8097:8103   */\n  dup2\n    /* \"#utility.yul\":8091:8104   */\n  mload\n    /* \"#utility.yul\":8124:8187   */\n  tag_144\n    /* \"#utility.yul\":8183:8186   */\n  dup9\n    /* \"#utility.yul\":8168:8181   */\n  dup3\n    /* \"#utility.yul\":8124:8187   */\n  tag_59\n  jump\t// in\ntag_144:\n    /* \"#utility.yul\":8117:8187   */\n  swap8\n  pop\n    /* \"#utility.yul\":8210:8270   */\n  tag_145\n    /* \"#utility.yul\":8263:8269   */\n  dup4\n    /* \"#utility.yul\":8210:8270   */\n  tag_60\n  jump\t// in\ntag_145:\n    /* \"#utility.yul\":8200:8270   */\n  swap3\n  pop\n    /* \"#utility.yul\":8056:8280   */\n  pop\n    /* \"#utility.yul\":8043:8044   */\n  0x01\n    /* \"#utility.yul\":8040:8041   */\n  dup2\n    /* \"#utility.yul\":8036:8045   */\n  add\n    /* \"#utility.yul\":8031:8045   */\n  swap1\n  pop\n    /* \"#utility.yul\":7996:8280   */\n  jump(tag_141)\ntag_143:\n    /* \"#utility.yul\":8000:8014   */\n  pop\n    /* \"#utility.yul\":8296:8299   */\n  dup6\n    /* \"#utility.yul\":8289:8299   */\n  swap4\n  pop\n    /* \"#utility.yul\":7697:8305   */\n  pop\n  pop\n  pop\n    /* \"#utility.yul\":7573:8305   */\n  swap3\n  swap2\n  pop\n  pop\n  jump\t// out\n    /* \"#utility.yul\":8311:8429   */\ntag_62:\n    /* \"#utility.yul\":8398:8422   */\n  tag_147\n    /* \"#utility.yul\":8416:8421   */\n  dup2\n    /* \"#utility.yul\":8398:8422   */\n  tag_47\n  jump\t// in\ntag_147:\n    /* \"#utility.yul\":8393:8396   */\n  dup3\n    /* \"#utility.yul\":8386:8423   */\n  mstore\n    /* \"#utility.yul\":8311:8429   */\n  pop\n  pop\n  jump\t// out\n    /* \"#utility.yul\":8435:8918   */\ntag_22:\n    /* \"#utility.yul\":8606:8610   */\n  0x00\n    /* \"#utility.yul\":8644:8646   */\n  0x40\n    /* \"#utility.yul\":8633:8642   */\n  dup3\n    /* \"#utility.yul\":8629:8647   */\n  add\n    /* \"#utility.yul\":8621:8647   */\n  swap1\n  pop\n    /* \"#utility.yul\":8693:8702   */\n  dup2\n    /* \"#utility.yul\":8687:8691   */\n  dup2\n    /* \"#utility.yul\":8683:8703   */\n  sub\n    /* \"#utility.yul\":8679:8680   */\n  0x00\n    /* \"#utility.yul\":8668:8677   */\n  dup4\n    /* \"#utility.yul\":8664:8681   */\n  add\n    /* \"#utility.yul\":8657:8704   */\n  mstore\n    /* \"#utility.yul\":8721:8829   */\n  tag_149\n    /* \"#utility.yul\":8824:8828   */\n  dup2\n    /* \"#utility.yul\":8815:8821   */\n  dup6\n    /* \"#utility.yul\":8721:8829   */\n  tag_61\n  jump\t// in\ntag_149:\n    /* \"#utility.yul\":8713:8829   */\n  swap1\n  pop\n    /* \"#utility.yul\":8839:8911   */\n  tag_150\n    /* \"#utility.yul\":8907:8909   */\n  0x20\n    /* \"#utility.yul\":8896:8905   */\n  dup4\n    /* \"#utility.yul\":8892:8910   */\n  add\n    /* \"#utility.yul\":8883:8889   */\n  dup5\n    /* \"#utility.yul\":8839:8911   */\n  tag_62\n  jump\t// in\ntag_150:\n    /* \"#utility.yul\":8435:8918   */\n  swap4\n  swap3\n  pop\n  pop\n  pop\n  jump\t// out\n    /* \"safe.sol\":187:5199  contract MultiSignerSafe {... */\ntag_23:\n  dataSize(sub_0)\n  dup1\n  dataOffset(sub_0)\n  0x00\n  codecopy\n  0x00\n  return\nstop\n\nsub_0: assembly {\n        /* \"safe.sol\":187:5199  contract MultiSignerSafe {... */\n      mstore(0x40, 0x80)\n      callvalue\n      dup1\n      iszero\n      tag_1\n      jumpi\n      0x00\n      dup1\n      revert\n    tag_1:\n      pop\n      jumpi(tag_2, lt(calldatasize, 0x04))\n      shr(0xe0, calldataload(0x00))\n      dup1\n      0x694e80c3\n      gt\n      tag_18\n      jumpi\n      dup1\n      0xb77bf600\n      gt\n      tag_19\n      jumpi\n      dup1\n      0xb77bf600\n      eq\n      tag_14\n      jumpi\n      dup1\n      0xc01a8c84\n      eq\n      tag_15\n      jumpi\n      dup1\n      0xc6427474\n      eq\n      tag_16\n      jumpi\n      dup1\n      0xee22610b\n      eq\n      tag_17\n      jumpi\n      jump(tag_2)\n    tag_19:\n      dup1\n      0x694e80c3\n      eq\n      tag_10\n      jumpi\n      dup1\n      0x7065cb48\n      eq\n      tag_11\n      jumpi\n      dup1\n      0x9ace38c2\n      eq\n      tag_12\n      jumpi\n      dup1\n      0xa0e67e2b\n      eq\n      tag_13\n      jumpi\n      jump(tag_2)\n    tag_18:\n      dup1\n      0x2f54bf6e\n      gt\n      tag_20\n      jumpi\n      dup1\n      0x2f54bf6e\n      eq\n      tag_6\n      jumpi\n      dup1\n      0x33ea3dc8\n      eq\n      tag_7\n      jumpi\n      dup1\n      0x3411c81c\n      eq\n      tag_8\n      jumpi\n      dup1\n      0x42cde4e8\n      eq\n      tag_9\n      jumpi\n      jump(tag_2)\n    tag_20:\n      dup1\n      0x025e7c27\n      eq\n      tag_3\n      jumpi\n      dup1\n      0x173825d9\n      eq\n      tag_4\n      jumpi\n      dup1\n      0x2e7700f0\n      eq\n      tag_5\n      jumpi\n    tag_2:\n      0x00\n      dup1\n      revert\n        /* \"safe.sol\":219:242  address[] public owners */\n    tag_3:\n      tag_21\n      0x04\n      dup1\n      calldatasize\n      sub\n      dup2\n      add\n      swap1\n      tag_22\n      swap2\n      swap1\n      tag_23\n      jump\t// in\n    tag_22:\n      tag_24\n      jump\t// in\n    tag_21:\n      mload(0x40)\n      tag_25\n      swap2\n      swap1\n      tag_26\n      jump\t// in\n    tag_25:\n      mload(0x40)\n      dup1\n      swap2\n      sub\n      swap1\n      return\n        /* \"safe.sol\":4146:4250  function removeOwner(address owner) public onlyOwner {... */\n    tag_4:\n      tag_27\n      0x04\n      dup1\n      calldatasize\n      sub\n      dup2\n      add\n      swap1\n      tag_28\n      swap2\n      swap1\n      tag_29\n      jump\t// in\n    tag_28:\n      tag_30\n      jump\t// in\n    tag_27:\n      stop\n        /* \"safe.sol\":4515:4618  function getTransactionCount() public view returns (uint256) {... */\n    tag_5:\n      tag_31\n      tag_32\n      jump\t// in\n    tag_31:\n      mload(0x40)\n      tag_33\n      swap2\n      swap1\n      tag_34\n      jump\t// in\n    tag_33:\n      mload(0x40)\n      dup1\n      swap2\n      sub\n      swap1\n      return\n        /* \"safe.sol\":249:288  mapping(address => bool) public isOwner */\n    tag_6:\n      tag_35\n      0x04\n      dup1\n      calldatasize\n      sub\n      dup2\n      add\n      swap1\n      tag_36\n      swap2\n      swap1\n      tag_29\n      jump\t// in\n    tag_36:\n      tag_37\n      jump\t// in\n    tag_35:\n      mload(0x40)\n      tag_38\n      swap2\n      swap1\n      tag_39\n      jump\t// in\n    tag_38:\n      mload(0x40)\n      dup1\n      swap2\n      sub\n      swap1\n      return\n        /* \"safe.sol\":4626:5188  function getTransaction(uint256 transactionId)... */\n    tag_7:\n      tag_40\n      0x04\n      dup1\n      calldatasize\n      sub\n      dup2\n      add\n      swap1\n      tag_41\n      swap2\n      swap1\n      tag_23\n      jump\t// in\n    tag_41:\n      tag_42\n      jump\t// in\n    tag_40:\n      mload(0x40)\n      tag_43\n      swap6\n      swap5\n      swap4\n      swap3\n      swap2\n      swap1\n      tag_44\n      jump\t// in\n    tag_43:\n      mload(0x40)\n      dup1\n      swap2\n      sub\n      swap1\n      return\n        /* \"safe.sol\":422:487  mapping(uint256 => mapping(address => bool)) public confirmations */\n    tag_8:\n      tag_45\n      0x04\n      dup1\n      calldatasize\n      sub\n      dup2\n      add\n      swap1\n      tag_46\n      swap2\n      swap1\n      tag_47\n      jump\t// in\n    tag_46:\n      tag_48\n      jump\t// in\n    tag_45:\n      mload(0x40)\n      tag_49\n      swap2\n      swap1\n      tag_39\n      jump\t// in\n    tag_49:\n      mload(0x40)\n      dup1\n      swap2\n      sub\n      swap1\n      return\n        /* \"safe.sol\":295:319  uint256 public threshold */\n    tag_9:\n      tag_50\n      tag_51\n      jump\t// in\n    tag_50:\n      mload(0x40)\n      tag_52\n      swap2\n      swap1\n      tag_34\n      jump\t// in\n    tag_52:\n      mload(0x40)\n      dup1\n      swap2\n      sub\n      swap1\n      return\n        /* \"safe.sol\":4258:4384  function changeThreshold(uint256 newThreshold) public onlyOwner {... */\n    tag_10:\n      tag_53\n      0x04\n      dup1\n      calldatasize\n      sub\n      dup2\n      add\n      swap1\n      tag_54\n      swap2\n      swap1\n      tag_23\n      jump\t// in\n    tag_54:\n      tag_55\n      jump\t// in\n    tag_53:\n      stop\n        /* \"safe.sol\":4040:4138  function addOwner(address owner) public onlyOwner {... */\n    tag_11:\n      tag_56\n      0x04\n      dup1\n      calldatasize\n      sub\n      dup2\n      add\n      swap1\n      tag_57\n      swap2\n      swap1\n      tag_29\n      jump\t// in\n    tag_57:\n      tag_58\n      jump\t// in\n    tag_56:\n      stop\n        /* \"safe.sol\":326:377  mapping(uint256 => Transaction) public transactions */\n    tag_12:\n      tag_59\n      0x04\n      dup1\n      calldatasize\n      sub\n      dup2\n      add\n      swap1\n      tag_60\n      swap2\n      swap1\n      tag_23\n      jump\t// in\n    tag_60:\n      tag_61\n      jump\t// in\n    tag_59:\n      mload(0x40)\n      tag_62\n      swap6\n      swap5\n      swap4\n      swap3\n      swap2\n      swap1\n      tag_44\n      jump\t// in\n    tag_62:\n      mload(0x40)\n      dup1\n      swap2\n      sub\n      swap1\n      return\n        /* \"safe.sol\":4415:4507  function getOwners() public view returns (address[] memory) {... */\n    tag_13:\n      tag_63\n      tag_64\n      jump\t// in\n    tag_63:\n      mload(0x40)\n      tag_65\n      swap2\n      swap1\n      tag_66\n      jump\t// in\n    tag_65:\n      mload(0x40)\n      dup1\n      swap2\n      sub\n      swap1\n      return\n        /* \"safe.sol\":384:415  uint256 public transactionCount */\n    tag_14:\n      tag_67\n      tag_68\n      jump\t// in\n    tag_67:\n      mload(0x40)\n      tag_69\n      swap2\n      swap1\n      tag_34\n      jump\t// in\n    tag_69:\n      mload(0x40)\n      dup1\n      swap2\n      sub\n      swap1\n      return\n        /* \"safe.sol\":2722:3264  function confirmTransaction(uint256 transactionId) public onlyOwner {... */\n    tag_15:\n      tag_70\n      0x04\n      dup1\n      calldatasize\n      sub\n      dup2\n      add\n      swap1\n      tag_71\n      swap2\n      swap1\n      tag_23\n      jump\t// in\n    tag_71:\n      tag_72\n      jump\t// in\n    tag_70:\n      stop\n        /* \"safe.sol\":2008:2714  function submitTransaction(... */\n    tag_16:\n      tag_73\n      0x04\n      dup1\n      calldatasize\n      sub\n      dup2\n      add\n      swap1\n      tag_74\n      swap2\n      swap1\n      tag_75\n      jump\t// in\n    tag_74:\n      tag_76\n      jump\t// in\n    tag_73:\n      stop\n        /* \"safe.sol\":3272:3996  function executeTransaction(uint256 transactionId) public onlyOwner {... */\n    tag_17:\n      tag_77\n      0x04\n      dup1\n      calldatasize\n      sub\n      dup2\n      add\n      swap1\n      tag_78\n      swap2\n      swap1\n      tag_23\n      jump\t// in\n    tag_78:\n      tag_79\n      jump\t// in\n    tag_77:\n      stop\n        /* \"safe.sol\":219:242  address[] public owners */\n    tag_24:\n      0x00\n      dup2\n      dup2\n      sload\n      dup2\n      lt\n      tag_80\n      jumpi\n      0x00\n      dup1\n      revert\n    tag_80:\n      swap1\n      0x00\n      mstore\n      keccak256(0x00, 0x20)\n      add\n      0x00\n      swap2\n      pop\n      sload\n      swap1\n      0x0100\n      exp\n      swap1\n      div\n      0xffffffffffffffffffffffffffffffffffffffff\n      and\n      dup2\n      jump\t// out\n        /* \"safe.sol\":4146:4250  function removeOwner(address owner) public onlyOwner {... */\n    tag_30:\n        /* \"safe.sol\":1922:1929  isOwner */\n      0x01\n        /* \"safe.sol\":1922:1941  isOwner[msg.sender] */\n      0x00\n        /* \"safe.sol\":1930:1940  msg.sender */\n      caller\n        /* \"safe.sol\":1922:1941  isOwner[msg.sender] */\n      0xffffffffffffffffffffffffffffffffffffffff\n      and\n      0xffffffffffffffffffffffffffffffffffffffff\n      and\n      dup2\n      mstore\n      0x20\n      add\n      swap1\n      dup2\n      mstore\n      0x20\n      add\n      0x00\n      keccak256\n      0x00\n      swap1\n      sload\n      swap1\n      0x0100\n      exp\n      swap1\n      div\n      0xff\n      and\n        /* \"safe.sol\":1914:1980  require(isOwner[msg.sender], \"Only owners can call this function\") */\n      tag_83\n      jumpi\n      mload(0x40)\n      0x08c379a000000000000000000000000000000000000000000000000000000000\n      dup2\n      mstore\n      0x04\n      add\n      tag_84\n      swap1\n      tag_85\n      jump\t// in\n    tag_84:\n      mload(0x40)\n      dup1\n      swap2\n      sub\n      swap1\n      revert\n    tag_83:\n        /* \"safe.sol\":4215:4242  RemoveOwnerInitiated(owner) */\n      0x3a7bd490a3f9c025dee372ee5627d300661929bff2a07154983f2154734a3784\n        /* \"safe.sol\":4236:4241  owner */\n      dup2\n        /* \"safe.sol\":4215:4242  RemoveOwnerInitiated(owner) */\n      mload(0x40)\n      tag_87\n      swap2\n      swap1\n      tag_26\n      jump\t// in\n    tag_87:\n      mload(0x40)\n      dup1\n      swap2\n      sub\n      swap1\n      log1\n        /* \"safe.sol\":4146:4250  function removeOwner(address owner) public onlyOwner {... */\n      pop\n      jump\t// out\n        /* \"safe.sol\":4515:4618  function getTransactionCount() public view returns (uint256) {... */\n    tag_32:\n        /* \"safe.sol\":4567:4574  uint256 */\n      0x00\n        /* \"safe.sol\":4594:4610  transactionCount */\n      sload(0x04)\n        /* \"safe.sol\":4587:4610  return transactionCount */\n      swap1\n      pop\n        /* \"safe.sol\":4515:4618  function getTransactionCount() public view returns (uint256) {... */\n      swap1\n      jump\t// out\n        /* \"safe.sol\":249:288  mapping(address => bool) public isOwner */\n    tag_37:\n      mstore(0x20, 0x01)\n      dup1\n      0x00\n      mstore\n      keccak256(0x00, 0x40)\n      0x00\n      swap2\n      pop\n      sload\n      swap1\n      0x0100\n      exp\n      swap1\n      div\n      0xff\n      and\n      dup2\n      jump\t// out\n        /* \"safe.sol\":4626:5188  function getTransaction(uint256 transactionId)... */\n    tag_42:\n        /* \"safe.sol\":4735:4754  address destination */\n      0x00\n        /* \"safe.sol\":4769:4782  uint256 value */\n      dup1\n        /* \"safe.sol\":4797:4814  bytes memory data */\n      0x60\n        /* \"safe.sol\":4829:4842  bool executed */\n      0x00\n        /* \"safe.sol\":4857:4882  uint256 noOfconfirmations */\n      dup1\n        /* \"safe.sol\":4910:4941  Transaction storage transaction */\n      0x00\n        /* \"safe.sol\":4944:4956  transactions */\n      0x03\n        /* \"safe.sol\":4944:4971  transactions[transactionId] */\n      0x00\n        /* \"safe.sol\":4957:4970  transactionId */\n      dup9\n        /* \"safe.sol\":4944:4971  transactions[transactionId] */\n      dup2\n      mstore\n      0x20\n      add\n      swap1\n      dup2\n      mstore\n      0x20\n      add\n      0x00\n      keccak256\n        /* \"safe.sol\":4910:4971  Transaction storage transaction = transactions[transactionId] */\n      swap1\n      pop\n        /* \"safe.sol\":5004:5015  transaction */\n      dup1\n        /* \"safe.sol\":5004:5027  transaction.destination */\n      0x00\n      add\n      0x00\n      swap1\n      sload\n      swap1\n      0x0100\n      exp\n      swap1\n      div\n      0xffffffffffffffffffffffffffffffffffffffff\n      and\n        /* \"safe.sol\":5042:5053  transaction */\n      dup2\n        /* \"safe.sol\":5042:5059  transaction.value */\n      0x01\n      add\n      sload\n        /* \"safe.sol\":5074:5085  transaction */\n      dup3\n        /* \"safe.sol\":5074:5090  transaction.data */\n      0x02\n      add\n        /* \"safe.sol\":5105:5116  transaction */\n      dup4\n        /* \"safe.sol\":5105:5125  transaction.executed */\n      0x03\n      add\n      0x00\n      swap1\n      sload\n      swap1\n      0x0100\n      exp\n      swap1\n      div\n      0xff\n      and\n        /* \"safe.sol\":5140:5151  transaction */\n      dup5\n        /* \"safe.sol\":5140:5169  transaction.noOfConfirmations */\n      0x04\n      add\n      sload\n        /* \"safe.sol\":4982:5180  return (... */\n      dup3\n      dup1\n      sload\n      tag_90\n      swap1\n      tag_91\n      jump\t// in\n    tag_90:\n      dup1\n      0x1f\n      add\n      0x20\n      dup1\n      swap2\n      div\n      mul\n      0x20\n      add\n      mload(0x40)\n      swap1\n      dup2\n      add\n      0x40\n      mstore\n      dup1\n      swap3\n      swap2\n      swap1\n      dup2\n      dup2\n      mstore\n      0x20\n      add\n      dup3\n      dup1\n      sload\n      tag_92\n      swap1\n      tag_91\n      jump\t// in\n    tag_92:\n      dup1\n      iszero\n      tag_93\n      jumpi\n      dup1\n      0x1f\n      lt\n      tag_94\n      jumpi\n      0x0100\n      dup1\n      dup4\n      sload\n      div\n      mul\n      dup4\n      mstore\n      swap2\n      0x20\n      add\n      swap2\n      jump(tag_93)\n    tag_94:\n      dup3\n      add\n      swap2\n      swap1\n      0x00\n      mstore\n      keccak256(0x00, 0x20)\n      swap1\n    tag_95:\n      dup2\n      sload\n      dup2\n      mstore\n      swap1\n      0x01\n      add\n      swap1\n      0x20\n      add\n      dup1\n      dup4\n      gt\n      tag_95\n      jumpi\n      dup3\n      swap1\n      sub\n      0x1f\n      and\n      dup3\n      add\n      swap2\n    tag_93:\n      pop\n      pop\n      pop\n      pop\n      pop\n      swap3\n      pop\n      swap6\n      pop\n      swap6\n      pop\n      swap6\n      pop\n      swap6\n      pop\n      swap6\n      pop\n      pop\n        /* \"safe.sol\":4626:5188  function getTransaction(uint256 transactionId)... */\n      swap2\n      swap4\n      swap6\n      swap1\n      swap3\n      swap5\n      pop\n      jump\t// out\n        /* \"safe.sol\":422:487  mapping(uint256 => mapping(address => bool)) public confirmations */\n    tag_48:\n      mstore(0x20, 0x05)\n      dup2\n      0x00\n      mstore\n      mstore(0x20, keccak256(0x00, 0x40))\n      dup1\n      0x00\n      mstore\n      keccak256(0x00, 0x40)\n      0x00\n      swap2\n      pop\n      swap2\n      pop\n      swap1\n      sload\n      swap1\n      0x0100\n      exp\n      swap1\n      div\n      0xff\n      and\n      dup2\n      jump\t// out\n        /* \"safe.sol\":295:319  uint256 public threshold */\n    tag_51:\n      sload(0x02)\n      dup2\n      jump\t// out\n        /* \"safe.sol\":4258:4384  function changeThreshold(uint256 newThreshold) public onlyOwner {... */\n    tag_55:\n        /* \"safe.sol\":1922:1929  isOwner */\n      0x01\n        /* \"safe.sol\":1922:1941  isOwner[msg.sender] */\n      0x00\n        /* \"safe.sol\":1930:1940  msg.sender */\n      caller\n        /* \"safe.sol\":1922:1941  isOwner[msg.sender] */\n      0xffffffffffffffffffffffffffffffffffffffff\n      and\n      0xffffffffffffffffffffffffffffffffffffffff\n      and\n      dup2\n      mstore\n      0x20\n      add\n      swap1\n      dup2\n      mstore\n      0x20\n      add\n      0x00\n      keccak256\n      0x00\n      swap1\n      sload\n      swap1\n      0x0100\n      exp\n      swap1\n      div\n      0xff\n      and\n        /* \"safe.sol\":1914:1980  require(isOwner[msg.sender], \"Only owners can call this function\") */\n      tag_97\n      jumpi\n      mload(0x40)\n      0x08c379a000000000000000000000000000000000000000000000000000000000\n      dup2\n      mstore\n      0x04\n      add\n      tag_98\n      swap1\n      tag_85\n      jump\t// in\n    tag_98:\n      mload(0x40)\n      dup1\n      swap2\n      sub\n      swap1\n      revert\n    tag_97:\n        /* \"safe.sol\":4338:4376  ChangeThresholdInitiated(newThreshold) */\n      0x266f230c4a910ad4e6bf12e62e3fe760f4156f8ad8b5fe491abf242b0766c3f9\n        /* \"safe.sol\":4363:4375  newThreshold */\n      dup2\n        /* \"safe.sol\":4338:4376  ChangeThresholdInitiated(newThreshold) */\n      mload(0x40)\n      tag_100\n      swap2\n      swap1\n      tag_34\n      jump\t// in\n    tag_100:\n      mload(0x40)\n      dup1\n      swap2\n      sub\n      swap1\n      log1\n        /* \"safe.sol\":4258:4384  function changeThreshold(uint256 newThreshold) public onlyOwner {... */\n      pop\n      jump\t// out\n        /* \"safe.sol\":4040:4138  function addOwner(address owner) public onlyOwner {... */\n    tag_58:\n        /* \"safe.sol\":1922:1929  isOwner */\n      0x01\n        /* \"safe.sol\":1922:1941  isOwner[msg.sender] */\n      0x00\n        /* \"safe.sol\":1930:1940  msg.sender */\n      caller\n        /* \"safe.sol\":1922:1941  isOwner[msg.sender] */\n      0xffffffffffffffffffffffffffffffffffffffff\n      and\n      0xffffffffffffffffffffffffffffffffffffffff\n      and\n      dup2\n      mstore\n      0x20\n      add\n      swap1\n      dup2\n      mstore\n      0x20\n      add\n      0x00\n      keccak256\n      0x00\n      swap1\n      sload\n      swap1\n      0x0100\n      exp\n      swap1\n      div\n      0xff\n      and\n        /* \"safe.sol\":1914:1980  require(isOwner[msg.sender], \"Only owners can call this function\") */\n      tag_102\n      jumpi\n      mload(0x40)\n      0x08c379a000000000000000000000000000000000000000000000000000000000\n      dup2\n      mstore\n      0x04\n      add\n      tag_103\n      swap1\n      tag_85\n      jump\t// in\n    tag_103:\n      mload(0x40)\n      dup1\n      swap2\n      sub\n      swap1\n      revert\n    tag_102:\n        /* \"safe.sol\":4106:4130  AddOwnerInitiated(owner) */\n      0x47ff96e4cb303a209eba96319c10eb9ca4448c25ff1f71e16d3026eae00661ac\n        /* \"safe.sol\":4124:4129  owner */\n      dup2\n        /* \"safe.sol\":4106:4130  AddOwnerInitiated(owner) */\n      mload(0x40)\n      tag_105\n      swap2\n      swap1\n      tag_26\n      jump\t// in\n    tag_105:\n      mload(0x40)\n      dup1\n      swap2\n      sub\n      swap1\n      log1\n        /* \"safe.sol\":4040:4138  function addOwner(address owner) public onlyOwner {... */\n      pop\n      jump\t// out\n        /* \"safe.sol\":326:377  mapping(uint256 => Transaction) public transactions */\n    tag_61:\n      mstore(0x20, 0x03)\n      dup1\n      0x00\n      mstore\n      keccak256(0x00, 0x40)\n      0x00\n      swap2\n      pop\n      swap1\n      pop\n      dup1\n      0x00\n      add\n      0x00\n      swap1\n      sload\n      swap1\n      0x0100\n      exp\n      swap1\n      div\n      0xffffffffffffffffffffffffffffffffffffffff\n      and\n      swap1\n      dup1\n      0x01\n      add\n      sload\n      swap1\n      dup1\n      0x02\n      add\n      dup1\n      sload\n      tag_106\n      swap1\n      tag_91\n      jump\t// in\n    tag_106:\n      dup1\n      0x1f\n      add\n      0x20\n      dup1\n      swap2\n      div\n      mul\n      0x20\n      add\n      mload(0x40)\n      swap1\n      dup2\n      add\n      0x40\n      mstore\n      dup1\n      swap3\n      swap2\n      swap1\n      dup2\n      dup2\n      mstore\n      0x20\n      add\n      dup3\n      dup1\n      sload\n      tag_107\n      swap1\n      tag_91\n      jump\t// in\n    tag_107:\n      dup1\n      iszero\n      tag_108\n      jumpi\n      dup1\n      0x1f\n      lt\n      tag_109\n      jumpi\n      0x0100\n      dup1\n      dup4\n      sload\n      div\n      mul\n      dup4\n      mstore\n      swap2\n      0x20\n      add\n      swap2\n      jump(tag_108)\n    tag_109:\n      dup3\n      add\n      swap2\n      swap1\n      0x00\n      mstore\n      keccak256(0x00, 0x20)\n      swap1\n    tag_110:\n      dup2\n      sload\n      dup2\n      mstore\n      swap1\n      0x01\n      add\n      swap1\n      0x20\n      add\n      dup1\n      dup4\n      gt\n      tag_110\n      jumpi\n      dup3\n      swap1\n      sub\n      0x1f\n      and\n      dup3\n      add\n      swap2\n    tag_108:\n      pop\n      pop\n      pop\n      pop\n      pop\n      swap1\n      dup1\n      0x03\n      add\n      0x00\n      swap1\n      sload\n      swap1\n      0x0100\n      exp\n      swap1\n      div\n      0xff\n      and\n      swap1\n      dup1\n      0x04\n      add\n      sload\n      swap1\n      pop\n      dup6\n      jump\t// out\n        /* \"safe.sol\":4415:4507  function getOwners() public view returns (address[] memory) {... */\n    tag_64:\n        /* \"safe.sol\":4457:4473  address[] memory */\n      0x60\n        /* \"safe.sol\":4493:4499  owners */\n      0x00\n        /* \"safe.sol\":4486:4499  return owners */\n      dup1\n      sload\n      dup1\n      0x20\n      mul\n      0x20\n      add\n      mload(0x40)\n      swap1\n      dup2\n      add\n      0x40\n      mstore\n      dup1\n      swap3\n      swap2\n      swap1\n      dup2\n      dup2\n      mstore\n      0x20\n      add\n      dup3\n      dup1\n      sload\n      dup1\n      iszero\n      tag_112\n      jumpi\n      0x20\n      mul\n      dup3\n      add\n      swap2\n      swap1\n      0x00\n      mstore\n      keccak256(0x00, 0x20)\n      swap1\n    tag_113:\n      dup2\n      0x00\n      swap1\n      sload\n      swap1\n      0x0100\n      exp\n      swap1\n      div\n      0xffffffffffffffffffffffffffffffffffffffff\n      and\n      0xffffffffffffffffffffffffffffffffffffffff\n      and\n      dup2\n      mstore\n      0x20\n      add\n      swap1\n      0x01\n      add\n      swap1\n      dup1\n      dup4\n      gt\n      tag_113\n      jumpi\n    tag_112:\n      pop\n      pop\n      pop\n      pop\n      pop\n      swap1\n      pop\n        /* \"safe.sol\":4415:4507  function getOwners() public view returns (address[] memory) {... */\n      swap1\n      jump\t// out\n        /* \"safe.sol\":384:415  uint256 public transactionCount */\n    tag_68:\n      sload(0x04)\n      dup2\n      jump\t// out\n        /* \"safe.sol\":2722:3264  function confirmTransaction(uint256 transactionId) public onlyOwner {... */\n    tag_72:\n        /* \"safe.sol\":1922:1929  isOwner */\n      0x01\n        /* \"safe.sol\":1922:1941  isOwner[msg.sender] */\n      0x00\n        /* \"safe.sol\":1930:1940  msg.sender */\n      caller\n        /* \"safe.sol\":1922:1941  isOwner[msg.sender] */\n      0xffffffffffffffffffffffffffffffffffffffff\n      and\n      0xffffffffffffffffffffffffffffffffffffffff\n      and\n      dup2\n      mstore\n      0x20\n      add\n      swap1\n      dup2\n      mstore\n      0x20\n      add\n      0x00\n      keccak256\n      0x00\n      swap1\n      sload\n      swap1\n      0x0100\n      exp\n      swap1\n      div\n      0xff\n      and\n        /* \"safe.sol\":1914:1980  require(isOwner[msg.sender], \"Only owners can call this function\") */\n      tag_115\n      jumpi\n      mload(0x40)\n      0x08c379a000000000000000000000000000000000000000000000000000000000\n      dup2\n      mstore\n      0x04\n      add\n      tag_116\n      swap1\n      tag_85\n      jump\t// in\n    tag_116:\n      mload(0x40)\n      dup1\n      swap2\n      sub\n      swap1\n      revert\n    tag_115:\n        /* \"safe.sol\":2874:2875  0 */\n      0x00\n        /* \"safe.sol\":2823:2876  transactions[transactionId].destination != address(0) */\n      0xffffffffffffffffffffffffffffffffffffffff\n      and\n        /* \"safe.sol\":2823:2835  transactions */\n      0x03\n        /* \"safe.sol\":2823:2850  transactions[transactionId] */\n      0x00\n        /* \"safe.sol\":2836:2849  transactionId */\n      dup4\n        /* \"safe.sol\":2823:2850  transactions[transactionId] */\n      dup2\n      mstore\n      0x20\n      add\n      swap1\n      dup2\n      mstore\n      0x20\n      add\n      0x00\n      keccak256\n        /* \"safe.sol\":2823:2862  transactions[transactionId].destination */\n      0x00\n      add\n      0x00\n      swap1\n      sload\n      swap1\n      0x0100\n      exp\n      swap1\n      div\n      0xffffffffffffffffffffffffffffffffffffffff\n      and\n        /* \"safe.sol\":2823:2876  transactions[transactionId].destination != address(0) */\n      0xffffffffffffffffffffffffffffffffffffffff\n      and\n      sub\n        /* \"safe.sol\":2801:2930  require(... */\n      tag_118\n      jumpi\n      mload(0x40)\n      0x08c379a000000000000000000000000000000000000000000000000000000000\n      dup2\n      mstore\n      0x04\n      add\n      tag_119\n      swap1\n      tag_120\n      jump\t// in\n    tag_119:\n      mload(0x40)\n      dup1\n      swap2\n      sub\n      swap1\n      revert\n    tag_118:\n        /* \"safe.sol\":2964:2977  confirmations */\n      0x05\n        /* \"safe.sol\":2964:2992  confirmations[transactionId] */\n      0x00\n        /* \"safe.sol\":2978:2991  transactionId */\n      dup3\n        /* \"safe.sol\":2964:2992  confirmations[transactionId] */\n      dup2\n      mstore\n      0x20\n      add\n      swap1\n      dup2\n      mstore\n      0x20\n      add\n      0x00\n      keccak256\n        /* \"safe.sol\":2964:3004  confirmations[transactionId][msg.sender] */\n      0x00\n        /* \"safe.sol\":2993:3003  msg.sender */\n      caller\n        /* \"safe.sol\":2964:3004  confirmations[transactionId][msg.sender] */\n      0xffffffffffffffffffffffffffffffffffffffff\n      and\n      0xffffffffffffffffffffffffffffffffffffffff\n      and\n      dup2\n      mstore\n      0x20\n      add\n      swap1\n      dup2\n      mstore\n      0x20\n      add\n      0x00\n      keccak256\n      0x00\n      swap1\n      sload\n      swap1\n      0x0100\n      exp\n      swap1\n      div\n      0xff\n      and\n        /* \"safe.sol\":2963:3004  !confirmations[transactionId][msg.sender] */\n      iszero\n        /* \"safe.sol\":2941:3075  require(... */\n      tag_121\n      jumpi\n      mload(0x40)\n      0x08c379a000000000000000000000000000000000000000000000000000000000\n      dup2\n      mstore\n      0x04\n      add\n      tag_122\n      swap1\n      tag_123\n      jump\t// in\n    tag_122:\n      mload(0x40)\n      dup1\n      swap2\n      sub\n      swap1\n      revert\n    tag_121:\n        /* \"safe.sol\":3131:3135  true */\n      0x01\n        /* \"safe.sol\":3088:3101  confirmations */\n      0x05\n        /* \"safe.sol\":3088:3116  confirmations[transactionId] */\n      0x00\n        /* \"safe.sol\":3102:3115  transactionId */\n      dup4\n        /* \"safe.sol\":3088:3116  confirmations[transactionId] */\n      dup2\n      mstore\n      0x20\n      add\n      swap1\n      dup2\n      mstore\n      0x20\n      add\n      0x00\n      keccak256\n        /* \"safe.sol\":3088:3128  confirmations[transactionId][msg.sender] */\n      0x00\n        /* \"safe.sol\":3117:3127  msg.sender */\n      caller\n        /* \"safe.sol\":3088:3128  confirmations[transactionId][msg.sender] */\n      0xffffffffffffffffffffffffffffffffffffffff\n      and\n      0xffffffffffffffffffffffffffffffffffffffff\n      and\n      dup2\n      mstore\n      0x20\n      add\n      swap1\n      dup2\n      mstore\n      0x20\n      add\n      0x00\n      keccak256\n      0x00\n        /* \"safe.sol\":3088:3135  confirmations[transactionId][msg.sender] = true */\n      0x0100\n      exp\n      dup2\n      sload\n      dup2\n      0xff\n      mul\n      not\n      and\n      swap1\n      dup4\n      iszero\n      iszero\n      mul\n      or\n      swap1\n      sstore\n      pop\n        /* \"safe.sol\":3146:3158  transactions */\n      0x03\n        /* \"safe.sol\":3146:3173  transactions[transactionId] */\n      0x00\n        /* \"safe.sol\":3159:3172  transactionId */\n      dup3\n        /* \"safe.sol\":3146:3173  transactions[transactionId] */\n      dup2\n      mstore\n      0x20\n      add\n      swap1\n      dup2\n      mstore\n      0x20\n      add\n      0x00\n      keccak256\n        /* \"safe.sol\":3146:3191  transactions[transactionId].noOfConfirmations */\n      0x04\n      add\n      0x00\n        /* \"safe.sol\":3146:3193  transactions[transactionId].noOfConfirmations++ */\n      dup2\n      sload\n      dup1\n      swap3\n      swap2\n      swap1\n      tag_124\n      swap1\n      tag_125\n      jump\t// in\n    tag_124:\n      swap2\n      swap1\n      pop\n      sstore\n      pop\n        /* \"safe.sol\":3245:3255  msg.sender */\n      caller\n        /* \"safe.sol\":3209:3256  TransactionConfirmed(transactionId, msg.sender) */\n      0xffffffffffffffffffffffffffffffffffffffff\n      and\n        /* \"safe.sol\":3230:3243  transactionId */\n      dup2\n        /* \"safe.sol\":3209:3256  TransactionConfirmed(transactionId, msg.sender) */\n      0x15c2f311c9e0f53b50388279894aeff029a3457884a6601e924fca879e12adcc\n      mload(0x40)\n      mload(0x40)\n      dup1\n      swap2\n      sub\n      swap1\n      log3\n        /* \"safe.sol\":2722:3264  function confirmTransaction(uint256 transactionId) public onlyOwner {... */\n      pop\n      jump\t// out\n        /* \"safe.sol\":2008:2714  function submitTransaction(... */\n    tag_76:\n        /* \"safe.sol\":1922:1929  isOwner */\n      0x01\n        /* \"safe.sol\":1922:1941  isOwner[msg.sender] */\n      0x00\n        /* \"safe.sol\":1930:1940  msg.sender */\n      caller\n        /* \"safe.sol\":1922:1941  isOwner[msg.sender] */\n      0xffffffffffffffffffffffffffffffffffffffff\n      and\n      0xffffffffffffffffffffffffffffffffffffffff\n      and\n      dup2\n      mstore\n      0x20\n      add\n      swap1\n      dup2\n      mstore\n      0x20\n      add\n      0x00\n      keccak256\n      0x00\n      swap1\n      sload\n      swap1\n      0x0100\n      exp\n      swap1\n      div\n      0xff\n      and\n        /* \"safe.sol\":1914:1980  require(isOwner[msg.sender], \"Only owners can call this function\") */\n      tag_127\n      jumpi\n      mload(0x40)\n      0x08c379a000000000000000000000000000000000000000000000000000000000\n      dup2\n      mstore\n      0x04\n      add\n      tag_128\n      swap1\n      tag_85\n      jump\t// in\n    tag_128:\n      mload(0x40)\n      dup1\n      swap2\n      sub\n      swap1\n      revert\n    tag_127:\n        /* \"safe.sol\":2187:2367  Transaction({... */\n      mload(0x40)\n      dup1\n      0xa0\n      add\n      0x40\n      mstore\n      dup1\n        /* \"safe.sol\":2227:2238  destination */\n      dup6\n        /* \"safe.sol\":2187:2367  Transaction({... */\n      0xffffffffffffffffffffffffffffffffffffffff\n      and\n      dup2\n      mstore\n      0x20\n      add\n        /* \"safe.sol\":2260:2265  value */\n      dup5\n        /* \"safe.sol\":2187:2367  Transaction({... */\n      dup2\n      mstore\n      0x20\n      add\n        /* \"safe.sol\":2286:2290  data */\n      dup4\n      dup4\n        /* \"safe.sol\":2187:2367  Transaction({... */\n      dup1\n      dup1\n      0x1f\n      add\n      0x20\n      dup1\n      swap2\n      div\n      mul\n      0x20\n      add\n      mload(0x40)\n      swap1\n      dup2\n      add\n      0x40\n      mstore\n      dup1\n      swap4\n      swap3\n      swap2\n      swap1\n      dup2\n      dup2\n      mstore\n      0x20\n      add\n      dup4\n      dup4\n      dup1\n      dup3\n      dup5\n      calldatacopy\n      0x00\n      dup2\n      dup5\n      add\n      mstore\n      not(0x1f)\n      0x1f\n      dup3\n      add\n      and\n      swap1\n      pop\n      dup1\n      dup4\n      add\n      swap3\n      pop\n      pop\n      pop\n      pop\n      pop\n      pop\n      pop\n      dup2\n      mstore\n      0x20\n      add\n        /* \"safe.sol\":2315:2320  false */\n      0x00\n        /* \"safe.sol\":2187:2367  Transaction({... */\n      iszero\n      iszero\n      dup2\n      mstore\n      0x20\n      add\n        /* \"safe.sol\":2354:2355  0 */\n      0x00\n        /* \"safe.sol\":2187:2367  Transaction({... */\n      dup2\n      mstore\n      pop\n        /* \"safe.sol\":2154:2166  transactions */\n      0x03\n        /* \"safe.sol\":2154:2184  transactions[transactionCount] */\n      0x00\n        /* \"safe.sol\":2167:2183  transactionCount */\n      sload(0x04)\n        /* \"safe.sol\":2154:2184  transactions[transactionCount] */\n      dup2\n      mstore\n      0x20\n      add\n      swap1\n      dup2\n      mstore\n      0x20\n      add\n      0x00\n      keccak256\n        /* \"safe.sol\":2154:2367  transactions[transactionCount] = Transaction({... */\n      0x00\n      dup3\n      add\n      mload\n      dup2\n      0x00\n      add\n      exp(0x0100, 0x00)\n      dup2\n      sload\n      dup2\n      0xffffffffffffffffffffffffffffffffffffffff\n      mul\n      not\n      and\n      swap1\n      dup4\n      0xffffffffffffffffffffffffffffffffffffffff\n      and\n      mul\n      or\n      swap1\n      sstore\n      pop\n      0x20\n      dup3\n      add\n      mload\n      dup2\n      0x01\n      add\n      sstore\n      0x40\n      dup3\n      add\n      mload\n      dup2\n      0x02\n      add\n      swap1\n      dup2\n      tag_130\n      swap2\n      swap1\n      tag_131\n      jump\t// in\n    tag_130:\n      pop\n      0x60\n      dup3\n      add\n      mload\n      dup2\n      0x03\n      add\n      exp(0x0100, 0x00)\n      dup2\n      sload\n      dup2\n      0xff\n      mul\n      not\n      and\n      swap1\n      dup4\n      iszero\n      iszero\n      mul\n      or\n      swap1\n      sstore\n      pop\n      0x80\n      dup3\n      add\n      mload\n      dup2\n      0x04\n      add\n      sstore\n      swap1\n      pop\n      pop\n        /* \"safe.sol\":2426:2430  true */\n      0x01\n        /* \"safe.sol\":2380:2393  confirmations */\n      0x05\n        /* \"safe.sol\":2380:2411  confirmations[transactionCount] */\n      0x00\n        /* \"safe.sol\":2394:2410  transactionCount */\n      sload(0x04)\n        /* \"safe.sol\":2380:2411  confirmations[transactionCount] */\n      dup2\n      mstore\n      0x20\n      add\n      swap1\n      dup2\n      mstore\n      0x20\n      add\n      0x00\n      keccak256\n        /* \"safe.sol\":2380:2423  confirmations[transactionCount][msg.sender] */\n      0x00\n        /* \"safe.sol\":2412:2422  msg.sender */\n      caller\n        /* \"safe.sol\":2380:2423  confirmations[transactionCount][msg.sender] */\n      0xffffffffffffffffffffffffffffffffffffffff\n      and\n      0xffffffffffffffffffffffffffffffffffffffff\n      and\n      dup2\n      mstore\n      0x20\n      add\n      swap1\n      dup2\n      mstore\n      0x20\n      add\n      0x00\n      keccak256\n      0x00\n        /* \"safe.sol\":2380:2430  confirmations[transactionCount][msg.sender] = true */\n      0x0100\n      exp\n      dup2\n      sload\n      dup2\n      0xff\n      mul\n      not\n      and\n      swap1\n      dup4\n      iszero\n      iszero\n      mul\n      or\n      swap1\n      sstore\n      pop\n        /* \"safe.sol\":2466:2478  transactions */\n      0x03\n        /* \"safe.sol\":2466:2496  transactions[transactionCount] */\n      0x00\n        /* \"safe.sol\":2479:2495  transactionCount */\n      sload(0x04)\n        /* \"safe.sol\":2466:2496  transactions[transactionCount] */\n      dup2\n      mstore\n      0x20\n      add\n      swap1\n      dup2\n      mstore\n      0x20\n      add\n      0x00\n      keccak256\n        /* \"safe.sol\":2466:2514  transactions[transactionCount].noOfConfirmations */\n      0x04\n      add\n      0x00\n        /* \"safe.sol\":2466:2516  transactions[transactionCount].noOfConfirmations++ */\n      dup2\n      sload\n      dup1\n      swap3\n      swap2\n      swap1\n      tag_132\n      swap1\n      tag_125\n      jump\t// in\n    tag_132:\n      swap2\n      swap1\n      pop\n      sstore\n      pop\n        /* \"safe.sol\":2572:2582  msg.sender */\n      caller\n        /* \"safe.sol\":2534:2609  TransactionProposed(transactionCount, msg.sender, destination, value, data) */\n      0xffffffffffffffffffffffffffffffffffffffff\n      and\n        /* \"safe.sol\":2554:2570  transactionCount */\n      sload(0x04)\n        /* \"safe.sol\":2534:2609  TransactionProposed(transactionCount, msg.sender, destination, value, data) */\n      0xf13a7a4144a3232fd093fca16be52a8223bad74cee86d5fa8966c7061e75bfd3\n        /* \"safe.sol\":2584:2595  destination */\n      dup7\n        /* \"safe.sol\":2597:2602  value */\n      dup7\n        /* \"safe.sol\":2604:2608  data */\n      dup7\n      dup7\n        /* \"safe.sol\":2534:2609  TransactionProposed(transactionCount, msg.sender, destination, value, data) */\n      mload(0x40)\n      tag_133\n      swap5\n      swap4\n      swap3\n      swap2\n      swap1\n      tag_134\n      jump\t// in\n    tag_133:\n      mload(0x40)\n      dup1\n      swap2\n      sub\n      swap1\n      log3\n        /* \"safe.sol\":2664:2674  msg.sender */\n      caller\n        /* \"safe.sol\":2625:2675  TransactionConfirmed(transactionCount, msg.sender) */\n      0xffffffffffffffffffffffffffffffffffffffff\n      and\n        /* \"safe.sol\":2646:2662  transactionCount */\n      sload(0x04)\n        /* \"safe.sol\":2625:2675  TransactionConfirmed(transactionCount, msg.sender) */\n      0x15c2f311c9e0f53b50388279894aeff029a3457884a6601e924fca879e12adcc\n      mload(0x40)\n      mload(0x40)\n      dup1\n      swap2\n      sub\n      swap1\n      log3\n        /* \"safe.sol\":2688:2704  transactionCount */\n      0x04\n      0x00\n        /* \"safe.sol\":2688:2706  transactionCount++ */\n      dup2\n      sload\n      dup1\n      swap3\n      swap2\n      swap1\n      tag_135\n      swap1\n      tag_125\n      jump\t// in\n    tag_135:\n      swap2\n      swap1\n      pop\n      sstore\n      pop\n        /* \"safe.sol\":2008:2714  function submitTransaction(... */\n      pop\n      pop\n      pop\n      pop\n      jump\t// out\n        /* \"safe.sol\":3272:3996  function executeTransaction(uint256 transactionId) public onlyOwner {... */\n    tag_79:\n        /* \"safe.sol\":1922:1929  isOwner */\n      0x01\n        /* \"safe.sol\":1922:1941  isOwner[msg.sender] */\n      0x00\n        /* \"safe.sol\":1930:1940  msg.sender */\n      caller\n        /* \"safe.sol\":1922:1941  isOwner[msg.sender] */\n      0xffffffffffffffffffffffffffffffffffffffff\n      and\n      0xffffffffffffffffffffffffffffffffffffffff\n      and\n      dup2\n      mstore\n      0x20\n      add\n      swap1\n      dup2\n      mstore\n      0x20\n      add\n      0x00\n      keccak256\n      0x00\n      swap1\n      sload\n      swap1\n      0x0100\n      exp\n      swap1\n      div\n      0xff\n      and\n        /* \"safe.sol\":1914:1980  require(isOwner[msg.sender], \"Only owners can call this function\") */\n      tag_137\n      jumpi\n      mload(0x40)\n      0x08c379a000000000000000000000000000000000000000000000000000000000\n      dup2\n      mstore\n      0x04\n      add\n      tag_138\n      swap1\n      tag_85\n      jump\t// in\n    tag_138:\n      mload(0x40)\n      dup1\n      swap2\n      sub\n      swap1\n      revert\n    tag_137:\n        /* \"safe.sol\":3351:3382  Transaction storage transaction */\n      0x00\n        /* \"safe.sol\":3385:3397  transactions */\n      0x03\n        /* \"safe.sol\":3385:3412  transactions[transactionId] */\n      0x00\n        /* \"safe.sol\":3398:3411  transactionId */\n      dup4\n        /* \"safe.sol\":3385:3412  transactions[transactionId] */\n      dup2\n      mstore\n      0x20\n      add\n      swap1\n      dup2\n      mstore\n      0x20\n      add\n      0x00\n      keccak256\n        /* \"safe.sol\":3351:3412  Transaction storage transaction = transactions[transactionId] */\n      swap1\n      pop\n        /* \"safe.sol\":3466:3467  0 */\n      0x00\n        /* \"safe.sol\":3431:3468  transaction.destination != address(0) */\n      0xffffffffffffffffffffffffffffffffffffffff\n      and\n        /* \"safe.sol\":3431:3442  transaction */\n      dup2\n        /* \"safe.sol\":3431:3454  transaction.destination */\n      0x00\n      add\n      0x00\n      swap1\n      sload\n      swap1\n      0x0100\n      exp\n      swap1\n      div\n      0xffffffffffffffffffffffffffffffffffffffff\n      and\n        /* \"safe.sol\":3431:3468  transaction.destination != address(0) */\n      0xffffffffffffffffffffffffffffffffffffffff\n      and\n      sub\n        /* \"safe.sol\":3423:3499  require(transaction.destination != address(0), \"Transaction does not exist\") */\n      tag_140\n      jumpi\n      mload(0x40)\n      0x08c379a000000000000000000000000000000000000000000000000000000000\n      dup2\n      mstore\n      0x04\n      add\n      tag_141\n      swap1\n      tag_120\n      jump\t// in\n    tag_141:\n      mload(0x40)\n      dup1\n      swap2\n      sub\n      swap1\n      revert\n    tag_140:\n        /* \"safe.sol\":3519:3530  transaction */\n      dup1\n        /* \"safe.sol\":3519:3539  transaction.executed */\n      0x03\n      add\n      0x00\n      swap1\n      sload\n      swap1\n      0x0100\n      exp\n      swap1\n      div\n      0xff\n      and\n        /* \"safe.sol\":3518:3539  !transaction.executed */\n      iszero\n        /* \"safe.sol\":3510:3572  require(!transaction.executed, \"Transaction already executed\") */\n      tag_142\n      jumpi\n      mload(0x40)\n      0x08c379a000000000000000000000000000000000000000000000000000000000\n      dup2\n      mstore\n      0x04\n      add\n      tag_143\n      swap1\n      tag_144\n      jump\t// in\n    tag_143:\n      mload(0x40)\n      dup1\n      swap2\n      sub\n      swap1\n      revert\n    tag_142:\n        /* \"safe.sol\":3638:3647  threshold */\n      sload(0x02)\n        /* \"safe.sol\":3605:3616  transaction */\n      dup2\n        /* \"safe.sol\":3605:3634  transaction.noOfConfirmations */\n      0x04\n      add\n      sload\n        /* \"safe.sol\":3605:3647  transaction.noOfConfirmations >= threshold */\n      lt\n      iszero\n        /* \"safe.sol\":3583:3699  require(... */\n      tag_145\n      jumpi\n      mload(0x40)\n      0x08c379a000000000000000000000000000000000000000000000000000000000\n      dup2\n      mstore\n      0x04\n      add\n      tag_146\n      swap1\n      tag_147\n      jump\t// in\n    tag_146:\n      mload(0x40)\n      dup1\n      swap2\n      sub\n      swap1\n      revert\n    tag_145:\n        /* \"safe.sol\":3713:3725  bool success */\n      0x00\n        /* \"safe.sol\":3731:3742  transaction */\n      dup2\n        /* \"safe.sol\":3731:3754  transaction.destination */\n      0x00\n      add\n      0x00\n      swap1\n      sload\n      swap1\n      0x0100\n      exp\n      swap1\n      div\n      0xffffffffffffffffffffffffffffffffffffffff\n      and\n        /* \"safe.sol\":3731:3759  transaction.destination.call */\n      0xffffffffffffffffffffffffffffffffffffffff\n      and\n        /* \"safe.sol\":3767:3778  transaction */\n      dup3\n        /* \"safe.sol\":3767:3784  transaction.value */\n      0x01\n      add\n      sload\n        /* \"safe.sol\":3800:3811  transaction */\n      dup4\n        /* \"safe.sol\":3800:3816  transaction.data */\n      0x02\n      add\n        /* \"safe.sol\":3731:3827  transaction.destination.call{value: transaction.value}(... */\n      mload(0x40)\n      tag_148\n      swap2\n      swap1\n      tag_149\n      jump\t// in\n    tag_148:\n      0x00\n      mload(0x40)\n      dup1\n      dup4\n      sub\n      dup2\n      dup6\n      dup8\n      gas\n      call\n      swap3\n      pop\n      pop\n      pop\n      returndatasize\n      dup1\n      0x00\n      dup2\n      eq\n      tag_152\n      jumpi\n      mload(0x40)\n      swap2\n      pop\n      and(add(returndatasize, 0x3f), not(0x1f))\n      dup3\n      add\n      0x40\n      mstore\n      returndatasize\n      dup3\n      mstore\n      returndatasize\n      0x00\n      0x20\n      dup5\n      add\n      returndatacopy\n      jump(tag_151)\n    tag_152:\n      0x60\n      swap2\n      pop\n    tag_151:\n      pop\n        /* \"safe.sol\":3712:3827  (bool success, ) = transaction.destination.call{value: transaction.value}(... */\n      pop\n      swap1\n      pop\n        /* \"safe.sol\":3846:3853  success */\n      dup1\n        /* \"safe.sol\":3838:3886  require(success, \"Transaction execution failed\") */\n      tag_153\n      jumpi\n      mload(0x40)\n      0x08c379a000000000000000000000000000000000000000000000000000000000\n      dup2\n      mstore\n      0x04\n      add\n      tag_154\n      swap1\n      tag_155\n      jump\t// in\n    tag_154:\n      mload(0x40)\n      dup1\n      swap2\n      sub\n      swap1\n      revert\n    tag_153:\n        /* \"safe.sol\":3922:3926  true */\n      0x01\n        /* \"safe.sol\":3899:3910  transaction */\n      dup3\n        /* \"safe.sol\":3899:3919  transaction.executed */\n      0x03\n      add\n      0x00\n        /* \"safe.sol\":3899:3926  transaction.executed = true */\n      0x0100\n      exp\n      dup2\n      sload\n      dup2\n      0xff\n      mul\n      not\n      and\n      swap1\n      dup4\n      iszero\n      iszero\n      mul\n      or\n      swap1\n      sstore\n      pop\n        /* \"safe.sol\":3977:3987  msg.sender */\n      caller\n        /* \"safe.sol\":3942:3988  TransactionExecuted(transactionId, msg.sender) */\n      0xffffffffffffffffffffffffffffffffffffffff\n      and\n        /* \"safe.sol\":3962:3975  transactionId */\n      dup4\n        /* \"safe.sol\":3942:3988  TransactionExecuted(transactionId, msg.sender) */\n      0xefc13bdcf58f184ea7cae26b499fb33b539e01d0197cea456f3ada289b8cf19b\n      mload(0x40)\n      mload(0x40)\n      dup1\n      swap2\n      sub\n      swap1\n      log3\n        /* \"safe.sol\":3340:3996  {... */\n      pop\n      pop\n        /* \"safe.sol\":3272:3996  function executeTransaction(uint256 transactionId) public onlyOwner {... */\n      pop\n      jump\t// out\n        /* \"#utility.yul\":88:205   */\n    tag_157:\n        /* \"#utility.yul\":197:198   */\n      0x00\n        /* \"#utility.yul\":194:195   */\n      dup1\n        /* \"#utility.yul\":187:199   */\n      revert\n        /* \"#utility.yul\":211:328   */\n    tag_158:\n        /* \"#utility.yul\":320:321   */\n      0x00\n        /* \"#utility.yul\":317:318   */\n      dup1\n        /* \"#utility.yul\":310:322   */\n      revert\n        /* \"#utility.yul\":334:411   */\n    tag_159:\n        /* \"#utility.yul\":371:378   */\n      0x00\n        /* \"#utility.yul\":400:405   */\n      dup2\n        /* \"#utility.yul\":389:405   */\n      swap1\n      pop\n        /* \"#utility.yul\":334:411   */\n      swap2\n      swap1\n      pop\n      jump\t// out\n        /* \"#utility.yul\":417:539   */\n    tag_160:\n        /* \"#utility.yul\":490:514   */\n      tag_227\n        /* \"#utility.yul\":508:513   */\n      dup2\n        /* \"#utility.yul\":490:514   */\n      tag_159\n      jump\t// in\n    tag_227:\n        /* \"#utility.yul\":483:488   */\n      dup2\n        /* \"#utility.yul\":480:515   */\n      eq\n        /* \"#utility.yul\":470:533   */\n      tag_228\n      jumpi\n        /* \"#utility.yul\":529:530   */\n      0x00\n        /* \"#utility.yul\":526:527   */\n      dup1\n        /* \"#utility.yul\":519:531   */\n      revert\n        /* \"#utility.yul\":470:533   */\n    tag_228:\n        /* \"#utility.yul\":417:539   */\n      pop\n      jump\t// out\n        /* \"#utility.yul\":545:684   */\n    tag_161:\n        /* \"#utility.yul\":591:596   */\n      0x00\n        /* \"#utility.yul\":629:635   */\n      dup2\n        /* \"#utility.yul\":616:636   */\n      calldataload\n        /* \"#utility.yul\":607:636   */\n      swap1\n      pop\n        /* \"#utility.yul\":645:678   */\n      tag_230\n        /* \"#utility.yul\":672:677   */\n      dup2\n        /* \"#utility.yul\":645:678   */\n      tag_160\n      jump\t// in\n    tag_230:\n        /* \"#utility.yul\":545:684   */\n      swap3\n      swap2\n      pop\n      pop\n      jump\t// out\n        /* \"#utility.yul\":690:1019   */\n    tag_23:\n        /* \"#utility.yul\":749:755   */\n      0x00\n        /* \"#utility.yul\":798:800   */\n      0x20\n        /* \"#utility.yul\":786:795   */\n      dup3\n        /* \"#utility.yul\":777:784   */\n      dup5\n        /* \"#utility.yul\":773:796   */\n      sub\n        /* \"#utility.yul\":769:801   */\n      slt\n        /* \"#utility.yul\":766:885   */\n      iszero\n      tag_232\n      jumpi\n        /* \"#utility.yul\":804:883   */\n      tag_233\n      tag_157\n      jump\t// in\n    tag_233:\n        /* \"#utility.yul\":766:885   */\n    tag_232:\n        /* \"#utility.yul\":924:925   */\n      0x00\n        /* \"#utility.yul\":949:1002   */\n      tag_234\n        /* \"#utility.yul\":994:1001   */\n      dup5\n        /* \"#utility.yul\":985:991   */\n      dup3\n        /* \"#utility.yul\":974:983   */\n      dup6\n        /* \"#utility.yul\":970:992   */\n      add\n        /* \"#utility.yul\":949:1002   */\n      tag_161\n      jump\t// in\n    tag_234:\n        /* \"#utility.yul\":939:1002   */\n      swap2\n      pop\n        /* \"#utility.yul\":895:1012   */\n      pop\n        /* \"#utility.yul\":690:1019   */\n      swap3\n      swap2\n      pop\n      pop\n      jump\t// out\n        /* \"#utility.yul\":1025:1151   */\n    tag_162:\n        /* \"#utility.yul\":1062:1069   */\n      0x00\n        /* \"#utility.yul\":1102:1144   */\n      0xffffffffffffffffffffffffffffffffffffffff\n        /* \"#utility.yul\":1095:1100   */\n      dup3\n        /* \"#utility.yul\":1091:1145   */\n      and\n        /* \"#utility.yul\":1080:1145   */\n      swap1\n      pop\n        /* \"#utility.yul\":1025:1151   */\n      swap2\n      swap1\n      pop\n      jump\t// out\n        /* \"#utility.yul\":1157:1253   */\n    tag_163:\n        /* \"#utility.yul\":1194:1201   */\n      0x00\n        /* \"#utility.yul\":1223:1247   */\n      tag_237\n        /* \"#utility.yul\":1241:1246   */\n      dup3\n        /* \"#utility.yul\":1223:1247   */\n      tag_162\n      jump\t// in\n    tag_237:\n        /* \"#utility.yul\":1212:1247   */\n      swap1\n      pop\n        /* \"#utility.yul\":1157:1253   */\n      swap2\n      swap1\n      pop\n      jump\t// out\n        /* \"#utility.yul\":1259:1377   */\n    tag_164:\n        /* \"#utility.yul\":1346:1370   */\n      tag_239\n        /* \"#utility.yul\":1364:1369   */\n      dup2\n        /* \"#utility.yul\":1346:1370   */\n      tag_163\n      jump\t// in\n    tag_239:\n        /* \"#utility.yul\":1341:1344   */\n      dup3\n        /* \"#utility.yul\":1334:1371   */\n      mstore\n        /* \"#utility.yul\":1259:1377   */\n      pop\n      pop\n      jump\t// out\n        /* \"#utility.yul\":1383:1605   */\n    tag_26:\n        /* \"#utility.yul\":1476:1480   */\n      0x00\n        /* \"#utility.yul\":1514:1516   */\n      0x20\n        /* \"#utility.yul\":1503:1512   */\n      dup3\n        /* \"#utility.yul\":1499:1517   */\n      add\n        /* \"#utility.yul\":1491:1517   */\n      swap1\n      pop\n        /* \"#utility.yul\":1527:1598   */\n      tag_241\n        /* \"#utility.yul\":1595:1596   */\n      0x00\n        /* \"#utility.yul\":1584:1593   */\n      dup4\n        /* \"#utility.yul\":1580:1597   */\n      add\n        /* \"#utility.yul\":1571:1577   */\n      dup5\n        /* \"#utility.yul\":1527:1598   */\n      tag_164\n      jump\t// in\n    tag_241:\n        /* \"#utility.yul\":1383:1605   */\n      swap3\n      swap2\n      pop\n      pop\n      jump\t// out\n        /* \"#utility.yul\":1611:1733   */\n    tag_165:\n        /* \"#utility.yul\":1684:1708   */\n      tag_243\n        /* \"#utility.yul\":1702:1707   */\n      dup2\n        /* \"#utility.yul\":1684:1708   */\n      tag_163\n      jump\t// in\n    tag_243:\n        /* \"#utility.yul\":1677:1682   */\n      dup2\n        /* \"#utility.yul\":1674:1709   */\n      eq\n        /* \"#utility.yul\":1664:1727   */\n      tag_244\n      jumpi\n        /* \"#utility.yul\":1723:1724   */\n      0x00\n        /* \"#utility.yul\":1720:1721   */\n      dup1\n        /* \"#utility.yul\":1713:1725   */\n      revert\n        /* \"#utility.yul\":1664:1727   */\n    tag_244:\n        /* \"#utility.yul\":1611:1733   */\n      pop\n      jump\t// out\n        /* \"#utility.yul\":1739:1878   */\n    tag_166:\n        /* \"#utility.yul\":1785:1790   */\n      0x00\n        /* \"#utility.yul\":1823:1829   */\n      dup2\n        /* \"#utility.yul\":1810:1830   */\n      calldataload\n        /* \"#utility.yul\":1801:1830   */\n      swap1\n      pop\n        /* \"#utility.yul\":1839:1872   */\n      tag_246\n        /* \"#utility.yul\":1866:1871   */\n      dup2\n        /* \"#utility.yul\":1839:1872   */\n      tag_165\n      jump\t// in\n    tag_246:\n        /* \"#utility.yul\":1739:1878   */\n      swap3\n      swap2\n      pop\n      pop\n      jump\t// out\n        /* \"#utility.yul\":1884:2213   */\n    tag_29:\n        /* \"#utility.yul\":1943:1949   */\n      0x00\n        /* \"#utility.yul\":1992:1994   */\n      0x20\n        /* \"#utility.yul\":1980:1989   */\n      dup3\n        /* \"#utility.yul\":1971:1978   */\n      dup5\n        /* \"#utility.yul\":1967:1990   */\n      sub\n        /* \"#utility.yul\":1963:1995   */\n      slt\n        /* \"#utility.yul\":1960:2079   */\n      iszero\n      tag_248\n      jumpi\n        /* \"#utility.yul\":1998:2077   */\n      tag_249\n      tag_157\n      jump\t// in\n    tag_249:\n        /* \"#utility.yul\":1960:2079   */\n    tag_248:\n        /* \"#utility.yul\":2118:2119   */\n      0x00\n        /* \"#utility.yul\":2143:2196   */\n      tag_250\n        /* \"#utility.yul\":2188:2195   */\n      dup5\n        /* \"#utility.yul\":2179:2185   */\n      dup3\n        /* \"#utility.yul\":2168:2177   */\n      dup6\n        /* \"#utility.yul\":2164:2186   */\n      add\n        /* \"#utility.yul\":2143:2196   */\n      tag_166\n      jump\t// in\n    tag_250:\n        /* \"#utility.yul\":2133:2196   */\n      swap2\n      pop\n        /* \"#utility.yul\":2089:2206   */\n      pop\n        /* \"#utility.yul\":1884:2213   */\n      swap3\n      swap2\n      pop\n      pop\n      jump\t// out\n        /* \"#utility.yul\":2219:2337   */\n    tag_167:\n        /* \"#utility.yul\":2306:2330   */\n      tag_252\n        /* \"#utility.yul\":2324:2329   */\n      dup2\n        /* \"#utility.yul\":2306:2330   */\n      tag_159\n      jump\t// in\n    tag_252:\n        /* \"#utility.yul\":2301:2304   */\n      dup3\n        /* \"#utility.yul\":2294:2331   */\n      mstore\n        /* \"#utility.yul\":2219:2337   */\n      pop\n      pop\n      jump\t// out\n        /* \"#utility.yul\":2343:2565   */\n    tag_34:\n        /* \"#utility.yul\":2436:2440   */\n      0x00\n        /* \"#utility.yul\":2474:2476   */\n      0x20\n        /* \"#utility.yul\":2463:2472   */\n      dup3\n        /* \"#utility.yul\":2459:2477   */\n      add\n        /* \"#utility.yul\":2451:2477   */\n      swap1\n      pop\n        /* \"#utility.yul\":2487:2558   */\n      tag_254\n        /* \"#utility.yul\":2555:2556   */\n      0x00\n        /* \"#utility.yul\":2544:2553   */\n      dup4\n        /* \"#utility.yul\":2540:2557   */\n      add\n        /* \"#utility.yul\":2531:2537   */\n      dup5\n        /* \"#utility.yul\":2487:2558   */\n      tag_167\n      jump\t// in\n    tag_254:\n        /* \"#utility.yul\":2343:2565   */\n      swap3\n      swap2\n      pop\n      pop\n      jump\t// out\n        /* \"#utility.yul\":2571:2661   */\n    tag_168:\n        /* \"#utility.yul\":2605:2612   */\n      0x00\n        /* \"#utility.yul\":2648:2653   */\n      dup2\n        /* \"#utility.yul\":2641:2654   */\n      iszero\n        /* \"#utility.yul\":2634:2655   */\n      iszero\n        /* \"#utility.yul\":2623:2655   */\n      swap1\n      pop\n        /* \"#utility.yul\":2571:2661   */\n      swap2\n      swap1\n      pop\n      jump\t// out\n        /* \"#utility.yul\":2667:2776   */\n    tag_169:\n        /* \"#utility.yul\":2748:2769   */\n      tag_257\n        /* \"#utility.yul\":2763:2768   */\n      dup2\n        /* \"#utility.yul\":2748:2769   */\n      tag_168\n      jump\t// in\n    tag_257:\n        /* \"#utility.yul\":2743:2746   */\n      dup3\n        /* \"#utility.yul\":2736:2770   */\n      mstore\n        /* \"#utility.yul\":2667:2776   */\n      pop\n      pop\n      jump\t// out\n        /* \"#utility.yul\":2782:2992   */\n    tag_39:\n        /* \"#utility.yul\":2869:2873   */\n      0x00\n        /* \"#utility.yul\":2907:2909   */\n      0x20\n        /* \"#utility.yul\":2896:2905   */\n      dup3\n        /* \"#utility.yul\":2892:2910   */\n      add\n        /* \"#utility.yul\":2884:2910   */\n      swap1\n      pop\n        /* \"#utility.yul\":2920:2985   */\n      tag_259\n        /* \"#utility.yul\":2982:2983   */\n      0x00\n        /* \"#utility.yul\":2971:2980   */\n      dup4\n        /* \"#utility.yul\":2967:2984   */\n      add\n        /* \"#utility.yul\":2958:2964   */\n      dup5\n        /* \"#utility.yul\":2920:2985   */\n      tag_169\n      jump\t// in\n    tag_259:\n        /* \"#utility.yul\":2782:2992   */\n      swap3\n      swap2\n      pop\n      pop\n      jump\t// out\n        /* \"#utility.yul\":2998:3096   */\n    tag_170:\n        /* \"#utility.yul\":3049:3055   */\n      0x00\n        /* \"#utility.yul\":3083:3088   */\n      dup2\n        /* \"#utility.yul\":3077:3089   */\n      mload\n        /* \"#utility.yul\":3067:3089   */\n      swap1\n      pop\n        /* \"#utility.yul\":2998:3096   */\n      swap2\n      swap1\n      pop\n      jump\t// out\n        /* \"#utility.yul\":3102:3270   */\n    tag_171:\n        /* \"#utility.yul\":3185:3196   */\n      0x00\n        /* \"#utility.yul\":3219:3225   */\n      dup3\n        /* \"#utility.yul\":3214:3217   */\n      dup3\n        /* \"#utility.yul\":3207:3226   */\n      mstore\n        /* \"#utility.yul\":3259:3263   */\n      0x20\n        /* \"#utility.yul\":3254:3257   */\n      dup3\n        /* \"#utility.yul\":3250:3264   */\n      add\n        /* \"#utility.yul\":3235:3264   */\n      swap1\n      pop\n        /* \"#utility.yul\":3102:3270   */\n      swap3\n      swap2\n      pop\n      pop\n      jump\t// out\n        /* \"#utility.yul\":3276:3415   */\n    tag_172:\n        /* \"#utility.yul\":3365:3371   */\n      dup3\n        /* \"#utility.yul\":3360:3363   */\n      dup2\n        /* \"#utility.yul\":3355:3358   */\n      dup4\n        /* \"#utility.yul\":3349:3372   */\n      mcopy\n        /* \"#utility.yul\":3406:3407   */\n      0x00\n        /* \"#utility.yul\":3397:3403   */\n      dup4\n        /* \"#utility.yul\":3392:3395   */\n      dup4\n        /* \"#utility.yul\":3388:3404   */\n      add\n        /* \"#utility.yul\":3381:3408   */\n      mstore\n        /* \"#utility.yul\":3276:3415   */\n      pop\n      pop\n      pop\n      jump\t// out\n        /* \"#utility.yul\":3421:3523   */\n    tag_173:\n        /* \"#utility.yul\":3462:3468   */\n      0x00\n        /* \"#utility.yul\":3513:3515   */\n      0x1f\n        /* \"#utility.yul\":3509:3516   */\n      not\n        /* \"#utility.yul\":3504:3506   */\n      0x1f\n        /* \"#utility.yul\":3497:3502   */\n      dup4\n        /* \"#utility.yul\":3493:3507   */\n      add\n        /* \"#utility.yul\":3489:3517   */\n      and\n        /* \"#utility.yul\":3479:3517   */\n      swap1\n      pop\n        /* \"#utility.yul\":3421:3523   */\n      swap2\n      swap1\n      pop\n      jump\t// out\n        /* \"#utility.yul\":3529:3902   */\n    tag_174:\n        /* \"#utility.yul\":3615:3618   */\n      0x00\n        /* \"#utility.yul\":3643:3681   */\n      tag_265\n        /* \"#utility.yul\":3675:3680   */\n      dup3\n        /* \"#utility.yul\":3643:3681   */\n      tag_170\n      jump\t// in\n    tag_265:\n        /* \"#utility.yul\":3697:3767   */\n      tag_266\n        /* \"#utility.yul\":3760:3766   */\n      dup2\n        /* \"#utility.yul\":3755:3758   */\n      dup6\n        /* \"#utility.yul\":3697:3767   */\n      tag_171\n      jump\t// in\n    tag_266:\n        /* \"#utility.yul\":3690:3767   */\n      swap4\n      pop\n        /* \"#utility.yul\":3776:3841   */\n      tag_267\n        /* \"#utility.yul\":3834:3840   */\n      dup2\n        /* \"#utility.yul\":3829:3832   */\n      dup6\n        /* \"#utility.yul\":3822:3826   */\n      0x20\n        /* \"#utility.yul\":3815:3820   */\n      dup7\n        /* \"#utility.yul\":3811:3827   */\n      add\n        /* \"#utility.yul\":3776:3841   */\n      tag_172\n      jump\t// in\n    tag_267:\n        /* \"#utility.yul\":3866:3895   */\n      tag_268\n        /* \"#utility.yul\":3888:3894   */\n      dup2\n        /* \"#utility.yul\":3866:3895   */\n      tag_173\n      jump\t// in\n    tag_268:\n        /* \"#utility.yul\":3861:3864   */\n      dup5\n        /* \"#utility.yul\":3857:3896   */\n      add\n        /* \"#utility.yul\":3850:3896   */\n      swap2\n      pop\n        /* \"#utility.yul\":3619:3902   */\n      pop\n        /* \"#utility.yul\":3529:3902   */\n      swap3\n      swap2\n      pop\n      pop\n      jump\t// out\n        /* \"#utility.yul\":3908:4647   */\n    tag_44:\n        /* \"#utility.yul\":4125:4129   */\n      0x00\n        /* \"#utility.yul\":4163:4166   */\n      0xa0\n        /* \"#utility.yul\":4152:4161   */\n      dup3\n        /* \"#utility.yul\":4148:4167   */\n      add\n        /* \"#utility.yul\":4140:4167   */\n      swap1\n      pop\n        /* \"#utility.yul\":4177:4248   */\n      tag_270\n        /* \"#utility.yul\":4245:4246   */\n      0x00\n        /* \"#utility.yul\":4234:4243   */\n      dup4\n        /* \"#utility.yul\":4230:4247   */\n      add\n        /* \"#utility.yul\":4221:4227   */\n      dup9\n        /* \"#utility.yul\":4177:4248   */\n      tag_164\n      jump\t// in\n    tag_270:\n        /* \"#utility.yul\":4258:4330   */\n      tag_271\n        /* \"#utility.yul\":4326:4328   */\n      0x20\n        /* \"#utility.yul\":4315:4324   */\n      dup4\n        /* \"#utility.yul\":4311:4329   */\n      add\n        /* \"#utility.yul\":4302:4308   */\n      dup8\n        /* \"#utility.yul\":4258:4330   */\n      tag_167\n      jump\t// in\n    tag_271:\n        /* \"#utility.yul\":4377:4386   */\n      dup2\n        /* \"#utility.yul\":4371:4375   */\n      dup2\n        /* \"#utility.yul\":4367:4387   */\n      sub\n        /* \"#utility.yul\":4362:4364   */\n      0x40\n        /* \"#utility.yul\":4351:4360   */\n      dup4\n        /* \"#utility.yul\":4347:4365   */\n      add\n        /* \"#utility.yul\":4340:4388   */\n      mstore\n        /* \"#utility.yul\":4405:4481   */\n      tag_272\n        /* \"#utility.yul\":4476:4480   */\n      dup2\n        /* \"#utility.yul\":4467:4473   */\n      dup7\n        /* \"#utility.yul\":4405:4481   */\n      tag_174\n      jump\t// in\n    tag_272:\n        /* \"#utility.yul\":4397:4481   */\n      swap1\n      pop\n        /* \"#utility.yul\":4491:4557   */\n      tag_273\n        /* \"#utility.yul\":4553:4555   */\n      0x60\n        /* \"#utility.yul\":4542:4551   */\n      dup4\n        /* \"#utility.yul\":4538:4556   */\n      add\n        /* \"#utility.yul\":4529:4535   */\n      dup6\n        /* \"#utility.yul\":4491:4557   */\n      tag_169\n      jump\t// in\n    tag_273:\n        /* \"#utility.yul\":4567:4640   */\n      tag_274\n        /* \"#utility.yul\":4635:4638   */\n      0x80\n        /* \"#utility.yul\":4624:4633   */\n      dup4\n        /* \"#utility.yul\":4620:4639   */\n      add\n        /* \"#utility.yul\":4611:4617   */\n      dup5\n        /* \"#utility.yul\":4567:4640   */\n      tag_167\n      jump\t// in\n    tag_274:\n        /* \"#utility.yul\":3908:4647   */\n      swap7\n      swap6\n      pop\n      pop\n      pop\n      pop\n      pop\n      pop\n      jump\t// out\n        /* \"#utility.yul\":4653:5127   */\n    tag_47:\n        /* \"#utility.yul\":4721:4727   */\n      0x00\n        /* \"#utility.yul\":4729:4735   */\n      dup1\n        /* \"#utility.yul\":4778:4780   */\n      0x40\n        /* \"#utility.yul\":4766:4775   */\n      dup4\n        /* \"#utility.yul\":4757:4764   */\n      dup6\n        /* \"#utility.yul\":4753:4776   */\n      sub\n        /* \"#utility.yul\":4749:4781   */\n      slt\n        /* \"#utility.yul\":4746:4865   */\n      iszero\n      tag_276\n      jumpi\n        /* \"#utility.yul\":4784:4863   */\n      tag_277\n      tag_157\n      jump\t// in\n    tag_277:\n        /* \"#utility.yul\":4746:4865   */\n    tag_276:\n        /* \"#utility.yul\":4904:4905   */\n      0x00\n        /* \"#utility.yul\":4929:4982   */\n      tag_278\n        /* \"#utility.yul\":4974:4981   */\n      dup6\n        /* \"#utility.yul\":4965:4971   */\n      dup3\n        /* \"#utility.yul\":4954:4963   */\n      dup7\n        /* \"#utility.yul\":4950:4972   */\n      add\n        /* \"#utility.yul\":4929:4982   */\n      tag_161\n      jump\t// in\n    tag_278:\n        /* \"#utility.yul\":4919:4982   */\n      swap3\n      pop\n        /* \"#utility.yul\":4875:4992   */\n      pop\n        /* \"#utility.yul\":5031:5033   */\n      0x20\n        /* \"#utility.yul\":5057:5110   */\n      tag_279\n        /* \"#utility.yul\":5102:5109   */\n      dup6\n        /* \"#utility.yul\":5093:5099   */\n      dup3\n        /* \"#utility.yul\":5082:5091   */\n      dup7\n        /* \"#utility.yul\":5078:5100   */\n      add\n        /* \"#utility.yul\":5057:5110   */\n      tag_166\n      jump\t// in\n    tag_279:\n        /* \"#utility.yul\":5047:5110   */\n      swap2\n      pop\n        /* \"#utility.yul\":5002:5120   */\n      pop\n        /* \"#utility.yul\":4653:5127   */\n      swap3\n      pop\n      swap3\n      swap1\n      pop\n      jump\t// out\n        /* \"#utility.yul\":5133:5247   */\n    tag_175:\n        /* \"#utility.yul\":5200:5206   */\n      0x00\n        /* \"#utility.yul\":5234:5239   */\n      dup2\n        /* \"#utility.yul\":5228:5240   */\n      mload\n        /* \"#utility.yul\":5218:5240   */\n      swap1\n      pop\n        /* \"#utility.yul\":5133:5247   */\n      swap2\n      swap1\n      pop\n      jump\t// out\n        /* \"#utility.yul\":5253:5437   */\n    tag_176:\n        /* \"#utility.yul\":5352:5363   */\n      0x00\n        /* \"#utility.yul\":5386:5392   */\n      dup3\n        /* \"#utility.yul\":5381:5384   */\n      dup3\n        /* \"#utility.yul\":5374:5393   */\n      mstore\n        /* \"#utility.yul\":5426:5430   */\n      0x20\n        /* \"#utility.yul\":5421:5424   */\n      dup3\n        /* \"#utility.yul\":5417:5431   */\n      add\n        /* \"#utility.yul\":5402:5431   */\n      swap1\n      pop\n        /* \"#utility.yul\":5253:5437   */\n      swap3\n      swap2\n      pop\n      pop\n      jump\t// out\n        /* \"#utility.yul\":5443:5575   */\n    tag_177:\n        /* \"#utility.yul\":5510:5514   */\n      0x00\n        /* \"#utility.yul\":5533:5536   */\n      dup2\n        /* \"#utility.yul\":5525:5536   */\n      swap1\n      pop\n        /* \"#utility.yul\":5563:5567   */\n      0x20\n        /* \"#utility.yul\":5558:5561   */\n      dup3\n        /* \"#utility.yul\":5554:5568   */\n      add\n        /* \"#utility.yul\":5546:5568   */\n      swap1\n      pop\n        /* \"#utility.yul\":5443:5575   */\n      swap2\n      swap1\n      pop\n      jump\t// out\n        /* \"#utility.yul\":5581:5689   */\n    tag_178:\n        /* \"#utility.yul\":5658:5682   */\n      tag_284\n        /* \"#utility.yul\":5676:5681   */\n      dup2\n        /* \"#utility.yul\":5658:5682   */\n      tag_163\n      jump\t// in\n    tag_284:\n        /* \"#utility.yul\":5653:5656   */\n      dup3\n        /* \"#utility.yul\":5646:5683   */\n      mstore\n        /* \"#utility.yul\":5581:5689   */\n      pop\n      pop\n      jump\t// out\n        /* \"#utility.yul\":5695:5874   */\n    tag_179:\n        /* \"#utility.yul\":5764:5774   */\n      0x00\n        /* \"#utility.yul\":5785:5831   */\n      tag_286\n        /* \"#utility.yul\":5827:5830   */\n      dup4\n        /* \"#utility.yul\":5819:5825   */\n      dup4\n        /* \"#utility.yul\":5785:5831   */\n      tag_178\n      jump\t// in\n    tag_286:\n        /* \"#utility.yul\":5863:5867   */\n      0x20\n        /* \"#utility.yul\":5858:5861   */\n      dup4\n        /* \"#utility.yul\":5854:5868   */\n      add\n        /* \"#utility.yul\":5840:5868   */\n      swap1\n      pop\n        /* \"#utility.yul\":5695:5874   */\n      swap3\n      swap2\n      pop\n      pop\n      jump\t// out\n        /* \"#utility.yul\":5880:5993   */\n    tag_180:\n        /* \"#utility.yul\":5950:5954   */\n      0x00\n        /* \"#utility.yul\":5982:5986   */\n      0x20\n        /* \"#utility.yul\":5977:5980   */\n      dup3\n        /* \"#utility.yul\":5973:5987   */\n      add\n        /* \"#utility.yul\":5965:5987   */\n      swap1\n      pop\n        /* \"#utility.yul\":5880:5993   */\n      swap2\n      swap1\n      pop\n      jump\t// out\n        /* \"#utility.yul\":6029:6761   */\n    tag_181:\n        /* \"#utility.yul\":6148:6151   */\n      0x00\n        /* \"#utility.yul\":6177:6231   */\n      tag_289\n        /* \"#utility.yul\":6225:6230   */\n      dup3\n        /* \"#utility.yul\":6177:6231   */\n      tag_175\n      jump\t// in\n    tag_289:\n        /* \"#utility.yul\":6247:6333   */\n      tag_290\n        /* \"#utility.yul\":6326:6332   */\n      dup2\n        /* \"#utility.yul\":6321:6324   */\n      dup6\n        /* \"#utility.yul\":6247:6333   */\n      tag_176\n      jump\t// in\n    tag_290:\n        /* \"#utility.yul\":6240:6333   */\n      swap4\n      pop\n        /* \"#utility.yul\":6357:6413   */\n      tag_291\n        /* \"#utility.yul\":6407:6412   */\n      dup4\n        /* \"#utility.yul\":6357:6413   */\n      tag_177\n      jump\t// in\n    tag_291:\n        /* \"#utility.yul\":6436:6443   */\n      dup1\n        /* \"#utility.yul\":6467:6468   */\n      0x00\n        /* \"#utility.yul\":6452:6736   */\n    tag_292:\n        /* \"#utility.yul\":6477:6483   */\n      dup4\n        /* \"#utility.yul\":6474:6475   */\n      dup2\n        /* \"#utility.yul\":6471:6484   */\n      lt\n        /* \"#utility.yul\":6452:6736   */\n      iszero\n      tag_294\n      jumpi\n        /* \"#utility.yul\":6553:6559   */\n      dup2\n        /* \"#utility.yul\":6547:6560   */\n      mload\n        /* \"#utility.yul\":6580:6643   */\n      tag_295\n        /* \"#utility.yul\":6639:6642   */\n      dup9\n        /* \"#utility.yul\":6624:6637   */\n      dup3\n        /* \"#utility.yul\":6580:6643   */\n      tag_179\n      jump\t// in\n    tag_295:\n        /* \"#utility.yul\":6573:6643   */\n      swap8\n      pop\n        /* \"#utility.yul\":6666:6726   */\n      tag_296\n        /* \"#utility.yul\":6719:6725   */\n      dup4\n        /* \"#utility.yul\":6666:6726   */\n      tag_180\n      jump\t// in\n    tag_296:\n        /* \"#utility.yul\":6656:6726   */\n      swap3\n      pop\n        /* \"#utility.yul\":6512:6736   */\n      pop\n        /* \"#utility.yul\":6499:6500   */\n      0x01\n        /* \"#utility.yul\":6496:6497   */\n      dup2\n        /* \"#utility.yul\":6492:6501   */\n      add\n        /* \"#utility.yul\":6487:6501   */\n      swap1\n      pop\n        /* \"#utility.yul\":6452:6736   */\n      jump(tag_292)\n    tag_294:\n        /* \"#utility.yul\":6456:6470   */\n      pop\n        /* \"#utility.yul\":6752:6755   */\n      dup6\n        /* \"#utility.yul\":6745:6755   */\n      swap4\n      pop\n        /* \"#utility.yul\":6153:6761   */\n      pop\n      pop\n      pop\n        /* \"#utility.yul\":6029:6761   */\n      swap3\n      swap2\n      pop\n      pop\n      jump\t// out\n        /* \"#utility.yul\":6767:7140   */\n    tag_66:\n        /* \"#utility.yul\":6910:6914   */\n      0x00\n        /* \"#utility.yul\":6948:6950   */\n      0x20\n        /* \"#utility.yul\":6937:6946   */\n      dup3\n        /* \"#utility.yul\":6933:6951   */\n      add\n        /* \"#utility.yul\":6925:6951   */\n      swap1\n      pop\n        /* \"#utility.yul\":6997:7006   */\n      dup2\n        /* \"#utility.yul\":6991:6995   */\n      dup2\n        /* \"#utility.yul\":6987:7007   */\n      sub\n        /* \"#utility.yul\":6983:6984   */\n      0x00\n        /* \"#utility.yul\":6972:6981   */\n      dup4\n        /* \"#utility.yul\":6968:6985   */\n      add\n        /* \"#utility.yul\":6961:7008   */\n      mstore\n        /* \"#utility.yul\":7025:7133   */\n      tag_298\n        /* \"#utility.yul\":7128:7132   */\n      dup2\n        /* \"#utility.yul\":7119:7125   */\n      dup5\n        /* \"#utility.yul\":7025:7133   */\n      tag_181\n      jump\t// in\n    tag_298:\n        /* \"#utility.yul\":7017:7133   */\n      swap1\n      pop\n        /* \"#utility.yul\":6767:7140   */\n      swap3\n      swap2\n      pop\n      pop\n      jump\t// out\n        /* \"#utility.yul\":7146:7263   */\n    tag_182:\n        /* \"#utility.yul\":7255:7256   */\n      0x00\n        /* \"#utility.yul\":7252:7253   */\n      dup1\n        /* \"#utility.yul\":7245:7257   */\n      revert\n        /* \"#utility.yul\":7269:7386   */\n    tag_183:\n        /* \"#utility.yul\":7378:7379   */\n      0x00\n        /* \"#utility.yul\":7375:7376   */\n      dup1\n        /* \"#utility.yul\":7368:7380   */\n      revert\n        /* \"#utility.yul\":7392:7509   */\n    tag_184:\n        /* \"#utility.yul\":7501:7502   */\n      0x00\n        /* \"#utility.yul\":7498:7499   */\n      dup1\n        /* \"#utility.yul\":7491:7503   */\n      revert\n        /* \"#utility.yul\":7528:8080   */\n    tag_185:\n        /* \"#utility.yul\":7585:7593   */\n      0x00\n        /* \"#utility.yul\":7595:7601   */\n      dup1\n        /* \"#utility.yul\":7645:7648   */\n      dup4\n        /* \"#utility.yul\":7638:7642   */\n      0x1f\n        /* \"#utility.yul\":7630:7636   */\n      dup5\n        /* \"#utility.yul\":7626:7643   */\n      add\n        /* \"#utility.yul\":7622:7649   */\n      slt\n        /* \"#utility.yul\":7612:7734   */\n      tag_303\n      jumpi\n        /* \"#utility.yul\":7653:7732   */\n      tag_304\n      tag_182\n      jump\t// in\n    tag_304:\n        /* \"#utility.yul\":7612:7734   */\n    tag_303:\n        /* \"#utility.yul\":7766:7772   */\n      dup3\n        /* \"#utility.yul\":7753:7773   */\n      calldataload\n        /* \"#utility.yul\":7743:7773   */\n      swap1\n      pop\n        /* \"#utility.yul\":7796:7814   */\n      0xffffffffffffffff\n        /* \"#utility.yul\":7788:7794   */\n      dup2\n        /* \"#utility.yul\":7785:7815   */\n      gt\n        /* \"#utility.yul\":7782:7899   */\n      iszero\n      tag_305\n      jumpi\n        /* \"#utility.yul\":7818:7897   */\n      tag_306\n      tag_183\n      jump\t// in\n    tag_306:\n        /* \"#utility.yul\":7782:7899   */\n    tag_305:\n        /* \"#utility.yul\":7932:7936   */\n      0x20\n        /* \"#utility.yul\":7924:7930   */\n      dup4\n        /* \"#utility.yul\":7920:7937   */\n      add\n        /* \"#utility.yul\":7908:7937   */\n      swap2\n      pop\n        /* \"#utility.yul\":7986:7989   */\n      dup4\n        /* \"#utility.yul\":7978:7982   */\n      0x01\n        /* \"#utility.yul\":7970:7976   */\n      dup3\n        /* \"#utility.yul\":7966:7983   */\n      mul\n        /* \"#utility.yul\":7956:7964   */\n      dup4\n        /* \"#utility.yul\":7952:7984   */\n      add\n        /* \"#utility.yul\":7949:7990   */\n      gt\n        /* \"#utility.yul\":7946:8074   */\n      iszero\n      tag_307\n      jumpi\n        /* \"#utility.yul\":7993:8072   */\n      tag_308\n      tag_184\n      jump\t// in\n    tag_308:\n        /* \"#utility.yul\":7946:8074   */\n    tag_307:\n        /* \"#utility.yul\":7528:8080   */\n      swap3\n      pop\n      swap3\n      swap1\n      pop\n      jump\t// out\n        /* \"#utility.yul\":8086:8903   */\n    tag_75:\n        /* \"#utility.yul\":8174:8180   */\n      0x00\n        /* \"#utility.yul\":8182:8188   */\n      dup1\n        /* \"#utility.yul\":8190:8196   */\n      0x00\n        /* \"#utility.yul\":8198:8204   */\n      dup1\n        /* \"#utility.yul\":8247:8249   */\n      0x60\n        /* \"#utility.yul\":8235:8244   */\n      dup6\n        /* \"#utility.yul\":8226:8233   */\n      dup8\n        /* \"#utility.yul\":8222:8245   */\n      sub\n        /* \"#utility.yul\":8218:8250   */\n      slt\n        /* \"#utility.yul\":8215:8334   */\n      iszero\n      tag_310\n      jumpi\n        /* \"#utility.yul\":8253:8332   */\n      tag_311\n      tag_157\n      jump\t// in\n    tag_311:\n        /* \"#utility.yul\":8215:8334   */\n    tag_310:\n        /* \"#utility.yul\":8373:8374   */\n      0x00\n        /* \"#utility.yul\":8398:8451   */\n      tag_312\n        /* \"#utility.yul\":8443:8450   */\n      dup8\n        /* \"#utility.yul\":8434:8440   */\n      dup3\n        /* \"#utility.yul\":8423:8432   */\n      dup9\n        /* \"#utility.yul\":8419:8441   */\n      add\n        /* \"#utility.yul\":8398:8451   */\n      tag_166\n      jump\t// in\n    tag_312:\n        /* \"#utility.yul\":8388:8451   */\n      swap5\n      pop\n        /* \"#utility.yul\":8344:8461   */\n      pop\n        /* \"#utility.yul\":8500:8502   */\n      0x20\n        /* \"#utility.yul\":8526:8579   */\n      tag_313\n        /* \"#utility.yul\":8571:8578   */\n      dup8\n        /* \"#utility.yul\":8562:8568   */\n      dup3\n        /* \"#utility.yul\":8551:8560   */\n      dup9\n        /* \"#utility.yul\":8547:8569   */\n      add\n        /* \"#utility.yul\":8526:8579   */\n      tag_161\n      jump\t// in\n    tag_313:\n        /* \"#utility.yul\":8516:8579   */\n      swap4\n      pop\n        /* \"#utility.yul\":8471:8589   */\n      pop\n        /* \"#utility.yul\":8656:8658   */\n      0x40\n        /* \"#utility.yul\":8645:8654   */\n      dup6\n        /* \"#utility.yul\":8641:8659   */\n      add\n        /* \"#utility.yul\":8628:8660   */\n      calldataload\n        /* \"#utility.yul\":8687:8705   */\n      0xffffffffffffffff\n        /* \"#utility.yul\":8679:8685   */\n      dup2\n        /* \"#utility.yul\":8676:8706   */\n      gt\n        /* \"#utility.yul\":8673:8790   */\n      iszero\n      tag_314\n      jumpi\n        /* \"#utility.yul\":8709:8788   */\n      tag_315\n      tag_158\n      jump\t// in\n    tag_315:\n        /* \"#utility.yul\":8673:8790   */\n    tag_314:\n        /* \"#utility.yul\":8822:8886   */\n      tag_316\n        /* \"#utility.yul\":8878:8885   */\n      dup8\n        /* \"#utility.yul\":8869:8875   */\n      dup3\n        /* \"#utility.yul\":8858:8867   */\n      dup9\n        /* \"#utility.yul\":8854:8876   */\n      add\n        /* \"#utility.yul\":8822:8886   */\n      tag_185\n      jump\t// in\n    tag_316:\n        /* \"#utility.yul\":8804:8886   */\n      swap3\n      pop\n      swap3\n      pop\n        /* \"#utility.yul\":8599:8896   */\n      pop\n        /* \"#utility.yul\":8086:8903   */\n      swap3\n      swap6\n      swap2\n      swap5\n      pop\n      swap3\n      pop\n      jump\t// out\n        /* \"#utility.yul\":8909:9078   */\n    tag_186:\n        /* \"#utility.yul\":8993:9004   */\n      0x00\n        /* \"#utility.yul\":9027:9033   */\n      dup3\n        /* \"#utility.yul\":9022:9025   */\n      dup3\n        /* \"#utility.yul\":9015:9034   */\n      mstore\n        /* \"#utility.yul\":9067:9071   */\n      0x20\n        /* \"#utility.yul\":9062:9065   */\n      dup3\n        /* \"#utility.yul\":9058:9072   */\n      add\n        /* \"#utility.yul\":9043:9072   */\n      swap1\n      pop\n        /* \"#utility.yul\":8909:9078   */\n      swap3\n      swap2\n      pop\n      pop\n      jump\t// out\n        /* \"#utility.yul\":9084:9305   */\n    tag_187:\n        /* \"#utility.yul\":9224:9258   */\n      0x4f6e6c79206f776e6572732063616e2063616c6c20746869732066756e637469\n        /* \"#utility.yul\":9220:9221   */\n      0x00\n        /* \"#utility.yul\":9212:9218   */\n      dup3\n        /* \"#utility.yul\":9208:9222   */\n      add\n        /* \"#utility.yul\":9201:9259   */\n      mstore\n        /* \"#utility.yul\":9293:9297   */\n      0x6f6e000000000000000000000000000000000000000000000000000000000000\n        /* \"#utility.yul\":9288:9290   */\n      0x20\n        /* \"#utility.yul\":9280:9286   */\n      dup3\n        /* \"#utility.yul\":9276:9291   */\n      add\n        /* \"#utility.yul\":9269:9298   */\n      mstore\n        /* \"#utility.yul\":9084:9305   */\n      pop\n      jump\t// out\n        /* \"#utility.yul\":9311:9677   */\n    tag_188:\n        /* \"#utility.yul\":9453:9456   */\n      0x00\n        /* \"#utility.yul\":9474:9541   */\n      tag_320\n        /* \"#utility.yul\":9538:9540   */\n      0x22\n        /* \"#utility.yul\":9533:9536   */\n      dup4\n        /* \"#utility.yul\":9474:9541   */\n      tag_186\n      jump\t// in\n    tag_320:\n        /* \"#utility.yul\":9467:9541   */\n      swap2\n      pop\n        /* \"#utility.yul\":9550:9643   */\n      tag_321\n        /* \"#utility.yul\":9639:9642   */\n      dup3\n        /* \"#utility.yul\":9550:9643   */\n      tag_187\n      jump\t// in\n    tag_321:\n        /* \"#utility.yul\":9668:9670   */\n      0x40\n        /* \"#utility.yul\":9663:9666   */\n      dup3\n        /* \"#utility.yul\":9659:9671   */\n      add\n        /* \"#utility.yul\":9652:9671   */\n      swap1\n      pop\n        /* \"#utility.yul\":9311:9677   */\n      swap2\n      swap1\n      pop\n      jump\t// out\n        /* \"#utility.yul\":9683:10102   */\n    tag_85:\n        /* \"#utility.yul\":9849:9853   */\n      0x00\n        /* \"#utility.yul\":9887:9889   */\n      0x20\n        /* \"#utility.yul\":9876:9885   */\n      dup3\n        /* \"#utility.yul\":9872:9890   */\n      add\n        /* \"#utility.yul\":9864:9890   */\n      swap1\n      pop\n        /* \"#utility.yul\":9936:9945   */\n      dup2\n        /* \"#utility.yul\":9930:9934   */\n      dup2\n        /* \"#utility.yul\":9926:9946   */\n      sub\n        /* \"#utility.yul\":9922:9923   */\n      0x00\n        /* \"#utility.yul\":9911:9920   */\n      dup4\n        /* \"#utility.yul\":9907:9924   */\n      add\n        /* \"#utility.yul\":9900:9947   */\n      mstore\n        /* \"#utility.yul\":9964:10095   */\n      tag_323\n        /* \"#utility.yul\":10090:10094   */\n      dup2\n        /* \"#utility.yul\":9964:10095   */\n      tag_188\n      jump\t// in\n    tag_323:\n        /* \"#utility.yul\":9956:10095   */\n      swap1\n      pop\n        /* \"#utility.yul\":9683:10102   */\n      swap2\n      swap1\n      pop\n      jump\t// out\n        /* \"#utility.yul\":10108:10288   */\n    tag_189:\n        /* \"#utility.yul\":10156:10233   */\n      0x4e487b7100000000000000000000000000000000000000000000000000000000\n        /* \"#utility.yul\":10153:10154   */\n      0x00\n        /* \"#utility.yul\":10146:10234   */\n      mstore\n        /* \"#utility.yul\":10253:10257   */\n      0x22\n        /* \"#utility.yul\":10250:10251   */\n      0x04\n        /* \"#utility.yul\":10243:10258   */\n      mstore\n        /* \"#utility.yul\":10277:10281   */\n      0x24\n        /* \"#utility.yul\":10274:10275   */\n      0x00\n        /* \"#utility.yul\":10267:10282   */\n      revert\n        /* \"#utility.yul\":10294:10614   */\n    tag_91:\n        /* \"#utility.yul\":10338:10344   */\n      0x00\n        /* \"#utility.yul\":10375:10376   */\n      0x02\n        /* \"#utility.yul\":10369:10373   */\n      dup3\n        /* \"#utility.yul\":10365:10377   */\n      div\n        /* \"#utility.yul\":10355:10377   */\n      swap1\n      pop\n        /* \"#utility.yul\":10422:10423   */\n      0x01\n        /* \"#utility.yul\":10416:10420   */\n      dup3\n        /* \"#utility.yul\":10412:10424   */\n      and\n        /* \"#utility.yul\":10443:10461   */\n      dup1\n        /* \"#utility.yul\":10433:10514   */\n      tag_326\n      jumpi\n        /* \"#utility.yul\":10499:10503   */\n      0x7f\n        /* \"#utility.yul\":10491:10497   */\n      dup3\n        /* \"#utility.yul\":10487:10504   */\n      and\n        /* \"#utility.yul\":10477:10504   */\n      swap2\n      pop\n        /* \"#utility.yul\":10433:10514   */\n    tag_326:\n        /* \"#utility.yul\":10561:10563   */\n      0x20\n        /* \"#utility.yul\":10553:10559   */\n      dup3\n        /* \"#utility.yul\":10550:10564   */\n      lt\n        /* \"#utility.yul\":10530:10548   */\n      dup2\n        /* \"#utility.yul\":10527:10565   */\n      sub\n        /* \"#utility.yul\":10524:10608   */\n      tag_327\n      jumpi\n        /* \"#utility.yul\":10580:10598   */\n      tag_328\n      tag_189\n      jump\t// in\n    tag_328:\n        /* \"#utility.yul\":10524:10608   */\n    tag_327:\n        /* \"#utility.yul\":10345:10614   */\n      pop\n        /* \"#utility.yul\":10294:10614   */\n      swap2\n      swap1\n      pop\n      jump\t// out\n        /* \"#utility.yul\":10620:10796   */\n    tag_190:\n        /* \"#utility.yul\":10760:10788   */\n      0x5472616e73616374696f6e20646f6573206e6f74206578697374000000000000\n        /* \"#utility.yul\":10756:10757   */\n      0x00\n        /* \"#utility.yul\":10748:10754   */\n      dup3\n        /* \"#utility.yul\":10744:10758   */\n      add\n        /* \"#utility.yul\":10737:10789   */\n      mstore\n        /* \"#utility.yul\":10620:10796   */\n      pop\n      jump\t// out\n        /* \"#utility.yul\":10802:11168   */\n    tag_191:\n        /* \"#utility.yul\":10944:10947   */\n      0x00\n        /* \"#utility.yul\":10965:11032   */\n      tag_331\n        /* \"#utility.yul\":11029:11031   */\n      0x1a\n        /* \"#utility.yul\":11024:11027   */\n      dup4\n        /* \"#utility.yul\":10965:11032   */\n      tag_186\n      jump\t// in\n    tag_331:\n        /* \"#utility.yul\":10958:11032   */\n      swap2\n      pop\n        /* \"#utility.yul\":11041:11134   */\n      tag_332\n        /* \"#utility.yul\":11130:11133   */\n      dup3\n        /* \"#utility.yul\":11041:11134   */\n      tag_190\n      jump\t// in\n    tag_332:\n        /* \"#utility.yul\":11159:11161   */\n      0x20\n        /* \"#utility.yul\":11154:11157   */\n      dup3\n        /* \"#utility.yul\":11150:11162   */\n      add\n        /* \"#utility.yul\":11143:11162   */\n      swap1\n      pop\n        /* \"#utility.yul\":10802:11168   */\n      swap2\n      swap1\n      pop\n      jump\t// out\n        /* \"#utility.yul\":11174:11593   */\n    tag_120:\n        /* \"#utility.yul\":11340:11344   */\n      0x00\n        /* \"#utility.yul\":11378:11380   */\n      0x20\n        /* \"#utility.yul\":11367:11376   */\n      dup3\n        /* \"#utility.yul\":11363:11381   */\n      add\n        /* \"#utility.yul\":11355:11381   */\n      swap1\n      pop\n        /* \"#utility.yul\":11427:11436   */\n      dup2\n        /* \"#utility.yul\":11421:11425   */\n      dup2\n        /* \"#utility.yul\":11417:11437   */\n      sub\n        /* \"#utility.yul\":11413:11414   */\n      0x00\n        /* \"#utility.yul\":11402:11411   */\n      dup4\n        /* \"#utility.yul\":11398:11415   */\n      add\n        /* \"#utility.yul\":11391:11438   */\n      mstore\n        /* \"#utility.yul\":11455:11586   */\n      tag_334\n        /* \"#utility.yul\":11581:11585   */\n      dup2\n        /* \"#utility.yul\":11455:11586   */\n      tag_191\n      jump\t// in\n    tag_334:\n        /* \"#utility.yul\":11447:11586   */\n      swap1\n      pop\n        /* \"#utility.yul\":11174:11593   */\n      swap2\n      swap1\n      pop\n      jump\t// out\n        /* \"#utility.yul\":11599:11829   */\n    tag_192:\n        /* \"#utility.yul\":11739:11773   */\n      0x5472616e73616374696f6e20616c726561647920636f6e6669726d6564206279\n        /* \"#utility.yul\":11735:11736   */\n      0x00\n        /* \"#utility.yul\":11727:11733   */\n      dup3\n        /* \"#utility.yul\":11723:11737   */\n      add\n        /* \"#utility.yul\":11716:11774   */\n      mstore\n        /* \"#utility.yul\":11808:11821   */\n      0x2074686973206f776e6572000000000000000000000000000000000000000000\n        /* \"#utility.yul\":11803:11805   */\n      0x20\n        /* \"#utility.yul\":11795:11801   */\n      dup3\n        /* \"#utility.yul\":11791:11806   */\n      add\n        /* \"#utility.yul\":11784:11822   */\n      mstore\n        /* \"#utility.yul\":11599:11829   */\n      pop\n      jump\t// out\n        /* \"#utility.yul\":11835:12201   */\n    tag_193:\n        /* \"#utility.yul\":11977:11980   */\n      0x00\n        /* \"#utility.yul\":11998:12065   */\n      tag_337\n        /* \"#utility.yul\":12062:12064   */\n      0x2b\n        /* \"#utility.yul\":12057:12060   */\n      dup4\n        /* \"#utility.yul\":11998:12065   */\n      tag_186\n      jump\t// in\n    tag_337:\n        /* \"#utility.yul\":11991:12065   */\n      swap2\n      pop\n        /* \"#utility.yul\":12074:12167   */\n      tag_338\n        /* \"#utility.yul\":12163:12166   */\n      dup3\n        /* \"#utility.yul\":12074:12167   */\n      tag_192\n      jump\t// in\n    tag_338:\n        /* \"#utility.yul\":12192:12194   */\n      0x40\n        /* \"#utility.yul\":12187:12190   */\n      dup3\n        /* \"#utility.yul\":12183:12195   */\n      add\n        /* \"#utility.yul\":12176:12195   */\n      swap1\n      pop\n        /* \"#utility.yul\":11835:12201   */\n      swap2\n      swap1\n      pop\n      jump\t// out\n        /* \"#utility.yul\":12207:12626   */\n    tag_123:\n        /* \"#utility.yul\":12373:12377   */\n      0x00\n        /* \"#utility.yul\":12411:12413   */\n      0x20\n        /* \"#utility.yul\":12400:12409   */\n      dup3\n        /* \"#utility.yul\":12396:12414   */\n      add\n        /* \"#utility.yul\":12388:12414   */\n      swap1\n      pop\n        /* \"#utility.yul\":12460:12469   */\n      dup2\n        /* \"#utility.yul\":12454:12458   */\n      dup2\n        /* \"#utility.yul\":12450:12470   */\n      sub\n        /* \"#utility.yul\":12446:12447   */\n      0x00\n        /* \"#utility.yul\":12435:12444   */\n      dup4\n        /* \"#utility.yul\":12431:12448   */\n      add\n        /* \"#utility.yul\":12424:12471   */\n      mstore\n        /* \"#utility.yul\":12488:12619   */\n      tag_340\n        /* \"#utility.yul\":12614:12618   */\n      dup2\n        /* \"#utility.yul\":12488:12619   */\n      tag_193\n      jump\t// in\n    tag_340:\n        /* \"#utility.yul\":12480:12619   */\n      swap1\n      pop\n        /* \"#utility.yul\":12207:12626   */\n      swap2\n      swap1\n      pop\n      jump\t// out\n        /* \"#utility.yul\":12632:12812   */\n    tag_194:\n        /* \"#utility.yul\":12680:12757   */\n      0x4e487b7100000000000000000000000000000000000000000000000000000000\n        /* \"#utility.yul\":12677:12678   */\n      0x00\n        /* \"#utility.yul\":12670:12758   */\n      mstore\n        /* \"#utility.yul\":12777:12781   */\n      0x11\n        /* \"#utility.yul\":12774:12775   */\n      0x04\n        /* \"#utility.yul\":12767:12782   */\n      mstore\n        /* \"#utility.yul\":12801:12805   */\n      0x24\n        /* \"#utility.yul\":12798:12799   */\n      0x00\n        /* \"#utility.yul\":12791:12806   */\n      revert\n        /* \"#utility.yul\":12818:13051   */\n    tag_125:\n        /* \"#utility.yul\":12857:12860   */\n      0x00\n        /* \"#utility.yul\":12880:12904   */\n      tag_343\n        /* \"#utility.yul\":12898:12903   */\n      dup3\n        /* \"#utility.yul\":12880:12904   */\n      tag_159\n      jump\t// in\n    tag_343:\n        /* \"#utility.yul\":12871:12904   */\n      swap2\n      pop\n        /* \"#utility.yul\":12926:12992   */\n      0xffffffffffffffffffffffffffffffffffffffffffffffffffffffffffffffff\n        /* \"#utility.yul\":12919:12924   */\n      dup3\n        /* \"#utility.yul\":12916:12993   */\n      sub\n        /* \"#utility.yul\":12913:13016   */\n      tag_344\n      jumpi\n        /* \"#utility.yul\":12996:13014   */\n      tag_345\n      tag_194\n      jump\t// in\n    tag_345:\n        /* \"#utility.yul\":12913:13016   */\n    tag_344:\n        /* \"#utility.yul\":13043:13044   */\n      0x01\n        /* \"#utility.yul\":13036:13041   */\n      dup3\n        /* \"#utility.yul\":13032:13045   */\n      add\n        /* \"#utility.yul\":13025:13045   */\n      swap1\n      pop\n        /* \"#utility.yul\":12818:13051   */\n      swap2\n      swap1\n      pop\n      jump\t// out\n        /* \"#utility.yul\":13057:13237   */\n    tag_195:\n        /* \"#utility.yul\":13105:13182   */\n      0x4e487b7100000000000000000000000000000000000000000000000000000000\n        /* \"#utility.yul\":13102:13103   */\n      0x00\n        /* \"#utility.yul\":13095:13183   */\n      mstore\n        /* \"#utility.yul\":13202:13206   */\n      0x41\n        /* \"#utility.yul\":13199:13200   */\n      0x04\n        /* \"#utility.yul\":13192:13207   */\n      mstore\n        /* \"#utility.yul\":13226:13230   */\n      0x24\n        /* \"#utility.yul\":13223:13224   */\n      0x00\n        /* \"#utility.yul\":13216:13231   */\n      revert\n        /* \"#utility.yul\":13243:13383   */\n    tag_196:\n        /* \"#utility.yul\":13291:13295   */\n      0x00\n        /* \"#utility.yul\":13314:13317   */\n      dup2\n        /* \"#utility.yul\":13306:13317   */\n      swap1\n      pop\n        /* \"#utility.yul\":13337:13340   */\n      dup2\n        /* \"#utility.yul\":13334:13335   */\n      0x00\n        /* \"#utility.yul\":13327:13341   */\n      mstore\n        /* \"#utility.yul\":13371:13375   */\n      0x20\n        /* \"#utility.yul\":13368:13369   */\n      0x00\n        /* \"#utility.yul\":13358:13376   */\n      keccak256\n        /* \"#utility.yul\":13350:13376   */\n      swap1\n      pop\n        /* \"#utility.yul\":13243:13383   */\n      swap2\n      swap1\n      pop\n      jump\t// out\n        /* \"#utility.yul\":13389:13482   */\n    tag_197:\n        /* \"#utility.yul\":13426:13432   */\n      0x00\n        /* \"#utility.yul\":13473:13475   */\n      0x20\n        /* \"#utility.yul\":13468:13470   */\n      0x1f\n        /* \"#utility.yul\":13461:13466   */\n      dup4\n        /* \"#utility.yul\":13457:13471   */\n      add\n        /* \"#utility.yul\":13453:13476   */\n      div\n        /* \"#utility.yul\":13443:13476   */\n      swap1\n      pop\n        /* \"#utility.yul\":13389:13482   */\n      swap2\n      swap1\n      pop\n      jump\t// out\n        /* \"#utility.yul\":13488:13595   */\n    tag_198:\n        /* \"#utility.yul\":13532:13540   */\n      0x00\n        /* \"#utility.yul\":13582:13587   */\n      dup3\n        /* \"#utility.yul\":13576:13580   */\n      dup3\n        /* \"#utility.yul\":13572:13588   */\n      shl\n        /* \"#utility.yul\":13551:13588   */\n      swap1\n      pop\n        /* \"#utility.yul\":13488:13595   */\n      swap3\n      swap2\n      pop\n      pop\n      jump\t// out\n        /* \"#utility.yul\":13601:13994   */\n    tag_199:\n        /* \"#utility.yul\":13670:13676   */\n      0x00\n        /* \"#utility.yul\":13720:13721   */\n      0x08\n        /* \"#utility.yul\":13708:13718   */\n      dup4\n        /* \"#utility.yul\":13704:13722   */\n      mul\n        /* \"#utility.yul\":13743:13840   */\n      tag_351\n        /* \"#utility.yul\":13773:13839   */\n      0xffffffffffffffffffffffffffffffffffffffffffffffffffffffffffffffff\n        /* \"#utility.yul\":13762:13771   */\n      dup3\n        /* \"#utility.yul\":13743:13840   */\n      tag_198\n      jump\t// in\n    tag_351:\n        /* \"#utility.yul\":13861:13900   */\n      tag_352\n        /* \"#utility.yul\":13891:13899   */\n      dup7\n        /* \"#utility.yul\":13880:13889   */\n      dup4\n        /* \"#utility.yul\":13861:13900   */\n      tag_198\n      jump\t// in\n    tag_352:\n        /* \"#utility.yul\":13849:13900   */\n      swap6\n      pop\n        /* \"#utility.yul\":13933:13937   */\n      dup1\n        /* \"#utility.yul\":13929:13938   */\n      not\n        /* \"#utility.yul\":13922:13927   */\n      dup5\n        /* \"#utility.yul\":13918:13939   */\n      and\n        /* \"#utility.yul\":13909:13939   */\n      swap4\n      pop\n        /* \"#utility.yul\":13982:13986   */\n      dup1\n        /* \"#utility.yul\":13972:13980   */\n      dup7\n        /* \"#utility.yul\":13968:13987   */\n      and\n        /* \"#utility.yul\":13961:13966   */\n      dup5\n        /* \"#utility.yul\":13958:13988   */\n      or\n        /* \"#utility.yul\":13948:13988   */\n      swap3\n      pop\n        /* \"#utility.yul\":13677:13994   */\n      pop\n      pop\n        /* \"#utility.yul\":13601:13994   */\n      swap4\n      swap3\n      pop\n      pop\n      pop\n      jump\t// out\n        /* \"#utility.yul\":14000:14060   */\n    tag_200:\n        /* \"#utility.yul\":14028:14031   */\n      0x00\n        /* \"#utility.yul\":14049:14054   */\n      dup2\n        /* \"#utility.yul\":14042:14054   */\n      swap1\n      pop\n        /* \"#utility.yul\":14000:14060   */\n      swap2\n      swap1\n      pop\n      jump\t// out\n        /* \"#utility.yul\":14066:14208   */\n    tag_201:\n        /* \"#utility.yul\":14116:14125   */\n      0x00\n        /* \"#utility.yul\":14149:14202   */\n      tag_355\n        /* \"#utility.yul\":14167:14201   */\n      tag_356\n        /* \"#utility.yul\":14176:14200   */\n      tag_357\n        /* \"#utility.yul\":14194:14199   */\n      dup5\n        /* \"#utility.yul\":14176:14200   */\n      tag_159\n      jump\t// in\n    tag_357:\n        /* \"#utility.yul\":14167:14201   */\n      tag_200\n      jump\t// in\n    tag_356:\n        /* \"#utility.yul\":14149:14202   */\n      tag_159\n      jump\t// in\n    tag_355:\n        /* \"#utility.yul\":14136:14202   */\n      swap1\n      pop\n        /* \"#utility.yul\":14066:14208   */\n      swap2\n      swap1\n      pop\n      jump\t// out\n        /* \"#utility.yul\":14214:14289   */\n    tag_202:\n        /* \"#utility.yul\":14257:14260   */\n      0x00\n        /* \"#utility.yul\":14278:14283   */\n      dup2\n        /* \"#utility.yul\":14271:14283   */\n      swap1\n      pop\n        /* \"#utility.yul\":14214:14289   */\n      swap2\n      swap1\n      pop\n      jump\t// out\n        /* \"#utility.yul\":14295:14564   */\n    tag_203:\n        /* \"#utility.yul\":14405:14444   */\n      tag_360\n        /* \"#utility.yul\":14436:14443   */\n      dup4\n        /* \"#utility.yul\":14405:14444   */\n      tag_201\n      jump\t// in\n    tag_360:\n        /* \"#utility.yul\":14466:14557   */\n      tag_361\n        /* \"#utility.yul\":14515:14556   */\n      tag_362\n        /* \"#utility.yul\":14539:14555   */\n      dup3\n        /* \"#utility.yul\":14515:14556   */\n      tag_202\n      jump\t// in\n    tag_362:\n        /* \"#utility.yul\":14507:14513   */\n      dup5\n        /* \"#utility.yul\":14500:14504   */\n      dup5\n        /* \"#utility.yul\":14494:14505   */\n      sload\n        /* \"#utility.yul\":14466:14557   */\n      tag_199\n      jump\t// in\n    tag_361:\n        /* \"#utility.yul\":14460:14464   */\n      dup3\n        /* \"#utility.yul\":14453:14558   */\n      sstore\n        /* \"#utility.yul\":14371:14564   */\n      pop\n        /* \"#utility.yul\":14295:14564   */\n      pop\n      pop\n      pop\n      jump\t// out\n        /* \"#utility.yul\":14570:14643   */\n    tag_204:\n        /* \"#utility.yul\":14615:14618   */\n      0x00\n        /* \"#utility.yul\":14570:14643   */\n      swap1\n      jump\t// out\n        /* \"#utility.yul\":14649:14838   */\n    tag_205:\n        /* \"#utility.yul\":14726:14758   */\n      tag_365\n      tag_204\n      jump\t// in\n    tag_365:\n        /* \"#utility.yul\":14767:14832   */\n      tag_366\n        /* \"#utility.yul\":14825:14831   */\n      dup2\n        /* \"#utility.yul\":14817:14823   */\n      dup5\n        /* \"#utility.yul\":14811:14815   */\n      dup5\n        /* \"#utility.yul\":14767:14832   */\n      tag_203\n      jump\t// in\n    tag_366:\n        /* \"#utility.yul\":14702:14838   */\n      pop\n        /* \"#utility.yul\":14649:14838   */\n      pop\n      pop\n      jump\t// out\n        /* \"#utility.yul\":14844:15030   */\n    tag_206:\n        /* \"#utility.yul\":14904:15024   */\n    tag_368:\n        /* \"#utility.yul\":14921:14924   */\n      dup2\n        /* \"#utility.yul\":14914:14919   */\n      dup2\n        /* \"#utility.yul\":14911:14925   */\n      lt\n        /* \"#utility.yul\":14904:15024   */\n      iszero\n      tag_370\n      jumpi\n        /* \"#utility.yul\":14975:15014   */\n      tag_371\n        /* \"#utility.yul\":15012:15013   */\n      0x00\n        /* \"#utility.yul\":15005:15010   */\n      dup3\n        /* \"#utility.yul\":14975:15014   */\n      tag_205\n      jump\t// in\n    tag_371:\n        /* \"#utility.yul\":14948:14949   */\n      0x01\n        /* \"#utility.yul\":14941:14946   */\n      dup2\n        /* \"#utility.yul\":14937:14950   */\n      add\n        /* \"#utility.yul\":14928:14950   */\n      swap1\n      pop\n        /* \"#utility.yul\":14904:15024   */\n      jump(tag_368)\n    tag_370:\n        /* \"#utility.yul\":14844:15030   */\n      pop\n      pop\n      jump\t// out\n        /* \"#utility.yul\":15036:15577   */\n    tag_207:\n        /* \"#utility.yul\":15136:15138   */\n      0x1f\n        /* \"#utility.yul\":15131:15134   */\n      dup3\n        /* \"#utility.yul\":15128:15139   */\n      gt\n        /* \"#utility.yul\":15125:15570   */\n      iszero\n      tag_373\n      jumpi\n        /* \"#utility.yul\":15170:15207   */\n      tag_374\n        /* \"#utility.yul\":15201:15206   */\n      dup2\n        /* \"#utility.yul\":15170:15207   */\n      tag_196\n      jump\t// in\n    tag_374:\n        /* \"#utility.yul\":15253:15282   */\n      tag_375\n        /* \"#utility.yul\":15271:15281   */\n      dup5\n        /* \"#utility.yul\":15253:15282   */\n      tag_197\n      jump\t// in\n    tag_375:\n        /* \"#utility.yul\":15243:15251   */\n      dup2\n        /* \"#utility.yul\":15239:15283   */\n      add\n        /* \"#utility.yul\":15436:15438   */\n      0x20\n        /* \"#utility.yul\":15424:15434   */\n      dup6\n        /* \"#utility.yul\":15421:15439   */\n      lt\n        /* \"#utility.yul\":15418:15467   */\n      iszero\n      tag_376\n      jumpi\n        /* \"#utility.yul\":15457:15465   */\n      dup2\n        /* \"#utility.yul\":15442:15465   */\n      swap1\n      pop\n        /* \"#utility.yul\":15418:15467   */\n    tag_376:\n        /* \"#utility.yul\":15480:15560   */\n      tag_377\n        /* \"#utility.yul\":15536:15558   */\n      tag_378\n        /* \"#utility.yul\":15554:15557   */\n      dup6\n        /* \"#utility.yul\":15536:15558   */\n      tag_197\n      jump\t// in\n    tag_378:\n        /* \"#utility.yul\":15526:15534   */\n      dup4\n        /* \"#utility.yul\":15522:15559   */\n      add\n        /* \"#utility.yul\":15509:15520   */\n      dup3\n        /* \"#utility.yul\":15480:15560   */\n      tag_206\n      jump\t// in\n    tag_377:\n        /* \"#utility.yul\":15140:15570   */\n      pop\n      pop\n        /* \"#utility.yul\":15125:15570   */\n    tag_373:\n        /* \"#utility.yul\":15036:15577   */\n      pop\n      pop\n      pop\n      jump\t// out\n        /* \"#utility.yul\":15583:15700   */\n    tag_208:\n        /* \"#utility.yul\":15637:15645   */\n      0x00\n        /* \"#utility.yul\":15687:15692   */\n      dup3\n        /* \"#utility.yul\":15681:15685   */\n      dup3\n        /* \"#utility.yul\":15677:15693   */\n      shr\n        /* \"#utility.yul\":15656:15693   */\n      swap1\n      pop\n        /* \"#utility.yul\":15583:15700   */\n      swap3\n      swap2\n      pop\n      pop\n      jump\t// out\n        /* \"#utility.yul\":15706:15875   */\n    tag_209:\n        /* \"#utility.yul\":15750:15756   */\n      0x00\n        /* \"#utility.yul\":15783:15834   */\n      tag_381\n        /* \"#utility.yul\":15831:15832   */\n      0x00\n        /* \"#utility.yul\":15827:15833   */\n      not\n        /* \"#utility.yul\":15819:15824   */\n      dup5\n        /* \"#utility.yul\":15816:15817   */\n      0x08\n        /* \"#utility.yul\":15812:15825   */\n      mul\n        /* \"#utility.yul\":15783:15834   */\n      tag_208\n      jump\t// in\n    tag_381:\n        /* \"#utility.yul\":15779:15835   */\n      not\n        /* \"#utility.yul\":15864:15868   */\n      dup1\n        /* \"#utility.yul\":15858:15862   */\n      dup4\n        /* \"#utility.yul\":15854:15869   */\n      and\n        /* \"#utility.yul\":15844:15869   */\n      swap2\n      pop\n        /* \"#utility.yul\":15757:15875   */\n      pop\n        /* \"#utility.yul\":15706:15875   */\n      swap3\n      swap2\n      pop\n      pop\n      jump\t// out\n        /* \"#utility.yul\":15880:16175   */\n    tag_210:\n        /* \"#utility.yul\":15956:15960   */\n      0x00\n        /* \"#utility.yul\":16102:16131   */\n      tag_383\n        /* \"#utility.yul\":16127:16130   */\n      dup4\n        /* \"#utility.yul\":16121:16125   */\n      dup4\n        /* \"#utility.yul\":16102:16131   */\n      tag_209\n      jump\t// in\n    tag_383:\n        /* \"#utility.yul\":16094:16131   */\n      swap2\n      pop\n        /* \"#utility.yul\":16164:16167   */\n      dup3\n        /* \"#utility.yul\":16161:16162   */\n      0x02\n        /* \"#utility.yul\":16157:16168   */\n      mul\n        /* \"#utility.yul\":16151:16155   */\n      dup3\n        /* \"#utility.yul\":16148:16169   */\n      or\n        /* \"#utility.yul\":16140:16169   */\n      swap1\n      pop\n        /* \"#utility.yul\":15880:16175   */\n      swap3\n      swap2\n      pop\n      pop\n      jump\t// out\n        /* \"#utility.yul\":16180:17570   */\n    tag_131:\n        /* \"#utility.yul\":16295:16331   */\n      tag_385\n        /* \"#utility.yul\":16327:16330   */\n      dup3\n        /* \"#utility.yul\":16295:16331   */\n      tag_170\n      jump\t// in\n    tag_385:\n        /* \"#utility.yul\":16396:16414   */\n      0xffffffffffffffff\n        /* \"#utility.yul\":16388:16394   */\n      dup2\n        /* \"#utility.yul\":16385:16415   */\n      gt\n        /* \"#utility.yul\":16382:16438   */\n      iszero\n      tag_386\n      jumpi\n        /* \"#utility.yul\":16418:16436   */\n      tag_387\n      tag_195\n      jump\t// in\n    tag_387:\n        /* \"#utility.yul\":16382:16438   */\n    tag_386:\n        /* \"#utility.yul\":16462:16500   */\n      tag_388\n        /* \"#utility.yul\":16494:16498   */\n      dup3\n        /* \"#utility.yul\":16488:16499   */\n      sload\n        /* \"#utility.yul\":16462:16500   */\n      tag_91\n      jump\t// in\n    tag_388:\n        /* \"#utility.yul\":16547:16613   */\n      tag_389\n        /* \"#utility.yul\":16606:16612   */\n      dup3\n        /* \"#utility.yul\":16598:16604   */\n      dup3\n        /* \"#utility.yul\":16592:16596   */\n      dup6\n        /* \"#utility.yul\":16547:16613   */\n      tag_207\n      jump\t// in\n    tag_389:\n        /* \"#utility.yul\":16640:16641   */\n      0x00\n        /* \"#utility.yul\":16664:16668   */\n      0x20\n        /* \"#utility.yul\":16651:16668   */\n      swap1\n      pop\n        /* \"#utility.yul\":16696:16698   */\n      0x1f\n        /* \"#utility.yul\":16688:16694   */\n      dup4\n        /* \"#utility.yul\":16685:16699   */\n      gt\n        /* \"#utility.yul\":16713:16714   */\n      0x01\n        /* \"#utility.yul\":16708:17325   */\n      dup2\n      eq\n      tag_391\n      jumpi\n        /* \"#utility.yul\":17369:17370   */\n      0x00\n        /* \"#utility.yul\":17386:17392   */\n      dup5\n        /* \"#utility.yul\":17383:17460   */\n      iszero\n      tag_392\n      jumpi\n        /* \"#utility.yul\":17435:17444   */\n      dup3\n        /* \"#utility.yul\":17430:17433   */\n      dup8\n        /* \"#utility.yul\":17426:17445   */\n      add\n        /* \"#utility.yul\":17420:17446   */\n      mload\n        /* \"#utility.yul\":17411:17446   */\n      swap1\n      pop\n        /* \"#utility.yul\":17383:17460   */\n    tag_392:\n        /* \"#utility.yul\":17486:17553   */\n      tag_393\n        /* \"#utility.yul\":17546:17552   */\n      dup6\n        /* \"#utility.yul\":17539:17544   */\n      dup3\n        /* \"#utility.yul\":17486:17553   */\n      tag_210\n      jump\t// in\n    tag_393:\n        /* \"#utility.yul\":17480:17484   */\n      dup7\n        /* \"#utility.yul\":17473:17554   */\n      sstore\n        /* \"#utility.yul\":17342:17564   */\n      pop\n        /* \"#utility.yul\":16678:17564   */\n      jump(tag_390)\n        /* \"#utility.yul\":16708:17325   */\n    tag_391:\n        /* \"#utility.yul\":16760:16764   */\n      0x1f\n        /* \"#utility.yul\":16756:16765   */\n      not\n        /* \"#utility.yul\":16748:16754   */\n      dup5\n        /* \"#utility.yul\":16744:16766   */\n      and\n        /* \"#utility.yul\":16794:16830   */\n      tag_394\n        /* \"#utility.yul\":16825:16829   */\n      dup7\n        /* \"#utility.yul\":16794:16830   */\n      tag_196\n      jump\t// in\n    tag_394:\n        /* \"#utility.yul\":16852:16853   */\n      0x00\n        /* \"#utility.yul\":16866:17074   */\n    tag_395:\n        /* \"#utility.yul\":16880:16887   */\n      dup3\n        /* \"#utility.yul\":16877:16878   */\n      dup2\n        /* \"#utility.yul\":16874:16888   */\n      lt\n        /* \"#utility.yul\":16866:17074   */\n      iszero\n      tag_397\n      jumpi\n        /* \"#utility.yul\":16959:16968   */\n      dup5\n        /* \"#utility.yul\":16954:16957   */\n      dup10\n        /* \"#utility.yul\":16950:16969   */\n      add\n        /* \"#utility.yul\":16944:16970   */\n      mload\n        /* \"#utility.yul\":16936:16942   */\n      dup3\n        /* \"#utility.yul\":16929:16971   */\n      sstore\n        /* \"#utility.yul\":17010:17011   */\n      0x01\n        /* \"#utility.yul\":17002:17008   */\n      dup3\n        /* \"#utility.yul\":16998:17012   */\n      add\n        /* \"#utility.yul\":16988:17012   */\n      swap2\n      pop\n        /* \"#utility.yul\":17057:17059   */\n      0x20\n        /* \"#utility.yul\":17046:17055   */\n      dup6\n        /* \"#utility.yul\":17042:17060   */\n      add\n        /* \"#utility.yul\":17029:17060   */\n      swap5\n      pop\n        /* \"#utility.yul\":16903:16907   */\n      0x20\n        /* \"#utility.yul\":16900:16901   */\n      dup2\n        /* \"#utility.yul\":16896:16908   */\n      add\n        /* \"#utility.yul\":16891:16908   */\n      swap1\n      pop\n        /* \"#utility.yul\":16866:17074   */\n      jump(tag_395)\n    tag_397:\n        /* \"#utility.yul\":17102:17108   */\n      dup7\n        /* \"#utility.yul\":17093:17100   */\n      dup4\n        /* \"#utility.yul\":17090:17109   */\n      lt\n        /* \"#utility.yul\":17087:17266   */\n      iszero\n      tag_398\n      jumpi\n        /* \"#utility.yul\":17160:17169   */\n      dup5\n        /* \"#utility.yul\":17155:17158   */\n      dup10\n        /* \"#utility.yul\":17151:17170   */\n      add\n        /* \"#utility.yul\":17145:17171   */\n      mload\n        /* \"#utility.yul\":17203:17251   */\n      tag_399\n        /* \"#utility.yul\":17245:17249   */\n      0x1f\n        /* \"#utility.yul\":17237:17243   */\n      dup10\n        /* \"#utility.yul\":17233:17250   */\n      and\n        /* \"#utility.yul\":17222:17231   */\n      dup3\n        /* \"#utility.yul\":17203:17251   */\n      tag_209\n      jump\t// in\n    tag_399:\n        /* \"#utility.yul\":17195:17201   */\n      dup4\n        /* \"#utility.yul\":17188:17252   */\n      sstore\n        /* \"#utility.yul\":17110:17266   */\n      pop\n        /* \"#utility.yul\":17087:17266   */\n    tag_398:\n        /* \"#utility.yul\":17312:17313   */\n      0x01\n        /* \"#utility.yul\":17308:17309   */\n      0x02\n        /* \"#utility.yul\":17300:17306   */\n      dup9\n        /* \"#utility.yul\":17296:17310   */\n      mul\n        /* \"#utility.yul\":17292:17314   */\n      add\n        /* \"#utility.yul\":17286:17290   */\n      dup9\n        /* \"#utility.yul\":17279:17315   */\n      sstore\n        /* \"#utility.yul\":16715:17325   */\n      pop\n      pop\n      pop\n        /* \"#utility.yul\":16678:17564   */\n    tag_390:\n      pop\n        /* \"#utility.yul\":16270:17570   */\n      pop\n      pop\n      pop\n        /* \"#utility.yul\":16180:17570   */\n      pop\n      pop\n      jump\t// out\n        /* \"#utility.yul\":17576:17724   */\n    tag_211:\n        /* \"#utility.yul\":17674:17680   */\n      dup3\n        /* \"#utility.yul\":17669:17672   */\n      dup2\n        /* \"#utility.yul\":17664:17667   */\n      dup4\n        /* \"#utility.yul\":17651:17681   */\n      calldatacopy\n        /* \"#utility.yul\":17715:17716   */\n      0x00\n        /* \"#utility.yul\":17706:17712   */\n      dup4\n        /* \"#utility.yul\":17701:17704   */\n      dup4\n        /* \"#utility.yul\":17697:17713   */\n      add\n        /* \"#utility.yul\":17690:17717   */\n      mstore\n        /* \"#utility.yul\":17576:17724   */\n      pop\n      pop\n      pop\n      jump\t// out\n        /* \"#utility.yul\":17752:18066   */\n    tag_212:\n        /* \"#utility.yul\":17848:17851   */\n      0x00\n        /* \"#utility.yul\":17869:17939   */\n      tag_402\n        /* \"#utility.yul\":17932:17938   */\n      dup4\n        /* \"#utility.yul\":17927:17930   */\n      dup6\n        /* \"#utility.yul\":17869:17939   */\n      tag_171\n      jump\t// in\n    tag_402:\n        /* \"#utility.yul\":17862:17939   */\n      swap4\n      pop\n        /* \"#utility.yul\":17949:18005   */\n      tag_403\n        /* \"#utility.yul\":17998:18004   */\n      dup4\n        /* \"#utility.yul\":17993:17996   */\n      dup6\n        /* \"#utility.yul\":17986:17991   */\n      dup5\n        /* \"#utility.yul\":17949:18005   */\n      tag_211\n      jump\t// in\n    tag_403:\n        /* \"#utility.yul\":18030:18059   */\n      tag_404\n        /* \"#utility.yul\":18052:18058   */\n      dup4\n        /* \"#utility.yul\":18030:18059   */\n      tag_173\n      jump\t// in\n    tag_404:\n        /* \"#utility.yul\":18025:18028   */\n      dup5\n        /* \"#utility.yul\":18021:18060   */\n      add\n        /* \"#utility.yul\":18014:18060   */\n      swap1\n      pop\n        /* \"#utility.yul\":17752:18066   */\n      swap4\n      swap3\n      pop\n      pop\n      pop\n      jump\t// out\n        /* \"#utility.yul\":18072:18621   */\n    tag_134:\n        /* \"#utility.yul\":18249:18253   */\n      0x00\n        /* \"#utility.yul\":18287:18289   */\n      0x60\n        /* \"#utility.yul\":18276:18285   */\n      dup3\n        /* \"#utility.yul\":18272:18290   */\n      add\n        /* \"#utility.yul\":18264:18290   */\n      swap1\n      pop\n        /* \"#utility.yul\":18300:18371   */\n      tag_406\n        /* \"#utility.yul\":18368:18369   */\n      0x00\n        /* \"#utility.yul\":18357:18366   */\n      dup4\n        /* \"#utility.yul\":18353:18370   */\n      add\n        /* \"#utility.yul\":18344:18350   */\n      dup8\n        /* \"#utility.yul\":18300:18371   */\n      tag_164\n      jump\t// in\n    tag_406:\n        /* \"#utility.yul\":18381:18453   */\n      tag_407\n        /* \"#utility.yul\":18449:18451   */\n      0x20\n        /* \"#utility.yul\":18438:18447   */\n      dup4\n        /* \"#utility.yul\":18434:18452   */\n      add\n        /* \"#utility.yul\":18425:18431   */\n      dup7\n        /* \"#utility.yul\":18381:18453   */\n      tag_167\n      jump\t// in\n    tag_407:\n        /* \"#utility.yul\":18500:18509   */\n      dup2\n        /* \"#utility.yul\":18494:18498   */\n      dup2\n        /* \"#utility.yul\":18490:18510   */\n      sub\n        /* \"#utility.yul\":18485:18487   */\n      0x40\n        /* \"#utility.yul\":18474:18483   */\n      dup4\n        /* \"#utility.yul\":18470:18488   */\n      add\n        /* \"#utility.yul\":18463:18511   */\n      mstore\n        /* \"#utility.yul\":18528:18614   */\n      tag_408\n        /* \"#utility.yul\":18609:18613   */\n      dup2\n        /* \"#utility.yul\":18600:18606   */\n      dup5\n        /* \"#utility.yul\":18592:18598   */\n      dup7\n        /* \"#utility.yul\":18528:18614   */\n      tag_212\n      jump\t// in\n    tag_408:\n        /* \"#utility.yul\":18520:18614   */\n      swap1\n      pop\n        /* \"#utility.yul\":18072:18621   */\n      swap6\n      swap5\n      pop\n      pop\n      pop\n      pop\n      pop\n      jump\t// out\n        /* \"#utility.yul\":18627:18805   */\n    tag_213:\n        /* \"#utility.yul\":18767:18797   */\n      0x5472616e73616374696f6e20616c726561647920657865637574656400000000\n        /* \"#utility.yul\":18763:18764   */\n      0x00\n        /* \"#utility.yul\":18755:18761   */\n      dup3\n        /* \"#utility.yul\":18751:18765   */\n      add\n        /* \"#utility.yul\":18744:18798   */\n      mstore\n        /* \"#utility.yul\":18627:18805   */\n      pop\n      jump\t// out\n        /* \"#utility.yul\":18811:19177   */\n    tag_214:\n        /* \"#utility.yul\":18953:18956   */\n      0x00\n        /* \"#utility.yul\":18974:19041   */\n      tag_411\n        /* \"#utility.yul\":19038:19040   */\n      0x1c\n        /* \"#utility.yul\":19033:19036   */\n      dup4\n        /* \"#utility.yul\":18974:19041   */\n      tag_186\n      jump\t// in\n    tag_411:\n        /* \"#utility.yul\":18967:19041   */\n      swap2\n      pop\n        /* \"#utility.yul\":19050:19143   */\n      tag_412\n        /* \"#utility.yul\":19139:19142   */\n      dup3\n        /* \"#utility.yul\":19050:19143   */\n      tag_213\n      jump\t// in\n    tag_412:\n        /* \"#utility.yul\":19168:19170   */\n      0x20\n        /* \"#utility.yul\":19163:19166   */\n      dup3\n        /* \"#utility.yul\":19159:19171   */\n      add\n        /* \"#utility.yul\":19152:19171   */\n      swap1\n      pop\n        /* \"#utility.yul\":18811:19177   */\n      swap2\n      swap1\n      pop\n      jump\t// out\n        /* \"#utility.yul\":19183:19602   */\n    tag_144:\n        /* \"#utility.yul\":19349:19353   */\n      0x00\n        /* \"#utility.yul\":19387:19389   */\n      0x20\n        /* \"#utility.yul\":19376:19385   */\n      dup3\n        /* \"#utility.yul\":19372:19390   */\n      add\n        /* \"#utility.yul\":19364:19390   */\n      swap1\n      pop\n        /* \"#utility.yul\":19436:19445   */\n      dup2\n        /* \"#utility.yul\":19430:19434   */\n      dup2\n        /* \"#utility.yul\":19426:19446   */\n      sub\n        /* \"#utility.yul\":19422:19423   */\n      0x00\n        /* \"#utility.yul\":19411:19420   */\n      dup4\n        /* \"#utility.yul\":19407:19424   */\n      add\n        /* \"#utility.yul\":19400:19447   */\n      mstore\n        /* \"#utility.yul\":19464:19595   */\n      tag_414\n        /* \"#utility.yul\":19590:19594   */\n      dup2\n        /* \"#utility.yul\":19464:19595   */\n      tag_214\n      jump\t// in\n    tag_414:\n        /* \"#utility.yul\":19456:19595   */\n      swap1\n      pop\n        /* \"#utility.yul\":19183:19602   */\n      swap2\n      swap1\n      pop\n      jump\t// out\n        /* \"#utility.yul\":19608:19782   */\n    tag_215:\n        /* \"#utility.yul\":19748:19774   */\n      0x4e6f7420656e6f75676820636f6e6669726d6174696f6e730000000000000000\n        /* \"#utility.yul\":19744:19745   */\n      0x00\n        /* \"#utility.yul\":19736:19742   */\n      dup3\n        /* \"#utility.yul\":19732:19746   */\n      add\n        /* \"#utility.yul\":19725:19775   */\n      mstore\n        /* \"#utility.yul\":19608:19782   */\n      pop\n      jump\t// out\n        /* \"#utility.yul\":19788:20154   */\n    tag_216:\n        /* \"#utility.yul\":19930:19933   */\n      0x00\n        /* \"#utility.yul\":19951:20018   */\n      tag_417\n        /* \"#utility.yul\":20015:20017   */\n      0x18\n        /* \"#utility.yul\":20010:20013   */\n      dup4\n        /* \"#utility.yul\":19951:20018   */\n      tag_186\n      jump\t// in\n    tag_417:\n        /* \"#utility.yul\":19944:20018   */\n      swap2\n      pop\n        /* \"#utility.yul\":20027:20120   */\n      tag_418\n        /* \"#utility.yul\":20116:20119   */\n      dup3\n        /* \"#utility.yul\":20027:20120   */\n      tag_215\n      jump\t// in\n    tag_418:\n        /* \"#utility.yul\":20145:20147   */\n      0x20\n        /* \"#utility.yul\":20140:20143   */\n      dup3\n        /* \"#utility.yul\":20136:20148   */\n      add\n        /* \"#utility.yul\":20129:20148   */\n      swap1\n      pop\n        /* \"#utility.yul\":19788:20154   */\n      swap2\n      swap1\n      pop\n      jump\t// out\n        /* \"#utility.yul\":20160:20579   */\n    tag_147:\n        /* \"#utility.yul\":20326:20330   */\n      0x00\n        /* \"#utility.yul\":20364:20366   */\n      0x20\n        /* \"#utility.yul\":20353:20362   */\n      dup3\n        /* \"#utility.yul\":20349:20367   */\n      add\n        /* \"#utility.yul\":20341:20367   */\n      swap1\n      pop\n        /* \"#utility.yul\":20413:20422   */\n      dup2\n        /* \"#utility.yul\":20407:20411   */\n      dup2\n        /* \"#utility.yul\":20403:20423   */\n      sub\n        /* \"#utility.yul\":20399:20400   */\n      0x00\n        /* \"#utility.yul\":20388:20397   */\n      dup4\n        /* \"#utility.yul\":20384:20401   */\n      add\n        /* \"#utility.yul\":20377:20424   */\n      mstore\n        /* \"#utility.yul\":20441:20572   */\n      tag_420\n        /* \"#utility.yul\":20567:20571   */\n      dup2\n        /* \"#utility.yul\":20441:20572   */\n      tag_216\n      jump\t// in\n    tag_420:\n        /* \"#utility.yul\":20433:20572   */\n      swap1\n      pop\n        /* \"#utility.yul\":20160:20579   */\n      swap2\n      swap1\n      pop\n      jump\t// out\n        /* \"#utility.yul\":20585:20732   */\n    tag_217:\n        /* \"#utility.yul\":20686:20697   */\n      0x00\n        /* \"#utility.yul\":20723:20726   */\n      dup2\n        /* \"#utility.yul\":20708:20726   */\n      swap1\n      pop\n        /* \"#utility.yul\":20585:20732   */\n      swap3\n      swap2\n      pop\n      pop\n      jump\t// out\n        /* \"#utility.yul\":20760:21630   */\n    tag_218:\n        /* \"#utility.yul\":20861:20864   */\n      0x00\n        /* \"#utility.yul\":20898:20903   */\n      dup2\n        /* \"#utility.yul\":20892:20904   */\n      sload\n        /* \"#utility.yul\":20927:20963   */\n      tag_423\n        /* \"#utility.yul\":20953:20962   */\n      dup2\n        /* \"#utility.yul\":20927:20963   */\n      tag_91\n      jump\t// in\n    tag_423:\n        /* \"#utility.yul\":20979:21067   */\n      tag_424\n        /* \"#utility.yul\":21060:21066   */\n      dup2\n        /* \"#utility.yul\":21055:21058   */\n      dup7\n        /* \"#utility.yul\":20979:21067   */\n      tag_217\n      jump\t// in\n    tag_424:\n        /* \"#utility.yul\":20972:21067   */\n      swap5\n      pop\n        /* \"#utility.yul\":21098:21099   */\n      0x01\n        /* \"#utility.yul\":21087:21096   */\n      dup3\n        /* \"#utility.yul\":21083:21100   */\n      and\n        /* \"#utility.yul\":21114:21115   */\n      0x00\n        /* \"#utility.yul\":21109:21275   */\n      dup2\n      eq\n      tag_426\n      jumpi\n        /* \"#utility.yul\":21289:21290   */\n      0x01\n        /* \"#utility.yul\":21284:21624   */\n      dup2\n      eq\n      tag_427\n      jumpi\n        /* \"#utility.yul\":21076:21624   */\n      jump(tag_425)\n        /* \"#utility.yul\":21109:21275   */\n    tag_426:\n        /* \"#utility.yul\":21193:21197   */\n      0xff\n        /* \"#utility.yul\":21189:21198   */\n      not\n        /* \"#utility.yul\":21178:21187   */\n      dup4\n        /* \"#utility.yul\":21174:21199   */\n      and\n        /* \"#utility.yul\":21169:21172   */\n      dup7\n        /* \"#utility.yul\":21162:21200   */\n      mstore\n        /* \"#utility.yul\":21255:21261   */\n      dup2\n        /* \"#utility.yul\":21248:21262   */\n      iszero\n        /* \"#utility.yul\":21241:21263   */\n      iszero\n        /* \"#utility.yul\":21233:21239   */\n      dup3\n        /* \"#utility.yul\":21229:21264   */\n      mul\n        /* \"#utility.yul\":21224:21227   */\n      dup7\n        /* \"#utility.yul\":21220:21265   */\n      add\n        /* \"#utility.yul\":21213:21265   */\n      swap4\n      pop\n        /* \"#utility.yul\":21109:21275   */\n      jump(tag_425)\n        /* \"#utility.yul\":21284:21624   */\n    tag_427:\n        /* \"#utility.yul\":21351:21388   */\n      tag_428\n        /* \"#utility.yul\":21382:21387   */\n      dup6\n        /* \"#utility.yul\":21351:21388   */\n      tag_196\n      jump\t// in\n    tag_428:\n        /* \"#utility.yul\":21410:21411   */\n      0x00\n        /* \"#utility.yul\":21424:21578   */\n    tag_429:\n        /* \"#utility.yul\":21438:21444   */\n      dup4\n        /* \"#utility.yul\":21435:21436   */\n      dup2\n        /* \"#utility.yul\":21432:21445   */\n      lt\n        /* \"#utility.yul\":21424:21578   */\n      iszero\n      tag_431\n      jumpi\n        /* \"#utility.yul\":21512:21519   */\n      dup2\n        /* \"#utility.yul\":21506:21520   */\n      sload\n        /* \"#utility.yul\":21502:21503   */\n      dup2\n        /* \"#utility.yul\":21497:21500   */\n      dup10\n        /* \"#utility.yul\":21493:21504   */\n      add\n        /* \"#utility.yul\":21486:21521   */\n      mstore\n        /* \"#utility.yul\":21562:21563   */\n      0x01\n        /* \"#utility.yul\":21553:21560   */\n      dup3\n        /* \"#utility.yul\":21549:21564   */\n      add\n        /* \"#utility.yul\":21538:21564   */\n      swap2\n      pop\n        /* \"#utility.yul\":21460:21464   */\n      0x20\n        /* \"#utility.yul\":21457:21458   */\n      dup2\n        /* \"#utility.yul\":21453:21465   */\n      add\n        /* \"#utility.yul\":21448:21465   */\n      swap1\n      pop\n        /* \"#utility.yul\":21424:21578   */\n      jump(tag_429)\n    tag_431:\n        /* \"#utility.yul\":21607:21613   */\n      dup4\n        /* \"#utility.yul\":21602:21605   */\n      dup9\n        /* \"#utility.yul\":21598:21614   */\n      add\n        /* \"#utility.yul\":21591:21614   */\n      swap6\n      pop\n        /* \"#utility.yul\":21291:21624   */\n      pop\n      pop\n        /* \"#utility.yul\":21076:21624   */\n    tag_425:\n      pop\n        /* \"#utility.yul\":20865:21630   */\n      pop\n      pop\n        /* \"#utility.yul\":20760:21630   */\n      swap3\n      swap2\n      pop\n      pop\n      jump\t// out\n        /* \"#utility.yul\":21636:21901   */\n    tag_149:\n        /* \"#utility.yul\":21763:21766   */\n      0x00\n        /* \"#utility.yul\":21785:21875   */\n      tag_433\n        /* \"#utility.yul\":21871:21874   */\n      dup3\n        /* \"#utility.yul\":21862:21868   */\n      dup5\n        /* \"#utility.yul\":21785:21875   */\n      tag_218\n      jump\t// in\n    tag_433:\n        /* \"#utility.yul\":21778:21875   */\n      swap2\n      pop\n        /* \"#utility.yul\":21892:21895   */\n      dup2\n        /* \"#utility.yul\":21885:21895   */\n      swap1\n      pop\n        /* \"#utility.yul\":21636:21901   */\n      swap3\n      swap2\n      pop\n      pop\n      jump\t// out\n        /* \"#utility.yul\":21907:22085   */\n    tag_219:\n        /* \"#utility.yul\":22047:22077   */\n      0x5472616e73616374696f6e20657865637574696f6e206661696c656400000000\n        /* \"#utility.yul\":22043:22044   */\n      0x00\n        /* \"#utility.yul\":22035:22041   */\n      dup3\n        /* \"#utility.yul\":22031:22045   */\n      add\n        /* \"#utility.yul\":22024:22078   */\n      mstore\n        /* \"#utility.yul\":21907:22085   */\n      pop\n      jump\t// out\n        /* \"#utility.yul\":22091:22457   */\n    tag_220:\n        /* \"#utility.yul\":22233:22236   */\n      0x00\n        /* \"#utility.yul\":22254:22321   */\n      tag_436\n        /* \"#utility.yul\":22318:22320   */\n      0x1c\n        /* \"#utility.yul\":22313:22316   */\n      dup4\n        /* \"#utility.yul\":22254:22321   */\n      tag_186\n      jump\t// in\n    tag_436:\n        /* \"#utility.yul\":22247:22321   */\n      swap2\n      pop\n        /* \"#utility.yul\":22330:22423   */\n      tag_437\n        /* \"#utility.yul\":22419:22422   */\n      dup3\n        /* \"#utility.yul\":22330:22423   */\n      tag_219\n      jump\t// in\n    tag_437:\n        /* \"#utility.yul\":22448:22450   */\n      0x20\n        /* \"#utility.yul\":22443:22446   */\n      dup3\n        /* \"#utility.yul\":22439:22451   */\n      add\n        /* \"#utility.yul\":22432:22451   */\n      swap1\n      pop\n        /* \"#utility.yul\":22091:22457   */\n      swap2\n      swap1\n      pop\n      jump\t// out\n        /* \"#utility.yul\":22463:22882   */\n    tag_155:\n        /* \"#utility.yul\":22629:22633   */\n      0x00\n        /* \"#utility.yul\":22667:22669   */\n      0x20\n        /* \"#utility.yul\":22656:22665   */\n      dup3\n        /* \"#utility.yul\":22652:22670   */\n      add\n        /* \"#utility.yul\":22644:22670   */\n      swap1\n      pop\n        /* \"#utility.yul\":22716:22725   */\n      dup2\n        /* \"#utility.yul\":22710:22714   */\n      dup2\n        /* \"#utility.yul\":22706:22726   */\n      sub\n        /* \"#utility.yul\":22702:22703   */\n      0x00\n        /* \"#utility.yul\":22691:22700   */\n      dup4\n        /* \"#utility.yul\":22687:22704   */\n      add\n        /* \"#utility.yul\":22680:22727   */\n      mstore\n        /* \"#utility.yul\":22744:22875   */\n      tag_439\n        /* \"#utility.yul\":22870:22874   */\n      dup2\n        /* \"#utility.yul\":22744:22875   */\n      tag_220\n      jump\t// in\n    tag_439:\n        /* \"#utility.yul\":22736:22875   */\n      swap1\n      pop\n        /* \"#utility.yul\":22463:22882   */\n      swap2\n      swap1\n      pop\n      jump\t// out\n\n    auxdata: 0xa264697066735822122025c4ffd0e0fc2dfd7a66e971e5f347e129074059dd0924e646233ab121fa116d64736f6c634300081a0033\n}\n",
				"bytecode": {
					"linkReferences": {},
					"object": "608060405234801561000f575f80fd5b5060405161232338038061232383398181016040528101906100319190610437565b5f825111610074576040517f08c379a000000000000000000000000000000000000000000000000000000000815260040161006b906104eb565b60405180910390fd5b5f81118015610084575081518111155b6100c3576040517f08c379a00000000000000000000000000000000000000000000000000000000081526004016100ba90610553565b60405180910390fd5b815f90805190602001906100d89291906101a7565b50806002819055505f5b8251811015610166576001805f85848151811061010257610101610571565b5b602002602001015173ffffffffffffffffffffffffffffffffffffffff1673ffffffffffffffffffffffffffffffffffffffff1681526020019081526020015f205f6101000a81548160ff02191690831515021790555080806001019150506100e2565b507f7699bae868b89dd6a1d348a18c33d02d0b7cdcb2f598af9eacc0d5060e779b588282604051610198929190610664565b60405180910390a15050610692565b828054828255905f5260205f2090810192821561021d579160200282015b8281111561021c578251825f6101000a81548173ffffffffffffffffffffffffffffffffffffffff021916908373ffffffffffffffffffffffffffffffffffffffff160217905550916020019190600101906101c5565b5b50905061022a919061022e565b5090565b5b80821115610245575f815f90555060010161022f565b5090565b5f604051905090565b5f80fd5b5f80fd5b5f80fd5b5f601f19601f8301169050919050565b7f4e487b71000000000000000000000000000000000000000000000000000000005f52604160045260245ffd5b6102a48261025e565b810181811067ffffffffffffffff821117156102c3576102c261026e565b5b80604052505050565b5f6102d5610249565b90506102e1828261029b565b919050565b5f67ffffffffffffffff821115610300576102ff61026e565b5b602082029050602081019050919050565b5f80fd5b5f73ffffffffffffffffffffffffffffffffffffffff82169050919050565b5f61033e82610315565b9050919050565b61034e81610334565b8114610358575f80fd5b50565b5f8151905061036981610345565b92915050565b5f61038161037c846102e6565b6102cc565b905080838252602082019050602084028301858111156103a4576103a3610311565b5b835b818110156103cd57806103b9888261035b565b8452602084019350506020810190506103a6565b5050509392505050565b5f82601f8301126103eb576103ea61025a565b5b81516103fb84826020860161036f565b91505092915050565b5f819050919050565b61041681610404565b8114610420575f80fd5b50565b5f815190506104318161040d565b92915050565b5f806040838503121561044d5761044c610252565b5b5f83015167ffffffffffffffff81111561046a57610469610256565b5b610476858286016103d7565b925050602061048785828601610423565b9150509250929050565b5f82825260208201905092915050565b7f4174206c65617374206f6e65206f776e657220697320726571756972656400005f82015250565b5f6104d5601e83610491565b91506104e0826104a1565b602082019050919050565b5f6020820190508181035f830152610502816104c9565b9050919050565b7f496e76616c6964207468726573686f6c640000000000000000000000000000005f82015250565b5f61053d601183610491565b915061054882610509565b602082019050919050565b5f6020820190508181035f83015261056a81610531565b9050919050565b7f4e487b71000000000000000000000000000000000000000000000000000000005f52603260045260245ffd5b5f81519050919050565b5f82825260208201905092915050565b5f819050602082019050919050565b6105d081610334565b82525050565b5f6105e183836105c7565b60208301905092915050565b5f602082019050919050565b5f6106038261059e565b61060d81856105a8565b9350610618836105b8565b805f5b8381101561064857815161062f88826105d6565b975061063a836105ed565b92505060018101905061061b565b5085935050505092915050565b61065e81610404565b82525050565b5f6040820190508181035f83015261067c81856105f9565b905061068b6020830184610655565b9392505050565b611c848061069f5f395ff3fe608060405234801561000f575f80fd5b50600436106100f3575f3560e01c8063694e80c311610095578063b77bf60011610064578063b77bf6001461029d578063c01a8c84146102bb578063c6427474146102d7578063ee22610b146102f3576100f3565b8063694e80c3146102135780637065cb481461022f5780639ace38c21461024b578063a0e67e2b1461027f576100f3565b80632f54bf6e116100d15780632f54bf6e1461016157806333ea3dc8146101915780633411c81c146101c557806342cde4e8146101f5576100f3565b8063025e7c27146100f7578063173825d9146101275780632e7700f014610143575b5f80fd5b610111600480360381019061010c919061111e565b61030f565b60405161011e9190611188565b60405180910390f35b610141600480360381019061013c91906111cb565b610349565b005b61014b61040c565b6040516101589190611205565b60405180910390f35b61017b600480360381019061017691906111cb565b610415565b6040516101889190611238565b60405180910390f35b6101ab60048036038101906101a6919061111e565b610432565b6040516101bc9594939291906112c1565b60405180910390f35b6101df60048036038101906101da9190611319565b61052c565b6040516101ec9190611238565b60405180910390f35b6101fd610556565b60405161020a9190611205565b60405180910390f35b61022d6004803603810190610228919061111e565b61055c565b005b610249600480360381019061024491906111cb565b61061f565b005b6102656004803603810190610260919061111e565b6106e2565b6040516102769594939291906112c1565b60405180910390f35b6102876107c5565b604051610294919061140e565b60405180910390f35b6102a561084f565b6040516102b29190611205565b60405180910390f35b6102d560048036038101906102d0919061111e565b610855565b005b6102f160048036038101906102ec919061148f565b610aeb565b005b61030d6004803603810190610308919061111e565b610de4565b005b5f818154811061031d575f80fd5b905f5260205f20015f915054906101000a900473ffffffffffffffffffffffffffffffffffffffff1681565b60015f3373ffffffffffffffffffffffffffffffffffffffff1673ffffffffffffffffffffffffffffffffffffffff1681526020019081526020015f205f9054906101000a900460ff166103d2576040517f08c379a00000000000000000000000000000000000000000000000000000000081526004016103c990611580565b60405180910390fd5b7f3a7bd490a3f9c025dee372ee5627d300661929bff2a07154983f2154734a3784816040516104019190611188565b60405180910390a150565b5f600454905090565b6001602052805f5260405f205f915054906101000a900460ff1681565b5f8060605f805f60035f8881526020019081526020015f209050805f015f9054906101000a900473ffffffffffffffffffffffffffffffffffffffff16816001015482600201836003015f9054906101000a900460ff16846004015482805461049a906115cb565b80601f01602080910402602001604051908101604052809291908181526020018280546104c6906115cb565b80156105115780601f106104e857610100808354040283529160200191610511565b820191905f5260205f20905b8154815290600101906020018083116104f457829003601f168201915b50505050509250955095509550955095505091939590929450565b6005602052815f5260405f20602052805f5260405f205f915091509054906101000a900460ff1681565b60025481565b60015f3373ffffffffffffffffffffffffffffffffffffffff1673ffffffffffffffffffffffffffffffffffffffff1681526020019081526020015f205f9054906101000a900460ff166105e5576040517f08c379a00000000000000000000000000000000000000000000000000000000081526004016105dc90611580565b60405180910390fd5b7f266f230c4a910ad4e6bf12e62e3fe760f4156f8ad8b5fe491abf242b0766c3f9816040516106149190611205565b60405180910390a150565b60015f3373ffffffffffffffffffffffffffffffffffffffff1673ffffffffffffffffffffffffffffffffffffffff1681526020019081526020015f205f9054906101000a900460ff166106a8576040517f08c379a000000000000000000000000000000000000000000000000000000000815260040161069f90611580565b60405180910390fd5b7f47ff96e4cb303a209eba96319c10eb9ca4448c25ff1f71e16d3026eae00661ac816040516106d79190611188565b60405180910390a150565b6003602052805f5260405f205f91509050805f015f9054906101000a900473ffffffffffffffffffffffffffffffffffffffff169080600101549080600201805461072c906115cb565b80601f0160208091040260200160405190810160405280929190818152602001828054610758906115cb565b80156107a35780601f1061077a576101008083540402835291602001916107a3565b820191905f5260205f20905b81548152906001019060200180831161078657829003601f168201915b505050505090806003015f9054906101000a900460ff16908060040154905085565b60605f80548060200260200160405190810160405280929190818152602001828054801561084557602002820191905f5260205f20905b815f9054906101000a900473ffffffffffffffffffffffffffffffffffffffff1673ffffffffffffffffffffffffffffffffffffffff16815260200190600101908083116107fc575b5050505050905090565b60045481565b60015f3373ffffffffffffffffffffffffffffffffffffffff1673ffffffffffffffffffffffffffffffffffffffff1681526020019081526020015f205f9054906101000a900460ff166108de576040517f08c379a00000000000000000000000000000000000000000000000000000000081526004016108d590611580565b60405180910390fd5b5f73ffffffffffffffffffffffffffffffffffffffff1660035f8381526020019081526020015f205f015f9054906101000a900473ffffffffffffffffffffffffffffffffffffffff1673ffffffffffffffffffffffffffffffffffffffff160361097e576040517f08c379a000000000000000000000000000000000000000000000000000000000815260040161097590611645565b60405180910390fd5b60055f8281526020019081526020015f205f3373ffffffffffffffffffffffffffffffffffffffff1673ffffffffffffffffffffffffffffffffffffffff1681526020019081526020015f205f9054906101000a900460ff1615610a17576040517f08c379a0000000000000000000000000000000000000000000000000000000008152600401610a0e906116d3565b60405180910390fd5b600160055f8381526020019081526020015f205f3373ffffffffffffffffffffffffffffffffffffffff1673ffffffffffffffffffffffffffffffffffffffff1681526020019081526020015f205f6101000a81548160ff02191690831515021790555060035f8281526020019081526020015f206004015f815480929190610a9f9061171e565b91905055503373ffffffffffffffffffffffffffffffffffffffff16817f15c2f311c9e0f53b50388279894aeff029a3457884a6601e924fca879e12adcc60405160405180910390a350565b60015f3373ffffffffffffffffffffffffffffffffffffffff1673ffffffffffffffffffffffffffffffffffffffff1681526020019081526020015f205f9054906101000a900460ff16610b74576040517f08c379a0000000000000000000000000000000000000000000000000000000008152600401610b6b90611580565b60405180910390fd5b6040518060a001604052808573ffffffffffffffffffffffffffffffffffffffff16815260200184815260200183838080601f0160208091040260200160405190810160405280939291908181526020018383808284375f81840152601f19601f8201169050808301925050505050505081526020015f151581526020015f81525060035f60045481526020019081526020015f205f820151815f015f6101000a81548173ffffffffffffffffffffffffffffffffffffffff021916908373ffffffffffffffffffffffffffffffffffffffff160217905550602082015181600101556040820151816002019081610c6c919061192f565b506060820151816003015f6101000a81548160ff02191690831515021790555060808201518160040155905050600160055f60045481526020019081526020015f205f3373ffffffffffffffffffffffffffffffffffffffff1673ffffffffffffffffffffffffffffffffffffffff1681526020019081526020015f205f6101000a81548160ff02191690831515021790555060035f60045481526020019081526020015f206004015f815480929190610d259061171e565b91905055503373ffffffffffffffffffffffffffffffffffffffff166004547ff13a7a4144a3232fd093fca16be52a8223bad74cee86d5fa8966c7061e75bfd386868686604051610d799493929190611a38565b60405180910390a33373ffffffffffffffffffffffffffffffffffffffff166004547f15c2f311c9e0f53b50388279894aeff029a3457884a6601e924fca879e12adcc60405160405180910390a360045f815480929190610dd99061171e565b919050555050505050565b60015f3373ffffffffffffffffffffffffffffffffffffffff1673ffffffffffffffffffffffffffffffffffffffff1681526020019081526020015f205f9054906101000a900460ff16610e6d576040517f08c379a0000000000000000000000000000000000000000000000000000000008152600401610e6490611580565b60405180910390fd5b5f60035f8381526020019081526020015f2090505f73ffffffffffffffffffffffffffffffffffffffff16815f015f9054906101000a900473ffffffffffffffffffffffffffffffffffffffff1673ffffffffffffffffffffffffffffffffffffffff1603610f11576040517f08c379a0000000000000000000000000000000000000000000000000000000008152600401610f0890611645565b60405180910390fd5b806003015f9054906101000a900460ff1615610f62576040517f08c379a0000000000000000000000000000000000000000000000000000000008152600401610f5990611ac0565b60405180910390fd5b60025481600401541015610fab576040517f08c379a0000000000000000000000000000000000000000000000000000000008152600401610fa290611b28565b60405180910390fd5b5f815f015f9054906101000a900473ffffffffffffffffffffffffffffffffffffffff1673ffffffffffffffffffffffffffffffffffffffff16826001015483600201604051610ffb9190611bd0565b5f6040518083038185875af1925050503d805f8114611035576040519150601f19603f3d011682016040523d82523d5f602084013e61103a565b606091505b505090508061107e576040517f08c379a000000000000000000000000000000000000000000000000000000000815260040161107590611c30565b60405180910390fd5b6001826003015f6101000a81548160ff0219169083151502179055503373ffffffffffffffffffffffffffffffffffffffff16837fefc13bdcf58f184ea7cae26b499fb33b539e01d0197cea456f3ada289b8cf19b60405160405180910390a3505050565b5f80fd5b5f80fd5b5f819050919050565b6110fd816110eb565b8114611107575f80fd5b50565b5f81359050611118816110f4565b92915050565b5f60208284031215611133576111326110e3565b5b5f6111408482850161110a565b91505092915050565b5f73ffffffffffffffffffffffffffffffffffffffff82169050919050565b5f61117282611149565b9050919050565b61118281611168565b82525050565b5f60208201905061119b5f830184611179565b92915050565b6111aa81611168565b81146111b4575f80fd5b50565b5f813590506111c5816111a1565b92915050565b5f602082840312156111e0576111df6110e3565b5b5f6111ed848285016111b7565b91505092915050565b6111ff816110eb565b82525050565b5f6020820190506112185f8301846111f6565b92915050565b5f8115159050919050565b6112328161121e565b82525050565b5f60208201905061124b5f830184611229565b92915050565b5f81519050919050565b5f82825260208201905092915050565b8281835e5f83830152505050565b5f601f19601f8301169050919050565b5f61129382611251565b61129d818561125b565b93506112ad81856020860161126b565b6112b681611279565b840191505092915050565b5f60a0820190506112d45f830188611179565b6112e160208301876111f6565b81810360408301526112f38186611289565b90506113026060830185611229565b61130f60808301846111f6565b9695505050505050565b5f806040838503121561132f5761132e6110e3565b5b5f61133c8582860161110a565b925050602061134d858286016111b7565b9150509250929050565b5f81519050919050565b5f82825260208201905092915050565b5f819050602082019050919050565b61138981611168565b82525050565b5f61139a8383611380565b60208301905092915050565b5f602082019050919050565b5f6113bc82611357565b6113c68185611361565b93506113d183611371565b805f5b838110156114015781516113e8888261138f565b97506113f3836113a6565b9250506001810190506113d4565b5085935050505092915050565b5f6020820190508181035f83015261142681846113b2565b905092915050565b5f80fd5b5f80fd5b5f80fd5b5f8083601f84011261144f5761144e61142e565b5b8235905067ffffffffffffffff81111561146c5761146b611432565b5b60208301915083600182028301111561148857611487611436565b5b9250929050565b5f805f80606085870312156114a7576114a66110e3565b5b5f6114b4878288016111b7565b94505060206114c58782880161110a565b935050604085013567ffffffffffffffff8111156114e6576114e56110e7565b5b6114f28782880161143a565b925092505092959194509250565b5f82825260208201905092915050565b7f4f6e6c79206f776e6572732063616e2063616c6c20746869732066756e6374695f8201527f6f6e000000000000000000000000000000000000000000000000000000000000602082015250565b5f61156a602283611500565b915061157582611510565b604082019050919050565b5f6020820190508181035f8301526115978161155e565b9050919050565b7f4e487b71000000000000000000000000000000000000000000000000000000005f52602260045260245ffd5b5f60028204905060018216806115e257607f821691505b6020821081036115f5576115f461159e565b5b50919050565b7f5472616e73616374696f6e20646f6573206e6f742065786973740000000000005f82015250565b5f61162f601a83611500565b915061163a826115fb565b602082019050919050565b5f6020820190508181035f83015261165c81611623565b9050919050565b7f5472616e73616374696f6e20616c726561647920636f6e6669726d65642062795f8201527f2074686973206f776e6572000000000000000000000000000000000000000000602082015250565b5f6116bd602b83611500565b91506116c882611663565b604082019050919050565b5f6020820190508181035f8301526116ea816116b1565b9050919050565b7f4e487b71000000000000000000000000000000000000000000000000000000005f52601160045260245ffd5b5f611728826110eb565b91507fffffffffffffffffffffffffffffffffffffffffffffffffffffffffffffffff820361175a576117596116f1565b5b600182019050919050565b7f4e487b71000000000000000000000000000000000000000000000000000000005f52604160045260245ffd5b5f819050815f5260205f209050919050565b5f6020601f8301049050919050565b5f82821b905092915050565b5f600883026117ee7fffffffffffffffffffffffffffffffffffffffffffffffffffffffffffffffff826117b3565b6117f886836117b3565b95508019841693508086168417925050509392505050565b5f819050919050565b5f61183361182e611829846110eb565b611810565b6110eb565b9050919050565b5f819050919050565b61184c83611819565b6118606118588261183a565b8484546117bf565b825550505050565b5f90565b611874611868565b61187f818484611843565b505050565b5b818110156118a2576118975f8261186c565b600181019050611885565b5050565b601f8211156118e7576118b881611792565b6118c1846117a4565b810160208510156118d0578190505b6118e46118dc856117a4565b830182611884565b50505b505050565b5f82821c905092915050565b5f6119075f19846008026118ec565b1980831691505092915050565b5f61191f83836118f8565b9150826002028217905092915050565b61193882611251565b67ffffffffffffffff81111561195157611950611765565b5b61195b82546115cb565b6119668282856118a6565b5f60209050601f831160018114611997575f8415611985578287015190505b61198f8582611914565b8655506119f6565b601f1984166119a586611792565b5f5b828110156119cc578489015182556001820191506020850194506020810190506119a7565b868310156119e957848901516119e5601f8916826118f8565b8355505b6001600288020188555050505b505050505050565b828183375f83830152505050565b5f611a17838561125b565b9350611a248385846119fe565b611a2d83611279565b840190509392505050565b5f606082019050611a4b5f830187611179565b611a5860208301866111f6565b8181036040830152611a6b818486611a0c565b905095945050505050565b7f5472616e73616374696f6e20616c7265616479206578656375746564000000005f82015250565b5f611aaa601c83611500565b9150611ab582611a76565b602082019050919050565b5f6020820190508181035f830152611ad781611a9e565b9050919050565b7f4e6f7420656e6f75676820636f6e6669726d6174696f6e7300000000000000005f82015250565b5f611b12601883611500565b9150611b1d82611ade565b602082019050919050565b5f6020820190508181035f830152611b3f81611b06565b9050919050565b5f81905092915050565b5f8154611b5c816115cb565b611b668186611b46565b9450600182165f8114611b805760018114611b9557611bc7565b60ff1983168652811515820286019350611bc7565b611b9e85611792565b5f5b83811015611bbf57815481890152600182019150602081019050611ba0565b838801955050505b50505092915050565b5f611bdb8284611b50565b915081905092915050565b7f5472616e73616374696f6e20657865637574696f6e206661696c6564000000005f82015250565b5f611c1a601c83611500565b9150611c2582611be6565b602082019050919050565b5f6020820190508181035f830152611c4781611c0e565b905091905056fea264697066735822122025c4ffd0e0fc2dfd7a66e971e5f347e129074059dd0924e646233ab121fa116d64736f6c634300081a0033",
					"opcodes": "PUSH1 0x80 PUSH1 0x40 MSTORE CALLVALUE DUP1 ISZERO PUSH2 0xF JUMPI PUSH0 DUP1 REVERT JUMPDEST POP PUSH1 0x40 MLOAD PUSH2 0x2323 CODESIZE SUB DUP1 PUSH2 0x2323 DUP4 CODECOPY DUP2 DUP2 ADD PUSH1 0x40 MSTORE DUP2 ADD SWAP1 PUSH2 0x31 SWAP2 SWAP1 PUSH2 0x437 JUMP JUMPDEST PUSH0 DUP3 MLOAD GT PUSH2 0x74 JUMPI PUSH1 0x40 MLOAD PUSH32 0x8C379A000000000000000000000000000000000000000000000000000000000 DUP2 MSTORE PUSH1 0x4 ADD PUSH2 0x6B SWAP1 PUSH2 0x4EB JUMP JUMPDEST PUSH1 0x40 MLOAD DUP1 SWAP2 SUB SWAP1 REVERT JUMPDEST PUSH0 DUP2 GT DUP1 ISZERO PUSH2 0x84 JUMPI POP DUP2 MLOAD DUP2 GT ISZERO JUMPDEST PUSH2 0xC3 JUMPI PUSH1 0x40 MLOAD PUSH32 0x8C379A000000000000000000000000000000000000000000000000000000000 DUP2 MSTORE PUSH1 0x4 ADD PUSH2 0xBA SWAP1 PUSH2 0x553 JUMP JUMPDEST PUSH1 0x40 MLOAD DUP1 SWAP2 SUB SWAP1 REVERT JUMPDEST DUP2 PUSH0 SWAP1 DUP1 MLOAD SWAP1 PUSH1 0x20 ADD SWAP1 PUSH2 0xD8 SWAP3 SWAP2 SWAP1 PUSH2 0x1A7 JUMP JUMPDEST POP DUP1 PUSH1 0x2 DUP2 SWAP1 SSTORE POP PUSH0 JUMPDEST DUP3 MLOAD DUP2 LT ISZERO PUSH2 0x166 JUMPI PUSH1 0x1 DUP1 PUSH0 DUP6 DUP5 DUP2 MLOAD DUP2 LT PUSH2 0x102 JUMPI PUSH2 0x101 PUSH2 0x571 JUMP JUMPDEST JUMPDEST PUSH1 0x20 MUL PUSH1 0x20 ADD ADD MLOAD PUSH20 0xFFFFFFFFFFFFFFFFFFFFFFFFFFFFFFFFFFFFFFFF AND PUSH20 0xFFFFFFFFFFFFFFFFFFFFFFFFFFFFFFFFFFFFFFFF AND DUP2 MSTORE PUSH1 0x20 ADD SWAP1 DUP2 MSTORE PUSH1 0x20 ADD PUSH0 KECCAK256 PUSH0 PUSH2 0x100 EXP DUP2 SLOAD DUP2 PUSH1 0xFF MUL NOT AND SWAP1 DUP4 ISZERO ISZERO MUL OR SWAP1 SSTORE POP DUP1 DUP1 PUSH1 0x1 ADD SWAP2 POP POP PUSH2 0xE2 JUMP JUMPDEST POP PUSH32 0x7699BAE868B89DD6A1D348A18C33D02D0B7CDCB2F598AF9EACC0D5060E779B58 DUP3 DUP3 PUSH1 0x40 MLOAD PUSH2 0x198 SWAP3 SWAP2 SWAP1 PUSH2 0x664 JUMP JUMPDEST PUSH1 0x40 MLOAD DUP1 SWAP2 SUB SWAP1 LOG1 POP POP PUSH2 0x692 JUMP JUMPDEST DUP3 DUP1 SLOAD DUP3 DUP3 SSTORE SWAP1 PUSH0 MSTORE PUSH1 0x20 PUSH0 KECCAK256 SWAP1 DUP2 ADD SWAP3 DUP3 ISZERO PUSH2 0x21D JUMPI SWAP2 PUSH1 0x20 MUL DUP3 ADD JUMPDEST DUP3 DUP2 GT ISZERO PUSH2 0x21C JUMPI DUP3 MLOAD DUP3 PUSH0 PUSH2 0x100 EXP DUP2 SLOAD DUP2 PUSH20 0xFFFFFFFFFFFFFFFFFFFFFFFFFFFFFFFFFFFFFFFF MUL NOT AND SWAP1 DUP4 PUSH20 0xFFFFFFFFFFFFFFFFFFFFFFFFFFFFFFFFFFFFFFFF AND MUL OR SWAP1 SSTORE POP SWAP2 PUSH1 0x20 ADD SWAP2 SWAP1 PUSH1 0x1 ADD SWAP1 PUSH2 0x1C5 JUMP JUMPDEST JUMPDEST POP SWAP1 POP PUSH2 0x22A SWAP2 SWAP1 PUSH2 0x22E JUMP JUMPDEST POP SWAP1 JUMP JUMPDEST JUMPDEST DUP1 DUP3 GT ISZERO PUSH2 0x245 JUMPI PUSH0 DUP2 PUSH0 SWAP1 SSTORE POP PUSH1 0x1 ADD PUSH2 0x22F JUMP JUMPDEST POP SWAP1 JUMP JUMPDEST PUSH0 PUSH1 0x40 MLOAD SWAP1 POP SWAP1 JUMP JUMPDEST PUSH0 DUP1 REVERT JUMPDEST PUSH0 DUP1 REVERT JUMPDEST PUSH0 DUP1 REVERT JUMPDEST PUSH0 PUSH1 0x1F NOT PUSH1 0x1F DUP4 ADD AND SWAP1 POP SWAP2 SWAP1 POP JUMP JUMPDEST PUSH32 0x4E487B7100000000000000000000000000000000000000000000000000000000 PUSH0 MSTORE PUSH1 0x41 PUSH1 0x4 MSTORE PUSH1 0x24 PUSH0 REVERT JUMPDEST PUSH2 0x2A4 DUP3 PUSH2 0x25E JUMP JUMPDEST DUP2 ADD DUP2 DUP2 LT PUSH8 0xFFFFFFFFFFFFFFFF DUP3 GT OR ISZERO PUSH2 0x2C3 JUMPI PUSH2 0x2C2 PUSH2 0x26E JUMP JUMPDEST JUMPDEST DUP1 PUSH1 0x40 MSTORE POP POP POP JUMP JUMPDEST PUSH0 PUSH2 0x2D5 PUSH2 0x249 JUMP JUMPDEST SWAP1 POP PUSH2 0x2E1 DUP3 DUP3 PUSH2 0x29B JUMP JUMPDEST SWAP2 SWAP1 POP JUMP JUMPDEST PUSH0 PUSH8 0xFFFFFFFFFFFFFFFF DUP3 GT ISZERO PUSH2 0x300 JUMPI PUSH2 0x2FF PUSH2 0x26E JUMP JUMPDEST JUMPDEST PUSH1 0x20 DUP3 MUL SWAP1 POP PUSH1 0x20 DUP2 ADD SWAP1 POP SWAP2 SWAP1 POP JUMP JUMPDEST PUSH0 DUP1 REVERT JUMPDEST PUSH0 PUSH20 0xFFFFFFFFFFFFFFFFFFFFFFFFFFFFFFFFFFFFFFFF DUP3 AND SWAP1 POP SWAP2 SWAP1 POP JUMP JUMPDEST PUSH0 PUSH2 0x33E DUP3 PUSH2 0x315 JUMP JUMPDEST SWAP1 POP SWAP2 SWAP1 POP JUMP JUMPDEST PUSH2 0x34E DUP2 PUSH2 0x334 JUMP JUMPDEST DUP2 EQ PUSH2 0x358 JUMPI PUSH0 DUP1 REVERT JUMPDEST POP JUMP JUMPDEST PUSH0 DUP2 MLOAD SWAP1 POP PUSH2 0x369 DUP2 PUSH2 0x345 JUMP JUMPDEST SWAP3 SWAP2 POP POP JUMP JUMPDEST PUSH0 PUSH2 0x381 PUSH2 0x37C DUP5 PUSH2 0x2E6 JUMP JUMPDEST PUSH2 0x2CC JUMP JUMPDEST SWAP1 POP DUP1 DUP4 DUP3 MSTORE PUSH1 0x20 DUP3 ADD SWAP1 POP PUSH1 0x20 DUP5 MUL DUP4 ADD DUP6 DUP2 GT ISZERO PUSH2 0x3A4 JUMPI PUSH2 0x3A3 PUSH2 0x311 JUMP JUMPDEST JUMPDEST DUP4 JUMPDEST DUP2 DUP2 LT ISZERO PUSH2 0x3CD JUMPI DUP1 PUSH2 0x3B9 DUP9 DUP3 PUSH2 0x35B JUMP JUMPDEST DUP5 MSTORE PUSH1 0x20 DUP5 ADD SWAP4 POP POP PUSH1 0x20 DUP2 ADD SWAP1 POP PUSH2 0x3A6 JUMP JUMPDEST POP POP POP SWAP4 SWAP3 POP POP POP JUMP JUMPDEST PUSH0 DUP3 PUSH1 0x1F DUP4 ADD SLT PUSH2 0x3EB JUMPI PUSH2 0x3EA PUSH2 0x25A JUMP JUMPDEST JUMPDEST DUP2 MLOAD PUSH2 0x3FB DUP5 DUP3 PUSH1 0x20 DUP7 ADD PUSH2 0x36F JUMP JUMPDEST SWAP2 POP POP SWAP3 SWAP2 POP POP JUMP JUMPDEST PUSH0 DUP2 SWAP1 POP SWAP2 SWAP1 POP JUMP JUMPDEST PUSH2 0x416 DUP2 PUSH2 0x404 JUMP JUMPDEST DUP2 EQ PUSH2 0x420 JUMPI PUSH0 DUP1 REVERT JUMPDEST POP JUMP JUMPDEST PUSH0 DUP2 MLOAD SWAP1 POP PUSH2 0x431 DUP2 PUSH2 0x40D JUMP JUMPDEST SWAP3 SWAP2 POP POP JUMP JUMPDEST PUSH0 DUP1 PUSH1 0x40 DUP4 DUP6 SUB SLT ISZERO PUSH2 0x44D JUMPI PUSH2 0x44C PUSH2 0x252 JUMP JUMPDEST JUMPDEST PUSH0 DUP4 ADD MLOAD PUSH8 0xFFFFFFFFFFFFFFFF DUP2 GT ISZERO PUSH2 0x46A JUMPI PUSH2 0x469 PUSH2 0x256 JUMP JUMPDEST JUMPDEST PUSH2 0x476 DUP6 DUP3 DUP7 ADD PUSH2 0x3D7 JUMP JUMPDEST SWAP3 POP POP PUSH1 0x20 PUSH2 0x487 DUP6 DUP3 DUP7 ADD PUSH2 0x423 JUMP JUMPDEST SWAP2 POP POP SWAP3 POP SWAP3 SWAP1 POP JUMP JUMPDEST PUSH0 DUP3 DUP3 MSTORE PUSH1 0x20 DUP3 ADD SWAP1 POP SWAP3 SWAP2 POP POP JUMP JUMPDEST PUSH32 0x4174206C65617374206F6E65206F776E65722069732072657175697265640000 PUSH0 DUP3 ADD MSTORE POP JUMP JUMPDEST PUSH0 PUSH2 0x4D5 PUSH1 0x1E DUP4 PUSH2 0x491 JUMP JUMPDEST SWAP2 POP PUSH2 0x4E0 DUP3 PUSH2 0x4A1 JUMP JUMPDEST PUSH1 0x20 DUP3 ADD SWAP1 POP SWAP2 SWAP1 POP JUMP JUMPDEST PUSH0 PUSH1 0x20 DUP3 ADD SWAP1 POP DUP2 DUP2 SUB PUSH0 DUP4 ADD MSTORE PUSH2 0x502 DUP2 PUSH2 0x4C9 JUMP JUMPDEST SWAP1 POP SWAP2 SWAP1 POP JUMP JUMPDEST PUSH32 0x496E76616C6964207468726573686F6C64000000000000000000000000000000 PUSH0 DUP3 ADD MSTORE POP JUMP JUMPDEST PUSH0 PUSH2 0x53D PUSH1 0x11 DUP4 PUSH2 0x491 JUMP JUMPDEST SWAP2 POP PUSH2 0x548 DUP3 PUSH2 0x509 JUMP JUMPDEST PUSH1 0x20 DUP3 ADD SWAP1 POP SWAP2 SWAP1 POP JUMP JUMPDEST PUSH0 PUSH1 0x20 DUP3 ADD SWAP1 POP DUP2 DUP2 SUB PUSH0 DUP4 ADD MSTORE PUSH2 0x56A DUP2 PUSH2 0x531 JUMP JUMPDEST SWAP1 POP SWAP2 SWAP1 POP JUMP JUMPDEST PUSH32 0x4E487B7100000000000000000000000000000000000000000000000000000000 PUSH0 MSTORE PUSH1 0x32 PUSH1 0x4 MSTORE PUSH1 0x24 PUSH0 REVERT JUMPDEST PUSH0 DUP2 MLOAD SWAP1 POP SWAP2 SWAP1 POP JUMP JUMPDEST PUSH0 DUP3 DUP3 MSTORE PUSH1 0x20 DUP3 ADD SWAP1 POP SWAP3 SWAP2 POP POP JUMP JUMPDEST PUSH0 DUP2 SWAP1 POP PUSH1 0x20 DUP3 ADD SWAP1 POP SWAP2 SWAP1 POP JUMP JUMPDEST PUSH2 0x5D0 DUP2 PUSH2 0x334 JUMP JUMPDEST DUP3 MSTORE POP POP JUMP JUMPDEST PUSH0 PUSH2 0x5E1 DUP4 DUP4 PUSH2 0x5C7 JUMP JUMPDEST PUSH1 0x20 DUP4 ADD SWAP1 POP SWAP3 SWAP2 POP POP JUMP JUMPDEST PUSH0 PUSH1 0x20 DUP3 ADD SWAP1 POP SWAP2 SWAP1 POP JUMP JUMPDEST PUSH0 PUSH2 0x603 DUP3 PUSH2 0x59E JUMP JUMPDEST PUSH2 0x60D DUP2 DUP6 PUSH2 0x5A8 JUMP JUMPDEST SWAP4 POP PUSH2 0x618 DUP4 PUSH2 0x5B8 JUMP JUMPDEST DUP1 PUSH0 JUMPDEST DUP4 DUP2 LT ISZERO PUSH2 0x648 JUMPI DUP2 MLOAD PUSH2 0x62F DUP9 DUP3 PUSH2 0x5D6 JUMP JUMPDEST SWAP8 POP PUSH2 0x63A DUP4 PUSH2 0x5ED JUMP JUMPDEST SWAP3 POP POP PUSH1 0x1 DUP2 ADD SWAP1 POP PUSH2 0x61B JUMP JUMPDEST POP DUP6 SWAP4 POP POP POP POP SWAP3 SWAP2 POP POP JUMP JUMPDEST PUSH2 0x65E DUP2 PUSH2 0x404 JUMP JUMPDEST DUP3 MSTORE POP POP JUMP JUMPDEST PUSH0 PUSH1 0x40 DUP3 ADD SWAP1 POP DUP2 DUP2 SUB PUSH0 DUP4 ADD MSTORE PUSH2 0x67C DUP2 DUP6 PUSH2 0x5F9 JUMP JUMPDEST SWAP1 POP PUSH2 0x68B PUSH1 0x20 DUP4 ADD DUP5 PUSH2 0x655 JUMP JUMPDEST SWAP4 SWAP3 POP POP POP JUMP JUMPDEST PUSH2 0x1C84 DUP1 PUSH2 0x69F PUSH0 CODECOPY PUSH0 RETURN INVALID PUSH1 0x80 PUSH1 0x40 MSTORE CALLVALUE DUP1 ISZERO PUSH2 0xF JUMPI PUSH0 DUP1 REVERT JUMPDEST POP PUSH1 0x4 CALLDATASIZE LT PUSH2 0xF3 JUMPI PUSH0 CALLDATALOAD PUSH1 0xE0 SHR DUP1 PUSH4 0x694E80C3 GT PUSH2 0x95 JUMPI DUP1 PUSH4 0xB77BF600 GT PUSH2 0x64 JUMPI DUP1 PUSH4 0xB77BF600 EQ PUSH2 0x29D JUMPI DUP1 PUSH4 0xC01A8C84 EQ PUSH2 0x2BB JUMPI DUP1 PUSH4 0xC6427474 EQ PUSH2 0x2D7 JUMPI DUP1 PUSH4 0xEE22610B EQ PUSH2 0x2F3 JUMPI PUSH2 0xF3 JUMP JUMPDEST DUP1 PUSH4 0x694E80C3 EQ PUSH2 0x213 JUMPI DUP1 PUSH4 0x7065CB48 EQ PUSH2 0x22F JUMPI DUP1 PUSH4 0x9ACE38C2 EQ PUSH2 0x24B JUMPI DUP1 PUSH4 0xA0E67E2B EQ PUSH2 0x27F JUMPI PUSH2 0xF3 JUMP JUMPDEST DUP1 PUSH4 0x2F54BF6E GT PUSH2 0xD1 JUMPI DUP1 PUSH4 0x2F54BF6E EQ PUSH2 0x161 JUMPI DUP1 PUSH4 0x33EA3DC8 EQ PUSH2 0x191 JUMPI DUP1 PUSH4 0x3411C81C EQ PUSH2 0x1C5 JUMPI DUP1 PUSH4 0x42CDE4E8 EQ PUSH2 0x1F5 JUMPI PUSH2 0xF3 JUMP JUMPDEST DUP1 PUSH4 0x25E7C27 EQ PUSH2 0xF7 JUMPI DUP1 PUSH4 0x173825D9 EQ PUSH2 0x127 JUMPI DUP1 PUSH4 0x2E7700F0 EQ PUSH2 0x143 JUMPI JUMPDEST PUSH0 DUP1 REVERT JUMPDEST PUSH2 0x111 PUSH1 0x4 DUP1 CALLDATASIZE SUB DUP2 ADD SWAP1 PUSH2 0x10C SWAP2 SWAP1 PUSH2 0x111E JUMP JUMPDEST PUSH2 0x30F JUMP JUMPDEST PUSH1 0x40 MLOAD PUSH2 0x11E SWAP2 SWAP1 PUSH2 0x1188 JUMP JUMPDEST PUSH1 0x40 MLOAD DUP1 SWAP2 SUB SWAP1 RETURN JUMPDEST PUSH2 0x141 PUSH1 0x4 DUP1 CALLDATASIZE SUB DUP2 ADD SWAP1 PUSH2 0x13C SWAP2 SWAP1 PUSH2 0x11CB JUMP JUMPDEST PUSH2 0x349 JUMP JUMPDEST STOP JUMPDEST PUSH2 0x14B PUSH2 0x40C JUMP JUMPDEST PUSH1 0x40 MLOAD PUSH2 0x158 SWAP2 SWAP1 PUSH2 0x1205 JUMP JUMPDEST PUSH1 0x40 MLOAD DUP1 SWAP2 SUB SWAP1 RETURN JUMPDEST PUSH2 0x17B PUSH1 0x4 DUP1 CALLDATASIZE SUB DUP2 ADD SWAP1 PUSH2 0x176 SWAP2 SWAP1 PUSH2 0x11CB JUMP JUMPDEST PUSH2 0x415 JUMP JUMPDEST PUSH1 0x40 MLOAD PUSH2 0x188 SWAP2 SWAP1 PUSH2 0x1238 JUMP JUMPDEST PUSH1 0x40 MLOAD DUP1 SWAP2 SUB SWAP1 RETURN JUMPDEST PUSH2 0x1AB PUSH1 0x4 DUP1 CALLDATASIZE SUB DUP2 ADD SWAP1 PUSH2 0x1A6 SWAP2 SWAP1 PUSH2 0x111E JUMP JUMPDEST PUSH2 0x432 JUMP JUMPDEST PUSH1 0x40 MLOAD PUSH2 0x1BC SWAP6 SWAP5 SWAP4 SWAP3 SWAP2 SWAP1 PUSH2 0x12C1 JUMP JUMPDEST PUSH1 0x40 MLOAD DUP1 SWAP2 SUB SWAP1 RETURN JUMPDEST PUSH2 0x1DF PUSH1 0x4 DUP1 CALLDATASIZE SUB DUP2 ADD SWAP1 PUSH2 0x1DA SWAP2 SWAP1 PUSH2 0x1319 JUMP JUMPDEST PUSH2 0x52C JUMP JUMPDEST PUSH1 0x40 MLOAD PUSH2 0x1EC SWAP2 SWAP1 PUSH2 0x1238 JUMP JUMPDEST PUSH1 0x40 MLOAD DUP1 SWAP2 SUB SWAP1 RETURN JUMPDEST PUSH2 0x1FD PUSH2 0x556 JUMP JUMPDEST PUSH1 0x40 MLOAD PUSH2 0x20A SWAP2 SWAP1 PUSH2 0x1205 JUMP JUMPDEST PUSH1 0x40 MLOAD DUP1 SWAP2 SUB SWAP1 RETURN JUMPDEST PUSH2 0x22D PUSH1 0x4 DUP1 CALLDATASIZE SUB DUP2 ADD SWAP1 PUSH2 0x228 SWAP2 SWAP1 PUSH2 0x111E JUMP JUMPDEST PUSH2 0x55C JUMP JUMPDEST STOP JUMPDEST PUSH2 0x249 PUSH1 0x4 DUP1 CALLDATASIZE SUB DUP2 ADD SWAP1 PUSH2 0x244 SWAP2 SWAP1 PUSH2 0x11CB JUMP JUMPDEST PUSH2 0x61F JUMP JUMPDEST STOP JUMPDEST PUSH2 0x265 PUSH1 0x4 DUP1 CALLDATASIZE SUB DUP2 ADD SWAP1 PUSH2 0x260 SWAP2 SWAP1 PUSH2 0x111E JUMP JUMPDEST PUSH2 0x6E2 JUMP JUMPDEST PUSH1 0x40 MLOAD PUSH2 0x276 SWAP6 SWAP5 SWAP4 SWAP3 SWAP2 SWAP1 PUSH2 0x12C1 JUMP JUMPDEST PUSH1 0x40 MLOAD DUP1 SWAP2 SUB SWAP1 RETURN JUMPDEST PUSH2 0x287 PUSH2 0x7C5 JUMP JUMPDEST PUSH1 0x40 MLOAD PUSH2 0x294 SWAP2 SWAP1 PUSH2 0x140E JUMP JUMPDEST PUSH1 0x40 MLOAD DUP1 SWAP2 SUB SWAP1 RETURN JUMPDEST PUSH2 0x2A5 PUSH2 0x84F JUMP JUMPDEST PUSH1 0x40 MLOAD PUSH2 0x2B2 SWAP2 SWAP1 PUSH2 0x1205 JUMP JUMPDEST PUSH1 0x40 MLOAD DUP1 SWAP2 SUB SWAP1 RETURN JUMPDEST PUSH2 0x2D5 PUSH1 0x4 DUP1 CALLDATASIZE SUB DUP2 ADD SWAP1 PUSH2 0x2D0 SWAP2 SWAP1 PUSH2 0x111E JUMP JUMPDEST PUSH2 0x855 JUMP JUMPDEST STOP JUMPDEST PUSH2 0x2F1 PUSH1 0x4 DUP1 CALLDATASIZE SUB DUP2 ADD SWAP1 PUSH2 0x2EC SWAP2 SWAP1 PUSH2 0x148F JUMP JUMPDEST PUSH2 0xAEB JUMP JUMPDEST STOP JUMPDEST PUSH2 0x30D PUSH1 0x4 DUP1 CALLDATASIZE SUB DUP2 ADD SWAP1 PUSH2 0x308 SWAP2 SWAP1 PUSH2 0x111E JUMP JUMPDEST PUSH2 0xDE4 JUMP JUMPDEST STOP JUMPDEST PUSH0 DUP2 DUP2 SLOAD DUP2 LT PUSH2 0x31D JUMPI PUSH0 DUP1 REVERT JUMPDEST SWAP1 PUSH0 MSTORE PUSH1 0x20 PUSH0 KECCAK256 ADD PUSH0 SWAP2 POP SLOAD SWAP1 PUSH2 0x100 EXP SWAP1 DIV PUSH20 0xFFFFFFFFFFFFFFFFFFFFFFFFFFFFFFFFFFFFFFFF AND DUP2 JUMP JUMPDEST PUSH1 0x1 PUSH0 CALLER PUSH20 0xFFFFFFFFFFFFFFFFFFFFFFFFFFFFFFFFFFFFFFFF AND PUSH20 0xFFFFFFFFFFFFFFFFFFFFFFFFFFFFFFFFFFFFFFFF AND DUP2 MSTORE PUSH1 0x20 ADD SWAP1 DUP2 MSTORE PUSH1 0x20 ADD PUSH0 KECCAK256 PUSH0 SWAP1 SLOAD SWAP1 PUSH2 0x100 EXP SWAP1 DIV PUSH1 0xFF AND PUSH2 0x3D2 JUMPI PUSH1 0x40 MLOAD PUSH32 0x8C379A000000000000000000000000000000000000000000000000000000000 DUP2 MSTORE PUSH1 0x4 ADD PUSH2 0x3C9 SWAP1 PUSH2 0x1580 JUMP JUMPDEST PUSH1 0x40 MLOAD DUP1 SWAP2 SUB SWAP1 REVERT JUMPDEST PUSH32 0x3A7BD490A3F9C025DEE372EE5627D300661929BFF2A07154983F2154734A3784 DUP2 PUSH1 0x40 MLOAD PUSH2 0x401 SWAP2 SWAP1 PUSH2 0x1188 JUMP JUMPDEST PUSH1 0x40 MLOAD DUP1 SWAP2 SUB SWAP1 LOG1 POP JUMP JUMPDEST PUSH0 PUSH1 0x4 SLOAD SWAP1 POP SWAP1 JUMP JUMPDEST PUSH1 0x1 PUSH1 0x20 MSTORE DUP1 PUSH0 MSTORE PUSH1 0x40 PUSH0 KECCAK256 PUSH0 SWAP2 POP SLOAD SWAP1 PUSH2 0x100 EXP SWAP1 DIV PUSH1 0xFF AND DUP2 JUMP JUMPDEST PUSH0 DUP1 PUSH1 0x60 PUSH0 DUP1 PUSH0 PUSH1 0x3 PUSH0 DUP9 DUP2 MSTORE PUSH1 0x20 ADD SWAP1 DUP2 MSTORE PUSH1 0x20 ADD PUSH0 KECCAK256 SWAP1 POP DUP1 PUSH0 ADD PUSH0 SWAP1 SLOAD SWAP1 PUSH2 0x100 EXP SWAP1 DIV PUSH20 0xFFFFFFFFFFFFFFFFFFFFFFFFFFFFFFFFFFFFFFFF AND DUP2 PUSH1 0x1 ADD SLOAD DUP3 PUSH1 0x2 ADD DUP4 PUSH1 0x3 ADD PUSH0 SWAP1 SLOAD SWAP1 PUSH2 0x100 EXP SWAP1 DIV PUSH1 0xFF AND DUP5 PUSH1 0x4 ADD SLOAD DUP3 DUP1 SLOAD PUSH2 0x49A SWAP1 PUSH2 0x15CB JUMP JUMPDEST DUP1 PUSH1 0x1F ADD PUSH1 0x20 DUP1 SWAP2 DIV MUL PUSH1 0x20 ADD PUSH1 0x40 MLOAD SWAP1 DUP2 ADD PUSH1 0x40 MSTORE DUP1 SWAP3 SWAP2 SWAP1 DUP2 DUP2 MSTORE PUSH1 0x20 ADD DUP3 DUP1 SLOAD PUSH2 0x4C6 SWAP1 PUSH2 0x15CB JUMP JUMPDEST DUP1 ISZERO PUSH2 0x511 JUMPI DUP1 PUSH1 0x1F LT PUSH2 0x4E8 JUMPI PUSH2 0x100 DUP1 DUP4 SLOAD DIV MUL DUP4 MSTORE SWAP2 PUSH1 0x20 ADD SWAP2 PUSH2 0x511 JUMP JUMPDEST DUP3 ADD SWAP2 SWAP1 PUSH0 MSTORE PUSH1 0x20 PUSH0 KECCAK256 SWAP1 JUMPDEST DUP2 SLOAD DUP2 MSTORE SWAP1 PUSH1 0x1 ADD SWAP1 PUSH1 0x20 ADD DUP1 DUP4 GT PUSH2 0x4F4 JUMPI DUP3 SWAP1 SUB PUSH1 0x1F AND DUP3 ADD SWAP2 JUMPDEST POP POP POP POP POP SWAP3 POP SWAP6 POP SWAP6 POP SWAP6 POP SWAP6 POP SWAP6 POP POP SWAP2 SWAP4 SWAP6 SWAP1 SWAP3 SWAP5 POP JUMP JUMPDEST PUSH1 0x5 PUSH1 0x20 MSTORE DUP2 PUSH0 MSTORE PUSH1 0x40 PUSH0 KECCAK256 PUSH1 0x20 MSTORE DUP1 PUSH0 MSTORE PUSH1 0x40 PUSH0 KECCAK256 PUSH0 SWAP2 POP SWAP2 POP SWAP1 SLOAD SWAP1 PUSH2 0x100 EXP SWAP1 DIV PUSH1 0xFF AND DUP2 JUMP JUMPDEST PUSH1 0x2 SLOAD DUP2 JUMP JUMPDEST PUSH1 0x1 PUSH0 CALLER PUSH20 0xFFFFFFFFFFFFFFFFFFFFFFFFFFFFFFFFFFFFFFFF AND PUSH20 0xFFFFFFFFFFFFFFFFFFFFFFFFFFFFFFFFFFFFFFFF AND DUP2 MSTORE PUSH1 0x20 ADD SWAP1 DUP2 MSTORE PUSH1 0x20 ADD PUSH0 KECCAK256 PUSH0 SWAP1 SLOAD SWAP1 PUSH2 0x100 EXP SWAP1 DIV PUSH1 0xFF AND PUSH2 0x5E5 JUMPI PUSH1 0x40 MLOAD PUSH32 0x8C379A000000000000000000000000000000000000000000000000000000000 DUP2 MSTORE PUSH1 0x4 ADD PUSH2 0x5DC SWAP1 PUSH2 0x1580 JUMP JUMPDEST PUSH1 0x40 MLOAD DUP1 SWAP2 SUB SWAP1 REVERT JUMPDEST PUSH32 0x266F230C4A910AD4E6BF12E62E3FE760F4156F8AD8B5FE491ABF242B0766C3F9 DUP2 PUSH1 0x40 MLOAD PUSH2 0x614 SWAP2 SWAP1 PUSH2 0x1205 JUMP JUMPDEST PUSH1 0x40 MLOAD DUP1 SWAP2 SUB SWAP1 LOG1 POP JUMP JUMPDEST PUSH1 0x1 PUSH0 CALLER PUSH20 0xFFFFFFFFFFFFFFFFFFFFFFFFFFFFFFFFFFFFFFFF AND PUSH20 0xFFFFFFFFFFFFFFFFFFFFFFFFFFFFFFFFFFFFFFFF AND DUP2 MSTORE PUSH1 0x20 ADD SWAP1 DUP2 MSTORE PUSH1 0x20 ADD PUSH0 KECCAK256 PUSH0 SWAP1 SLOAD SWAP1 PUSH2 0x100 EXP SWAP1 DIV PUSH1 0xFF AND PUSH2 0x6A8 JUMPI PUSH1 0x40 MLOAD PUSH32 0x8C379A000000000000000000000000000000000000000000000000000000000 DUP2 MSTORE PUSH1 0x4 ADD PUSH2 0x69F SWAP1 PUSH2 0x1580 JUMP JUMPDEST PUSH1 0x40 MLOAD DUP1 SWAP2 SUB SWAP1 REVERT JUMPDEST PUSH32 0x47FF96E4CB303A209EBA96319C10EB9CA4448C25FF1F71E16D3026EAE00661AC DUP2 PUSH1 0x40 MLOAD PUSH2 0x6D7 SWAP2 SWAP1 PUSH2 0x1188 JUMP JUMPDEST PUSH1 0x40 MLOAD DUP1 SWAP2 SUB SWAP1 LOG1 POP JUMP JUMPDEST PUSH1 0x3 PUSH1 0x20 MSTORE DUP1 PUSH0 MSTORE PUSH1 0x40 PUSH0 KECCAK256 PUSH0 SWAP2 POP SWAP1 POP DUP1 PUSH0 ADD PUSH0 SWAP1 SLOAD SWAP1 PUSH2 0x100 EXP SWAP1 DIV PUSH20 0xFFFFFFFFFFFFFFFFFFFFFFFFFFFFFFFFFFFFFFFF AND SWAP1 DUP1 PUSH1 0x1 ADD SLOAD SWAP1 DUP1 PUSH1 0x2 ADD DUP1 SLOAD PUSH2 0x72C SWAP1 PUSH2 0x15CB JUMP JUMPDEST DUP1 PUSH1 0x1F ADD PUSH1 0x20 DUP1 SWAP2 DIV MUL PUSH1 0x20 ADD PUSH1 0x40 MLOAD SWAP1 DUP2 ADD PUSH1 0x40 MSTORE DUP1 SWAP3 SWAP2 SWAP1 DUP2 DUP2 MSTORE PUSH1 0x20 ADD DUP3 DUP1 SLOAD PUSH2 0x758 SWAP1 PUSH2 0x15CB JUMP JUMPDEST DUP1 ISZERO PUSH2 0x7A3 JUMPI DUP1 PUSH1 0x1F LT PUSH2 0x77A JUMPI PUSH2 0x100 DUP1 DUP4 SLOAD DIV MUL DUP4 MSTORE SWAP2 PUSH1 0x20 ADD SWAP2 PUSH2 0x7A3 JUMP JUMPDEST DUP3 ADD SWAP2 SWAP1 PUSH0 MSTORE PUSH1 0x20 PUSH0 KECCAK256 SWAP1 JUMPDEST DUP2 SLOAD DUP2 MSTORE SWAP1 PUSH1 0x1 ADD SWAP1 PUSH1 0x20 ADD DUP1 DUP4 GT PUSH2 0x786 JUMPI DUP3 SWAP1 SUB PUSH1 0x1F AND DUP3 ADD SWAP2 JUMPDEST POP POP POP POP POP SWAP1 DUP1 PUSH1 0x3 ADD PUSH0 SWAP1 SLOAD SWAP1 PUSH2 0x100 EXP SWAP1 DIV PUSH1 0xFF AND SWAP1 DUP1 PUSH1 0x4 ADD SLOAD SWAP1 POP DUP6 JUMP JUMPDEST PUSH1 0x60 PUSH0 DUP1 SLOAD DUP1 PUSH1 0x20 MUL PUSH1 0x20 ADD PUSH1 0x40 MLOAD SWAP1 DUP2 ADD PUSH1 0x40 MSTORE DUP1 SWAP3 SWAP2 SWAP1 DUP2 DUP2 MSTORE PUSH1 0x20 ADD DUP3 DUP1 SLOAD DUP1 ISZERO PUSH2 0x845 JUMPI PUSH1 0x20 MUL DUP3 ADD SWAP2 SWAP1 PUSH0 MSTORE PUSH1 0x20 PUSH0 KECCAK256 SWAP1 JUMPDEST DUP2 PUSH0 SWAP1 SLOAD SWAP1 PUSH2 0x100 EXP SWAP1 DIV PUSH20 0xFFFFFFFFFFFFFFFFFFFFFFFFFFFFFFFFFFFFFFFF AND PUSH20 0xFFFFFFFFFFFFFFFFFFFFFFFFFFFFFFFFFFFFFFFF AND DUP2 MSTORE PUSH1 0x20 ADD SWAP1 PUSH1 0x1 ADD SWAP1 DUP1 DUP4 GT PUSH2 0x7FC JUMPI JUMPDEST POP POP POP POP POP SWAP1 POP SWAP1 JUMP JUMPDEST PUSH1 0x4 SLOAD DUP2 JUMP JUMPDEST PUSH1 0x1 PUSH0 CALLER PUSH20 0xFFFFFFFFFFFFFFFFFFFFFFFFFFFFFFFFFFFFFFFF AND PUSH20 0xFFFFFFFFFFFFFFFFFFFFFFFFFFFFFFFFFFFFFFFF AND DUP2 MSTORE PUSH1 0x20 ADD SWAP1 DUP2 MSTORE PUSH1 0x20 ADD PUSH0 KECCAK256 PUSH0 SWAP1 SLOAD SWAP1 PUSH2 0x100 EXP SWAP1 DIV PUSH1 0xFF AND PUSH2 0x8DE JUMPI PUSH1 0x40 MLOAD PUSH32 0x8C379A000000000000000000000000000000000000000000000000000000000 DUP2 MSTORE PUSH1 0x4 ADD PUSH2 0x8D5 SWAP1 PUSH2 0x1580 JUMP JUMPDEST PUSH1 0x40 MLOAD DUP1 SWAP2 SUB SWAP1 REVERT JUMPDEST PUSH0 PUSH20 0xFFFFFFFFFFFFFFFFFFFFFFFFFFFFFFFFFFFFFFFF AND PUSH1 0x3 PUSH0 DUP4 DUP2 MSTORE PUSH1 0x20 ADD SWAP1 DUP2 MSTORE PUSH1 0x20 ADD PUSH0 KECCAK256 PUSH0 ADD PUSH0 SWAP1 SLOAD SWAP1 PUSH2 0x100 EXP SWAP1 DIV PUSH20 0xFFFFFFFFFFFFFFFFFFFFFFFFFFFFFFFFFFFFFFFF AND PUSH20 0xFFFFFFFFFFFFFFFFFFFFFFFFFFFFFFFFFFFFFFFF AND SUB PUSH2 0x97E JUMPI PUSH1 0x40 MLOAD PUSH32 0x8C379A000000000000000000000000000000000000000000000000000000000 DUP2 MSTORE PUSH1 0x4 ADD PUSH2 0x975 SWAP1 PUSH2 0x1645 JUMP JUMPDEST PUSH1 0x40 MLOAD DUP1 SWAP2 SUB SWAP1 REVERT JUMPDEST PUSH1 0x5 PUSH0 DUP3 DUP2 MSTORE PUSH1 0x20 ADD SWAP1 DUP2 MSTORE PUSH1 0x20 ADD PUSH0 KECCAK256 PUSH0 CALLER PUSH20 0xFFFFFFFFFFFFFFFFFFFFFFFFFFFFFFFFFFFFFFFF AND PUSH20 0xFFFFFFFFFFFFFFFFFFFFFFFFFFFFFFFFFFFFFFFF AND DUP2 MSTORE PUSH1 0x20 ADD SWAP1 DUP2 MSTORE PUSH1 0x20 ADD PUSH0 KECCAK256 PUSH0 SWAP1 SLOAD SWAP1 PUSH2 0x100 EXP SWAP1 DIV PUSH1 0xFF AND ISZERO PUSH2 0xA17 JUMPI PUSH1 0x40 MLOAD PUSH32 0x8C379A000000000000000000000000000000000000000000000000000000000 DUP2 MSTORE PUSH1 0x4 ADD PUSH2 0xA0E SWAP1 PUSH2 0x16D3 JUMP JUMPDEST PUSH1 0x40 MLOAD DUP1 SWAP2 SUB SWAP1 REVERT JUMPDEST PUSH1 0x1 PUSH1 0x5 PUSH0 DUP4 DUP2 MSTORE PUSH1 0x20 ADD SWAP1 DUP2 MSTORE PUSH1 0x20 ADD PUSH0 KECCAK256 PUSH0 CALLER PUSH20 0xFFFFFFFFFFFFFFFFFFFFFFFFFFFFFFFFFFFFFFFF AND PUSH20 0xFFFFFFFFFFFFFFFFFFFFFFFFFFFFFFFFFFFFFFFF AND DUP2 MSTORE PUSH1 0x20 ADD SWAP1 DUP2 MSTORE PUSH1 0x20 ADD PUSH0 KECCAK256 PUSH0 PUSH2 0x100 EXP DUP2 SLOAD DUP2 PUSH1 0xFF MUL NOT AND SWAP1 DUP4 ISZERO ISZERO MUL OR SWAP1 SSTORE POP PUSH1 0x3 PUSH0 DUP3 DUP2 MSTORE PUSH1 0x20 ADD SWAP1 DUP2 MSTORE PUSH1 0x20 ADD PUSH0 KECCAK256 PUSH1 0x4 ADD PUSH0 DUP2 SLOAD DUP1 SWAP3 SWAP2 SWAP1 PUSH2 0xA9F SWAP1 PUSH2 0x171E JUMP JUMPDEST SWAP2 SWAP1 POP SSTORE POP CALLER PUSH20 0xFFFFFFFFFFFFFFFFFFFFFFFFFFFFFFFFFFFFFFFF AND DUP2 PUSH32 0x15C2F311C9E0F53B50388279894AEFF029A3457884A6601E924FCA879E12ADCC PUSH1 0x40 MLOAD PUSH1 0x40 MLOAD DUP1 SWAP2 SUB SWAP1 LOG3 POP JUMP JUMPDEST PUSH1 0x1 PUSH0 CALLER PUSH20 0xFFFFFFFFFFFFFFFFFFFFFFFFFFFFFFFFFFFFFFFF AND PUSH20 0xFFFFFFFFFFFFFFFFFFFFFFFFFFFFFFFFFFFFFFFF AND DUP2 MSTORE PUSH1 0x20 ADD SWAP1 DUP2 MSTORE PUSH1 0x20 ADD PUSH0 KECCAK256 PUSH0 SWAP1 SLOAD SWAP1 PUSH2 0x100 EXP SWAP1 DIV PUSH1 0xFF AND PUSH2 0xB74 JUMPI PUSH1 0x40 MLOAD PUSH32 0x8C379A000000000000000000000000000000000000000000000000000000000 DUP2 MSTORE PUSH1 0x4 ADD PUSH2 0xB6B SWAP1 PUSH2 0x1580 JUMP JUMPDEST PUSH1 0x40 MLOAD DUP1 SWAP2 SUB SWAP1 REVERT JUMPDEST PUSH1 0x40 MLOAD DUP1 PUSH1 0xA0 ADD PUSH1 0x40 MSTORE DUP1 DUP6 PUSH20 0xFFFFFFFFFFFFFFFFFFFFFFFFFFFFFFFFFFFFFFFF AND DUP2 MSTORE PUSH1 0x20 ADD DUP5 DUP2 MSTORE PUSH1 0x20 ADD DUP4 DUP4 DUP1 DUP1 PUSH1 0x1F ADD PUSH1 0x20 DUP1 SWAP2 DIV MUL PUSH1 0x20 ADD PUSH1 0x40 MLOAD SWAP1 DUP2 ADD PUSH1 0x40 MSTORE DUP1 SWAP4 SWAP3 SWAP2 SWAP1 DUP2 DUP2 MSTORE PUSH1 0x20 ADD DUP4 DUP4 DUP1 DUP3 DUP5 CALLDATACOPY PUSH0 DUP2 DUP5 ADD MSTORE PUSH1 0x1F NOT PUSH1 0x1F DUP3 ADD AND SWAP1 POP DUP1 DUP4 ADD SWAP3 POP POP POP POP POP POP POP DUP2 MSTORE PUSH1 0x20 ADD PUSH0 ISZERO ISZERO DUP2 MSTORE PUSH1 0x20 ADD PUSH0 DUP2 MSTORE POP PUSH1 0x3 PUSH0 PUSH1 0x4 SLOAD DUP2 MSTORE PUSH1 0x20 ADD SWAP1 DUP2 MSTORE PUSH1 0x20 ADD PUSH0 KECCAK256 PUSH0 DUP3 ADD MLOAD DUP2 PUSH0 ADD PUSH0 PUSH2 0x100 EXP DUP2 SLOAD DUP2 PUSH20 0xFFFFFFFFFFFFFFFFFFFFFFFFFFFFFFFFFFFFFFFF MUL NOT AND SWAP1 DUP4 PUSH20 0xFFFFFFFFFFFFFFFFFFFFFFFFFFFFFFFFFFFFFFFF AND MUL OR SWAP1 SSTORE POP PUSH1 0x20 DUP3 ADD MLOAD DUP2 PUSH1 0x1 ADD SSTORE PUSH1 0x40 DUP3 ADD MLOAD DUP2 PUSH1 0x2 ADD SWAP1 DUP2 PUSH2 0xC6C SWAP2 SWAP1 PUSH2 0x192F JUMP JUMPDEST POP PUSH1 0x60 DUP3 ADD MLOAD DUP2 PUSH1 0x3 ADD PUSH0 PUSH2 0x100 EXP DUP2 SLOAD DUP2 PUSH1 0xFF MUL NOT AND SWAP1 DUP4 ISZERO ISZERO MUL OR SWAP1 SSTORE POP PUSH1 0x80 DUP3 ADD MLOAD DUP2 PUSH1 0x4 ADD SSTORE SWAP1 POP POP PUSH1 0x1 PUSH1 0x5 PUSH0 PUSH1 0x4 SLOAD DUP2 MSTORE PUSH1 0x20 ADD SWAP1 DUP2 MSTORE PUSH1 0x20 ADD PUSH0 KECCAK256 PUSH0 CALLER PUSH20 0xFFFFFFFFFFFFFFFFFFFFFFFFFFFFFFFFFFFFFFFF AND PUSH20 0xFFFFFFFFFFFFFFFFFFFFFFFFFFFFFFFFFFFFFFFF AND DUP2 MSTORE PUSH1 0x20 ADD SWAP1 DUP2 MSTORE PUSH1 0x20 ADD PUSH0 KECCAK256 PUSH0 PUSH2 0x100 EXP DUP2 SLOAD DUP2 PUSH1 0xFF MUL NOT AND SWAP1 DUP4 ISZERO ISZERO MUL OR SWAP1 SSTORE POP PUSH1 0x3 PUSH0 PUSH1 0x4 SLOAD DUP2 MSTORE PUSH1 0x20 ADD SWAP1 DUP2 MSTORE PUSH1 0x20 ADD PUSH0 KECCAK256 PUSH1 0x4 ADD PUSH0 DUP2 SLOAD DUP1 SWAP3 SWAP2 SWAP1 PUSH2 0xD25 SWAP1 PUSH2 0x171E JUMP JUMPDEST SWAP2 SWAP1 POP SSTORE POP CALLER PUSH20 0xFFFFFFFFFFFFFFFFFFFFFFFFFFFFFFFFFFFFFFFF AND PUSH1 0x4 SLOAD PUSH32 0xF13A7A4144A3232FD093FCA16BE52A8223BAD74CEE86D5FA8966C7061E75BFD3 DUP7 DUP7 DUP7 DUP7 PUSH1 0x40 MLOAD PUSH2 0xD79 SWAP5 SWAP4 SWAP3 SWAP2 SWAP1 PUSH2 0x1A38 JUMP JUMPDEST PUSH1 0x40 MLOAD DUP1 SWAP2 SUB SWAP1 LOG3 CALLER PUSH20 0xFFFFFFFFFFFFFFFFFFFFFFFFFFFFFFFFFFFFFFFF AND PUSH1 0x4 SLOAD PUSH32 0x15C2F311C9E0F53B50388279894AEFF029A3457884A6601E924FCA879E12ADCC PUSH1 0x40 MLOAD PUSH1 0x40 MLOAD DUP1 SWAP2 SUB SWAP1 LOG3 PUSH1 0x4 PUSH0 DUP2 SLOAD DUP1 SWAP3 SWAP2 SWAP1 PUSH2 0xDD9 SWAP1 PUSH2 0x171E JUMP JUMPDEST SWAP2 SWAP1 POP SSTORE POP POP POP POP POP JUMP JUMPDEST PUSH1 0x1 PUSH0 CALLER PUSH20 0xFFFFFFFFFFFFFFFFFFFFFFFFFFFFFFFFFFFFFFFF AND PUSH20 0xFFFFFFFFFFFFFFFFFFFFFFFFFFFFFFFFFFFFFFFF AND DUP2 MSTORE PUSH1 0x20 ADD SWAP1 DUP2 MSTORE PUSH1 0x20 ADD PUSH0 KECCAK256 PUSH0 SWAP1 SLOAD SWAP1 PUSH2 0x100 EXP SWAP1 DIV PUSH1 0xFF AND PUSH2 0xE6D JUMPI PUSH1 0x40 MLOAD PUSH32 0x8C379A000000000000000000000000000000000000000000000000000000000 DUP2 MSTORE PUSH1 0x4 ADD PUSH2 0xE64 SWAP1 PUSH2 0x1580 JUMP JUMPDEST PUSH1 0x40 MLOAD DUP1 SWAP2 SUB SWAP1 REVERT JUMPDEST PUSH0 PUSH1 0x3 PUSH0 DUP4 DUP2 MSTORE PUSH1 0x20 ADD SWAP1 DUP2 MSTORE PUSH1 0x20 ADD PUSH0 KECCAK256 SWAP1 POP PUSH0 PUSH20 0xFFFFFFFFFFFFFFFFFFFFFFFFFFFFFFFFFFFFFFFF AND DUP2 PUSH0 ADD PUSH0 SWAP1 SLOAD SWAP1 PUSH2 0x100 EXP SWAP1 DIV PUSH20 0xFFFFFFFFFFFFFFFFFFFFFFFFFFFFFFFFFFFFFFFF AND PUSH20 0xFFFFFFFFFFFFFFFFFFFFFFFFFFFFFFFFFFFFFFFF AND SUB PUSH2 0xF11 JUMPI PUSH1 0x40 MLOAD PUSH32 0x8C379A000000000000000000000000000000000000000000000000000000000 DUP2 MSTORE PUSH1 0x4 ADD PUSH2 0xF08 SWAP1 PUSH2 0x1645 JUMP JUMPDEST PUSH1 0x40 MLOAD DUP1 SWAP2 SUB SWAP1 REVERT JUMPDEST DUP1 PUSH1 0x3 ADD PUSH0 SWAP1 SLOAD SWAP1 PUSH2 0x100 EXP SWAP1 DIV PUSH1 0xFF AND ISZERO PUSH2 0xF62 JUMPI PUSH1 0x40 MLOAD PUSH32 0x8C379A000000000000000000000000000000000000000000000000000000000 DUP2 MSTORE PUSH1 0x4 ADD PUSH2 0xF59 SWAP1 PUSH2 0x1AC0 JUMP JUMPDEST PUSH1 0x40 MLOAD DUP1 SWAP2 SUB SWAP1 REVERT JUMPDEST PUSH1 0x2 SLOAD DUP2 PUSH1 0x4 ADD SLOAD LT ISZERO PUSH2 0xFAB JUMPI PUSH1 0x40 MLOAD PUSH32 0x8C379A000000000000000000000000000000000000000000000000000000000 DUP2 MSTORE PUSH1 0x4 ADD PUSH2 0xFA2 SWAP1 PUSH2 0x1B28 JUMP JUMPDEST PUSH1 0x40 MLOAD DUP1 SWAP2 SUB SWAP1 REVERT JUMPDEST PUSH0 DUP2 PUSH0 ADD PUSH0 SWAP1 SLOAD SWAP1 PUSH2 0x100 EXP SWAP1 DIV PUSH20 0xFFFFFFFFFFFFFFFFFFFFFFFFFFFFFFFFFFFFFFFF AND PUSH20 0xFFFFFFFFFFFFFFFFFFFFFFFFFFFFFFFFFFFFFFFF AND DUP3 PUSH1 0x1 ADD SLOAD DUP4 PUSH1 0x2 ADD PUSH1 0x40 MLOAD PUSH2 0xFFB SWAP2 SWAP1 PUSH2 0x1BD0 JUMP JUMPDEST PUSH0 PUSH1 0x40 MLOAD DUP1 DUP4 SUB DUP2 DUP6 DUP8 GAS CALL SWAP3 POP POP POP RETURNDATASIZE DUP1 PUSH0 DUP2 EQ PUSH2 0x1035 JUMPI PUSH1 0x40 MLOAD SWAP2 POP PUSH1 0x1F NOT PUSH1 0x3F RETURNDATASIZE ADD AND DUP3 ADD PUSH1 0x40 MSTORE RETURNDATASIZE DUP3 MSTORE RETURNDATASIZE PUSH0 PUSH1 0x20 DUP5 ADD RETURNDATACOPY PUSH2 0x103A JUMP JUMPDEST PUSH1 0x60 SWAP2 POP JUMPDEST POP POP SWAP1 POP DUP1 PUSH2 0x107E JUMPI PUSH1 0x40 MLOAD PUSH32 0x8C379A000000000000000000000000000000000000000000000000000000000 DUP2 MSTORE PUSH1 0x4 ADD PUSH2 0x1075 SWAP1 PUSH2 0x1C30 JUMP JUMPDEST PUSH1 0x40 MLOAD DUP1 SWAP2 SUB SWAP1 REVERT JUMPDEST PUSH1 0x1 DUP3 PUSH1 0x3 ADD PUSH0 PUSH2 0x100 EXP DUP2 SLOAD DUP2 PUSH1 0xFF MUL NOT AND SWAP1 DUP4 ISZERO ISZERO MUL OR SWAP1 SSTORE POP CALLER PUSH20 0xFFFFFFFFFFFFFFFFFFFFFFFFFFFFFFFFFFFFFFFF AND DUP4 PUSH32 0xEFC13BDCF58F184EA7CAE26B499FB33B539E01D0197CEA456F3ADA289B8CF19B PUSH1 0x40 MLOAD PUSH1 0x40 MLOAD DUP1 SWAP2 SUB SWAP1 LOG3 POP POP POP JUMP JUMPDEST PUSH0 DUP1 REVERT JUMPDEST PUSH0 DUP1 REVERT JUMPDEST PUSH0 DUP2 SWAP1 POP SWAP2 SWAP1 POP JUMP JUMPDEST PUSH2 0x10FD DUP2 PUSH2 0x10EB JUMP JUMPDEST DUP2 EQ PUSH2 0x1107 JUMPI PUSH0 DUP1 REVERT JUMPDEST POP JUMP JUMPDEST PUSH0 DUP2 CALLDATALOAD SWAP1 POP PUSH2 0x1118 DUP2 PUSH2 0x10F4 JUMP JUMPDEST SWAP3 SWAP2 POP POP JUMP JUMPDEST PUSH0 PUSH1 0x20 DUP3 DUP5 SUB SLT ISZERO PUSH2 0x1133 JUMPI PUSH2 0x1132 PUSH2 0x10E3 JUMP JUMPDEST JUMPDEST PUSH0 PUSH2 0x1140 DUP5 DUP3 DUP6 ADD PUSH2 0x110A JUMP JUMPDEST SWAP2 POP POP SWAP3 SWAP2 POP POP JUMP JUMPDEST PUSH0 PUSH20 0xFFFFFFFFFFFFFFFFFFFFFFFFFFFFFFFFFFFFFFFF DUP3 AND SWAP1 POP SWAP2 SWAP1 POP JUMP JUMPDEST PUSH0 PUSH2 0x1172 DUP3 PUSH2 0x1149 JUMP JUMPDEST SWAP1 POP SWAP2 SWAP1 POP JUMP JUMPDEST PUSH2 0x1182 DUP2 PUSH2 0x1168 JUMP JUMPDEST DUP3 MSTORE POP POP JUMP JUMPDEST PUSH0 PUSH1 0x20 DUP3 ADD SWAP1 POP PUSH2 0x119B PUSH0 DUP4 ADD DUP5 PUSH2 0x1179 JUMP JUMPDEST SWAP3 SWAP2 POP POP JUMP JUMPDEST PUSH2 0x11AA DUP2 PUSH2 0x1168 JUMP JUMPDEST DUP2 EQ PUSH2 0x11B4 JUMPI PUSH0 DUP1 REVERT JUMPDEST POP JUMP JUMPDEST PUSH0 DUP2 CALLDATALOAD SWAP1 POP PUSH2 0x11C5 DUP2 PUSH2 0x11A1 JUMP JUMPDEST SWAP3 SWAP2 POP POP JUMP JUMPDEST PUSH0 PUSH1 0x20 DUP3 DUP5 SUB SLT ISZERO PUSH2 0x11E0 JUMPI PUSH2 0x11DF PUSH2 0x10E3 JUMP JUMPDEST JUMPDEST PUSH0 PUSH2 0x11ED DUP5 DUP3 DUP6 ADD PUSH2 0x11B7 JUMP JUMPDEST SWAP2 POP POP SWAP3 SWAP2 POP POP JUMP JUMPDEST PUSH2 0x11FF DUP2 PUSH2 0x10EB JUMP JUMPDEST DUP3 MSTORE POP POP JUMP JUMPDEST PUSH0 PUSH1 0x20 DUP3 ADD SWAP1 POP PUSH2 0x1218 PUSH0 DUP4 ADD DUP5 PUSH2 0x11F6 JUMP JUMPDEST SWAP3 SWAP2 POP POP JUMP JUMPDEST PUSH0 DUP2 ISZERO ISZERO SWAP1 POP SWAP2 SWAP1 POP JUMP JUMPDEST PUSH2 0x1232 DUP2 PUSH2 0x121E JUMP JUMPDEST DUP3 MSTORE POP POP JUMP JUMPDEST PUSH0 PUSH1 0x20 DUP3 ADD SWAP1 POP PUSH2 0x124B PUSH0 DUP4 ADD DUP5 PUSH2 0x1229 JUMP JUMPDEST SWAP3 SWAP2 POP POP JUMP JUMPDEST PUSH0 DUP2 MLOAD SWAP1 POP SWAP2 SWAP1 POP JUMP JUMPDEST PUSH0 DUP3 DUP3 MSTORE PUSH1 0x20 DUP3 ADD SWAP1 POP SWAP3 SWAP2 POP POP JUMP JUMPDEST DUP3 DUP2 DUP4 MCOPY PUSH0 DUP4 DUP4 ADD MSTORE POP POP POP JUMP JUMPDEST PUSH0 PUSH1 0x1F NOT PUSH1 0x1F DUP4 ADD AND SWAP1 POP SWAP2 SWAP1 POP JUMP JUMPDEST PUSH0 PUSH2 0x1293 DUP3 PUSH2 0x1251 JUMP JUMPDEST PUSH2 0x129D DUP2 DUP6 PUSH2 0x125B JUMP JUMPDEST SWAP4 POP PUSH2 0x12AD DUP2 DUP6 PUSH1 0x20 DUP7 ADD PUSH2 0x126B JUMP JUMPDEST PUSH2 0x12B6 DUP2 PUSH2 0x1279 JUMP JUMPDEST DUP5 ADD SWAP2 POP POP SWAP3 SWAP2 POP POP JUMP JUMPDEST PUSH0 PUSH1 0xA0 DUP3 ADD SWAP1 POP PUSH2 0x12D4 PUSH0 DUP4 ADD DUP9 PUSH2 0x1179 JUMP JUMPDEST PUSH2 0x12E1 PUSH1 0x20 DUP4 ADD DUP8 PUSH2 0x11F6 JUMP JUMPDEST DUP2 DUP2 SUB PUSH1 0x40 DUP4 ADD MSTORE PUSH2 0x12F3 DUP2 DUP7 PUSH2 0x1289 JUMP JUMPDEST SWAP1 POP PUSH2 0x1302 PUSH1 0x60 DUP4 ADD DUP6 PUSH2 0x1229 JUMP JUMPDEST PUSH2 0x130F PUSH1 0x80 DUP4 ADD DUP5 PUSH2 0x11F6 JUMP JUMPDEST SWAP7 SWAP6 POP POP POP POP POP POP JUMP JUMPDEST PUSH0 DUP1 PUSH1 0x40 DUP4 DUP6 SUB SLT ISZERO PUSH2 0x132F JUMPI PUSH2 0x132E PUSH2 0x10E3 JUMP JUMPDEST JUMPDEST PUSH0 PUSH2 0x133C DUP6 DUP3 DUP7 ADD PUSH2 0x110A JUMP JUMPDEST SWAP3 POP POP PUSH1 0x20 PUSH2 0x134D DUP6 DUP3 DUP7 ADD PUSH2 0x11B7 JUMP JUMPDEST SWAP2 POP POP SWAP3 POP SWAP3 SWAP1 POP JUMP JUMPDEST PUSH0 DUP2 MLOAD SWAP1 POP SWAP2 SWAP1 POP JUMP JUMPDEST PUSH0 DUP3 DUP3 MSTORE PUSH1 0x20 DUP3 ADD SWAP1 POP SWAP3 SWAP2 POP POP JUMP JUMPDEST PUSH0 DUP2 SWAP1 POP PUSH1 0x20 DUP3 ADD SWAP1 POP SWAP2 SWAP1 POP JUMP JUMPDEST PUSH2 0x1389 DUP2 PUSH2 0x1168 JUMP JUMPDEST DUP3 MSTORE POP POP JUMP JUMPDEST PUSH0 PUSH2 0x139A DUP4 DUP4 PUSH2 0x1380 JUMP JUMPDEST PUSH1 0x20 DUP4 ADD SWAP1 POP SWAP3 SWAP2 POP POP JUMP JUMPDEST PUSH0 PUSH1 0x20 DUP3 ADD SWAP1 POP SWAP2 SWAP1 POP JUMP JUMPDEST PUSH0 PUSH2 0x13BC DUP3 PUSH2 0x1357 JUMP JUMPDEST PUSH2 0x13C6 DUP2 DUP6 PUSH2 0x1361 JUMP JUMPDEST SWAP4 POP PUSH2 0x13D1 DUP4 PUSH2 0x1371 JUMP JUMPDEST DUP1 PUSH0 JUMPDEST DUP4 DUP2 LT ISZERO PUSH2 0x1401 JUMPI DUP2 MLOAD PUSH2 0x13E8 DUP9 DUP3 PUSH2 0x138F JUMP JUMPDEST SWAP8 POP PUSH2 0x13F3 DUP4 PUSH2 0x13A6 JUMP JUMPDEST SWAP3 POP POP PUSH1 0x1 DUP2 ADD SWAP1 POP PUSH2 0x13D4 JUMP JUMPDEST POP DUP6 SWAP4 POP POP POP POP SWAP3 SWAP2 POP POP JUMP JUMPDEST PUSH0 PUSH1 0x20 DUP3 ADD SWAP1 POP DUP2 DUP2 SUB PUSH0 DUP4 ADD MSTORE PUSH2 0x1426 DUP2 DUP5 PUSH2 0x13B2 JUMP JUMPDEST SWAP1 POP SWAP3 SWAP2 POP POP JUMP JUMPDEST PUSH0 DUP1 REVERT JUMPDEST PUSH0 DUP1 REVERT JUMPDEST PUSH0 DUP1 REVERT JUMPDEST PUSH0 DUP1 DUP4 PUSH1 0x1F DUP5 ADD SLT PUSH2 0x144F JUMPI PUSH2 0x144E PUSH2 0x142E JUMP JUMPDEST JUMPDEST DUP3 CALLDATALOAD SWAP1 POP PUSH8 0xFFFFFFFFFFFFFFFF DUP2 GT ISZERO PUSH2 0x146C JUMPI PUSH2 0x146B PUSH2 0x1432 JUMP JUMPDEST JUMPDEST PUSH1 0x20 DUP4 ADD SWAP2 POP DUP4 PUSH1 0x1 DUP3 MUL DUP4 ADD GT ISZERO PUSH2 0x1488 JUMPI PUSH2 0x1487 PUSH2 0x1436 JUMP JUMPDEST JUMPDEST SWAP3 POP SWAP3 SWAP1 POP JUMP JUMPDEST PUSH0 DUP1 PUSH0 DUP1 PUSH1 0x60 DUP6 DUP8 SUB SLT ISZERO PUSH2 0x14A7 JUMPI PUSH2 0x14A6 PUSH2 0x10E3 JUMP JUMPDEST JUMPDEST PUSH0 PUSH2 0x14B4 DUP8 DUP3 DUP9 ADD PUSH2 0x11B7 JUMP JUMPDEST SWAP5 POP POP PUSH1 0x20 PUSH2 0x14C5 DUP8 DUP3 DUP9 ADD PUSH2 0x110A JUMP JUMPDEST SWAP4 POP POP PUSH1 0x40 DUP6 ADD CALLDATALOAD PUSH8 0xFFFFFFFFFFFFFFFF DUP2 GT ISZERO PUSH2 0x14E6 JUMPI PUSH2 0x14E5 PUSH2 0x10E7 JUMP JUMPDEST JUMPDEST PUSH2 0x14F2 DUP8 DUP3 DUP9 ADD PUSH2 0x143A JUMP JUMPDEST SWAP3 POP SWAP3 POP POP SWAP3 SWAP6 SWAP2 SWAP5 POP SWAP3 POP JUMP JUMPDEST PUSH0 DUP3 DUP3 MSTORE PUSH1 0x20 DUP3 ADD SWAP1 POP SWAP3 SWAP2 POP POP JUMP JUMPDEST PUSH32 0x4F6E6C79206F776E6572732063616E2063616C6C20746869732066756E637469 PUSH0 DUP3 ADD MSTORE PUSH32 0x6F6E000000000000000000000000000000000000000000000000000000000000 PUSH1 0x20 DUP3 ADD MSTORE POP JUMP JUMPDEST PUSH0 PUSH2 0x156A PUSH1 0x22 DUP4 PUSH2 0x1500 JUMP JUMPDEST SWAP2 POP PUSH2 0x1575 DUP3 PUSH2 0x1510 JUMP JUMPDEST PUSH1 0x40 DUP3 ADD SWAP1 POP SWAP2 SWAP1 POP JUMP JUMPDEST PUSH0 PUSH1 0x20 DUP3 ADD SWAP1 POP DUP2 DUP2 SUB PUSH0 DUP4 ADD MSTORE PUSH2 0x1597 DUP2 PUSH2 0x155E JUMP JUMPDEST SWAP1 POP SWAP2 SWAP1 POP JUMP JUMPDEST PUSH32 0x4E487B7100000000000000000000000000000000000000000000000000000000 PUSH0 MSTORE PUSH1 0x22 PUSH1 0x4 MSTORE PUSH1 0x24 PUSH0 REVERT JUMPDEST PUSH0 PUSH1 0x2 DUP3 DIV SWAP1 POP PUSH1 0x1 DUP3 AND DUP1 PUSH2 0x15E2 JUMPI PUSH1 0x7F DUP3 AND SWAP2 POP JUMPDEST PUSH1 0x20 DUP3 LT DUP2 SUB PUSH2 0x15F5 JUMPI PUSH2 0x15F4 PUSH2 0x159E JUMP JUMPDEST JUMPDEST POP SWAP2 SWAP1 POP JUMP JUMPDEST PUSH32 0x5472616E73616374696F6E20646F6573206E6F74206578697374000000000000 PUSH0 DUP3 ADD MSTORE POP JUMP JUMPDEST PUSH0 PUSH2 0x162F PUSH1 0x1A DUP4 PUSH2 0x1500 JUMP JUMPDEST SWAP2 POP PUSH2 0x163A DUP3 PUSH2 0x15FB JUMP JUMPDEST PUSH1 0x20 DUP3 ADD SWAP1 POP SWAP2 SWAP1 POP JUMP JUMPDEST PUSH0 PUSH1 0x20 DUP3 ADD SWAP1 POP DUP2 DUP2 SUB PUSH0 DUP4 ADD MSTORE PUSH2 0x165C DUP2 PUSH2 0x1623 JUMP JUMPDEST SWAP1 POP SWAP2 SWAP1 POP JUMP JUMPDEST PUSH32 0x5472616E73616374696F6E20616C726561647920636F6E6669726D6564206279 PUSH0 DUP3 ADD MSTORE PUSH32 0x2074686973206F776E6572000000000000000000000000000000000000000000 PUSH1 0x20 DUP3 ADD MSTORE POP JUMP JUMPDEST PUSH0 PUSH2 0x16BD PUSH1 0x2B DUP4 PUSH2 0x1500 JUMP JUMPDEST SWAP2 POP PUSH2 0x16C8 DUP3 PUSH2 0x1663 JUMP JUMPDEST PUSH1 0x40 DUP3 ADD SWAP1 POP SWAP2 SWAP1 POP JUMP JUMPDEST PUSH0 PUSH1 0x20 DUP3 ADD SWAP1 POP DUP2 DUP2 SUB PUSH0 DUP4 ADD MSTORE PUSH2 0x16EA DUP2 PUSH2 0x16B1 JUMP JUMPDEST SWAP1 POP SWAP2 SWAP1 POP JUMP JUMPDEST PUSH32 0x4E487B7100000000000000000000000000000000000000000000000000000000 PUSH0 MSTORE PUSH1 0x11 PUSH1 0x4 MSTORE PUSH1 0x24 PUSH0 REVERT JUMPDEST PUSH0 PUSH2 0x1728 DUP3 PUSH2 0x10EB JUMP JUMPDEST SWAP2 POP PUSH32 0xFFFFFFFFFFFFFFFFFFFFFFFFFFFFFFFFFFFFFFFFFFFFFFFFFFFFFFFFFFFFFFFF DUP3 SUB PUSH2 0x175A JUMPI PUSH2 0x1759 PUSH2 0x16F1 JUMP JUMPDEST JUMPDEST PUSH1 0x1 DUP3 ADD SWAP1 POP SWAP2 SWAP1 POP JUMP JUMPDEST PUSH32 0x4E487B7100000000000000000000000000000000000000000000000000000000 PUSH0 MSTORE PUSH1 0x41 PUSH1 0x4 MSTORE PUSH1 0x24 PUSH0 REVERT JUMPDEST PUSH0 DUP2 SWAP1 POP DUP2 PUSH0 MSTORE PUSH1 0x20 PUSH0 KECCAK256 SWAP1 POP SWAP2 SWAP1 POP JUMP JUMPDEST PUSH0 PUSH1 0x20 PUSH1 0x1F DUP4 ADD DIV SWAP1 POP SWAP2 SWAP1 POP JUMP JUMPDEST PUSH0 DUP3 DUP3 SHL SWAP1 POP SWAP3 SWAP2 POP POP JUMP JUMPDEST PUSH0 PUSH1 0x8 DUP4 MUL PUSH2 0x17EE PUSH32 0xFFFFFFFFFFFFFFFFFFFFFFFFFFFFFFFFFFFFFFFFFFFFFFFFFFFFFFFFFFFFFFFF DUP3 PUSH2 0x17B3 JUMP JUMPDEST PUSH2 0x17F8 DUP7 DUP4 PUSH2 0x17B3 JUMP JUMPDEST SWAP6 POP DUP1 NOT DUP5 AND SWAP4 POP DUP1 DUP7 AND DUP5 OR SWAP3 POP POP POP SWAP4 SWAP3 POP POP POP JUMP JUMPDEST PUSH0 DUP2 SWAP1 POP SWAP2 SWAP1 POP JUMP JUMPDEST PUSH0 PUSH2 0x1833 PUSH2 0x182E PUSH2 0x1829 DUP5 PUSH2 0x10EB JUMP JUMPDEST PUSH2 0x1810 JUMP JUMPDEST PUSH2 0x10EB JUMP JUMPDEST SWAP1 POP SWAP2 SWAP1 POP JUMP JUMPDEST PUSH0 DUP2 SWAP1 POP SWAP2 SWAP1 POP JUMP JUMPDEST PUSH2 0x184C DUP4 PUSH2 0x1819 JUMP JUMPDEST PUSH2 0x1860 PUSH2 0x1858 DUP3 PUSH2 0x183A JUMP JUMPDEST DUP5 DUP5 SLOAD PUSH2 0x17BF JUMP JUMPDEST DUP3 SSTORE POP POP POP POP JUMP JUMPDEST PUSH0 SWAP1 JUMP JUMPDEST PUSH2 0x1874 PUSH2 0x1868 JUMP JUMPDEST PUSH2 0x187F DUP2 DUP5 DUP5 PUSH2 0x1843 JUMP JUMPDEST POP POP POP JUMP JUMPDEST JUMPDEST DUP2 DUP2 LT ISZERO PUSH2 0x18A2 JUMPI PUSH2 0x1897 PUSH0 DUP3 PUSH2 0x186C JUMP JUMPDEST PUSH1 0x1 DUP2 ADD SWAP1 POP PUSH2 0x1885 JUMP JUMPDEST POP POP JUMP JUMPDEST PUSH1 0x1F DUP3 GT ISZERO PUSH2 0x18E7 JUMPI PUSH2 0x18B8 DUP2 PUSH2 0x1792 JUMP JUMPDEST PUSH2 0x18C1 DUP5 PUSH2 0x17A4 JUMP JUMPDEST DUP2 ADD PUSH1 0x20 DUP6 LT ISZERO PUSH2 0x18D0 JUMPI DUP2 SWAP1 POP JUMPDEST PUSH2 0x18E4 PUSH2 0x18DC DUP6 PUSH2 0x17A4 JUMP JUMPDEST DUP4 ADD DUP3 PUSH2 0x1884 JUMP JUMPDEST POP POP JUMPDEST POP POP POP JUMP JUMPDEST PUSH0 DUP3 DUP3 SHR SWAP1 POP SWAP3 SWAP2 POP POP JUMP JUMPDEST PUSH0 PUSH2 0x1907 PUSH0 NOT DUP5 PUSH1 0x8 MUL PUSH2 0x18EC JUMP JUMPDEST NOT DUP1 DUP4 AND SWAP2 POP POP SWAP3 SWAP2 POP POP JUMP JUMPDEST PUSH0 PUSH2 0x191F DUP4 DUP4 PUSH2 0x18F8 JUMP JUMPDEST SWAP2 POP DUP3 PUSH1 0x2 MUL DUP3 OR SWAP1 POP SWAP3 SWAP2 POP POP JUMP JUMPDEST PUSH2 0x1938 DUP3 PUSH2 0x1251 JUMP JUMPDEST PUSH8 0xFFFFFFFFFFFFFFFF DUP2 GT ISZERO PUSH2 0x1951 JUMPI PUSH2 0x1950 PUSH2 0x1765 JUMP JUMPDEST JUMPDEST PUSH2 0x195B DUP3 SLOAD PUSH2 0x15CB JUMP JUMPDEST PUSH2 0x1966 DUP3 DUP3 DUP6 PUSH2 0x18A6 JUMP JUMPDEST PUSH0 PUSH1 0x20 SWAP1 POP PUSH1 0x1F DUP4 GT PUSH1 0x1 DUP2 EQ PUSH2 0x1997 JUMPI PUSH0 DUP5 ISZERO PUSH2 0x1985 JUMPI DUP3 DUP8 ADD MLOAD SWAP1 POP JUMPDEST PUSH2 0x198F DUP6 DUP3 PUSH2 0x1914 JUMP JUMPDEST DUP7 SSTORE POP PUSH2 0x19F6 JUMP JUMPDEST PUSH1 0x1F NOT DUP5 AND PUSH2 0x19A5 DUP7 PUSH2 0x1792 JUMP JUMPDEST PUSH0 JUMPDEST DUP3 DUP2 LT ISZERO PUSH2 0x19CC JUMPI DUP5 DUP10 ADD MLOAD DUP3 SSTORE PUSH1 0x1 DUP3 ADD SWAP2 POP PUSH1 0x20 DUP6 ADD SWAP5 POP PUSH1 0x20 DUP2 ADD SWAP1 POP PUSH2 0x19A7 JUMP JUMPDEST DUP7 DUP4 LT ISZERO PUSH2 0x19E9 JUMPI DUP5 DUP10 ADD MLOAD PUSH2 0x19E5 PUSH1 0x1F DUP10 AND DUP3 PUSH2 0x18F8 JUMP JUMPDEST DUP4 SSTORE POP JUMPDEST PUSH1 0x1 PUSH1 0x2 DUP9 MUL ADD DUP9 SSTORE POP POP POP JUMPDEST POP POP POP POP POP POP JUMP JUMPDEST DUP3 DUP2 DUP4 CALLDATACOPY PUSH0 DUP4 DUP4 ADD MSTORE POP POP POP JUMP JUMPDEST PUSH0 PUSH2 0x1A17 DUP4 DUP6 PUSH2 0x125B JUMP JUMPDEST SWAP4 POP PUSH2 0x1A24 DUP4 DUP6 DUP5 PUSH2 0x19FE JUMP JUMPDEST PUSH2 0x1A2D DUP4 PUSH2 0x1279 JUMP JUMPDEST DUP5 ADD SWAP1 POP SWAP4 SWAP3 POP POP POP JUMP JUMPDEST PUSH0 PUSH1 0x60 DUP3 ADD SWAP1 POP PUSH2 0x1A4B PUSH0 DUP4 ADD DUP8 PUSH2 0x1179 JUMP JUMPDEST PUSH2 0x1A58 PUSH1 0x20 DUP4 ADD DUP7 PUSH2 0x11F6 JUMP JUMPDEST DUP2 DUP2 SUB PUSH1 0x40 DUP4 ADD MSTORE PUSH2 0x1A6B DUP2 DUP5 DUP7 PUSH2 0x1A0C JUMP JUMPDEST SWAP1 POP SWAP6 SWAP5 POP POP POP POP POP JUMP JUMPDEST PUSH32 0x5472616E73616374696F6E20616C726561647920657865637574656400000000 PUSH0 DUP3 ADD MSTORE POP JUMP JUMPDEST PUSH0 PUSH2 0x1AAA PUSH1 0x1C DUP4 PUSH2 0x1500 JUMP JUMPDEST SWAP2 POP PUSH2 0x1AB5 DUP3 PUSH2 0x1A76 JUMP JUMPDEST PUSH1 0x20 DUP3 ADD SWAP1 POP SWAP2 SWAP1 POP JUMP JUMPDEST PUSH0 PUSH1 0x20 DUP3 ADD SWAP1 POP DUP2 DUP2 SUB PUSH0 DUP4 ADD MSTORE PUSH2 0x1AD7 DUP2 PUSH2 0x1A9E JUMP JUMPDEST SWAP1 POP SWAP2 SWAP1 POP JUMP JUMPDEST PUSH32 0x4E6F7420656E6F75676820636F6E6669726D6174696F6E730000000000000000 PUSH0 DUP3 ADD MSTORE POP JUMP JUMPDEST PUSH0 PUSH2 0x1B12 PUSH1 0x18 DUP4 PUSH2 0x1500 JUMP JUMPDEST SWAP2 POP PUSH2 0x1B1D DUP3 PUSH2 0x1ADE JUMP JUMPDEST PUSH1 0x20 DUP3 ADD SWAP1 POP SWAP2 SWAP1 POP JUMP JUMPDEST PUSH0 PUSH1 0x20 DUP3 ADD SWAP1 POP DUP2 DUP2 SUB PUSH0 DUP4 ADD MSTORE PUSH2 0x1B3F DUP2 PUSH2 0x1B06 JUMP JUMPDEST SWAP1 POP SWAP2 SWAP1 POP JUMP JUMPDEST PUSH0 DUP2 SWAP1 POP SWAP3 SWAP2 POP POP JUMP JUMPDEST PUSH0 DUP2 SLOAD PUSH2 0x1B5C DUP2 PUSH2 0x15CB JUMP JUMPDEST PUSH2 0x1B66 DUP2 DUP7 PUSH2 0x1B46 JUMP JUMPDEST SWAP5 POP PUSH1 0x1 DUP3 AND PUSH0 DUP2 EQ PUSH2 0x1B80 JUMPI PUSH1 0x1 DUP2 EQ PUSH2 0x1B95 JUMPI PUSH2 0x1BC7 JUMP JUMPDEST PUSH1 0xFF NOT DUP4 AND DUP7 MSTORE DUP2 ISZERO ISZERO DUP3 MUL DUP7 ADD SWAP4 POP PUSH2 0x1BC7 JUMP JUMPDEST PUSH2 0x1B9E DUP6 PUSH2 0x1792 JUMP JUMPDEST PUSH0 JUMPDEST DUP4 DUP2 LT ISZERO PUSH2 0x1BBF JUMPI DUP2 SLOAD DUP2 DUP10 ADD MSTORE PUSH1 0x1 DUP3 ADD SWAP2 POP PUSH1 0x20 DUP2 ADD SWAP1 POP PUSH2 0x1BA0 JUMP JUMPDEST DUP4 DUP9 ADD SWAP6 POP POP POP JUMPDEST POP POP POP SWAP3 SWAP2 POP POP JUMP JUMPDEST PUSH0 PUSH2 0x1BDB DUP3 DUP5 PUSH2 0x1B50 JUMP JUMPDEST SWAP2 POP DUP2 SWAP1 POP SWAP3 SWAP2 POP POP JUMP JUMPDEST PUSH32 0x5472616E73616374696F6E20657865637574696F6E206661696C656400000000 PUSH0 DUP3 ADD MSTORE POP JUMP JUMPDEST PUSH0 PUSH2 0x1C1A PUSH1 0x1C DUP4 PUSH2 0x1500 JUMP JUMPDEST SWAP2 POP PUSH2 0x1C25 DUP3 PUSH2 0x1BE6 JUMP JUMPDEST PUSH1 0x20 DUP3 ADD SWAP1 POP SWAP2 SWAP1 POP JUMP JUMPDEST PUSH0 PUSH1 0x20 DUP3 ADD SWAP1 POP DUP2 DUP2 SUB PUSH0 DUP4 ADD MSTORE PUSH2 0x1C47 DUP2 PUSH2 0x1C0E JUMP JUMPDEST SWAP1 POP SWAP2 SWAP1 POP JUMP INVALID LOG2 PUSH5 0x6970667358 0x22 SLT KECCAK256 0x25 0xC4 SELFDESTRUCT 0xD0 0xE0 0xFC 0x2D REVERT PUSH27 0x66E971E5F347E129074059DD0924E646233AB121FA116D64736F6C PUSH4 0x4300081A STOP CALLER "
				},
				"gasEstimates": {
					"creation": {
						"codeDepositCost": "1460000",
						"executionCost": "infinite",
						"totalCost": "infinite"
					},
					"external": {
						"addOwner(address)": "infinite",
						"changeThreshold(uint256)": "infinite",
						"confirmTransaction(uint256)": "infinite",
						"confirmations(uint256,address)": "3138",
						"executeTransaction(uint256)": "infinite",
						"getOwners()": "infinite",
						"getTransaction(uint256)": "infinite",
						"getTransactionCount()": "2500",
						"isOwner(address)": "2856",
						"owners(uint256)": "4967",
						"removeOwner(address)": "infinite",
						"submitTransaction(address,uint256,bytes)": "infinite",
						"threshold()": "2514",
						"transactionCount()": "2447",
						"transactions(uint256)": "infinite"
					}
				},
				"methodIdentifiers": {
					"addOwner(address)": "7065cb48",
					"changeThreshold(uint256)": "694e80c3",
					"confirmTransaction(uint256)": "c01a8c84",
					"confirmations(uint256,address)": "3411c81c",
					"executeTransaction(uint256)": "ee22610b",
					"getOwners()": "a0e67e2b",
					"getTransaction(uint256)": "33ea3dc8",
					"getTransactionCount()": "2e7700f0",
					"isOwner(address)": "2f54bf6e",
					"owners(uint256)": "025e7c27",
					"removeOwner(address)": "173825d9",
					"submitTransaction(address,uint256,bytes)": "c6427474",
					"threshold()": "42cde4e8",
					"transactionCount()": "b77bf600",
					"transactions(uint256)": "9ace38c2"
				}
			},
			"storageLayout": {
				"storage": [
					{
						"astId": 5,
						"contract": "safe.sol:MultiSignerSafe",
						"label": "owners",
						"offset": 0,
						"slot": "0",
						"type": "t_array(t_address)dyn_storage"
					},
					{
						"astId": 9,
						"contract": "safe.sol:MultiSignerSafe",
						"label": "isOwner",
						"offset": 0,
						"slot": "1",
						"type": "t_mapping(t_address,t_bool)"
					},
					{
						"astId": 11,
						"contract": "safe.sol:MultiSignerSafe",
						"label": "threshold",
						"offset": 0,
						"slot": "2",
						"type": "t_uint256"
					},
					{
						"astId": 16,
						"contract": "safe.sol:MultiSignerSafe",
						"label": "transactions",
						"offset": 0,
						"slot": "3",
						"type": "t_mapping(t_uint256,t_struct(Transaction)35_storage)"
					},
					{
						"astId": 18,
						"contract": "safe.sol:MultiSignerSafe",
						"label": "transactionCount",
						"offset": 0,
						"slot": "4",
						"type": "t_uint256"
					},
					{
						"astId": 24,
						"contract": "safe.sol:MultiSignerSafe",
						"label": "confirmations",
						"offset": 0,
						"slot": "5",
						"type": "t_mapping(t_uint256,t_mapping(t_address,t_bool))"
					}
				],
				"types": {
					"t_address": {
						"encoding": "inplace",
						"label": "address",
						"numberOfBytes": "20"
					},
					"t_array(t_address)dyn_storage": {
						"base": "t_address",
						"encoding": "dynamic_array",
						"label": "address[]",
						"numberOfBytes": "32"
					},
					"t_bool": {
						"encoding": "inplace",
						"label": "bool",
						"numberOfBytes": "1"
					},
					"t_bytes_storage": {
						"encoding": "bytes",
						"label": "bytes",
						"numberOfBytes": "32"
					},
					"t_mapping(t_address,t_bool)": {
						"encoding": "mapping",
						"key": "t_address",
						"label": "mapping(address => bool)",
						"numberOfBytes": "32",
						"value": "t_bool"
					},
					"t_mapping(t_uint256,t_mapping(t_address,t_bool))": {
						"encoding": "mapping",
						"key": "t_uint256",
						"label": "mapping(uint256 => mapping(address => bool))",
						"numberOfBytes": "32",
						"value": "t_mapping(t_address,t_bool)"
					},
					"t_mapping(t_uint256,t_struct(Transaction)35_storage)": {
						"encoding": "mapping",
						"key": "t_uint256",
						"label": "mapping(uint256 => struct MultiSignerSafe.Transaction)",
						"numberOfBytes": "32",
						"value": "t_struct(Transaction)35_storage"
					},
					"t_struct(Transaction)35_storage": {
						"encoding": "inplace",
						"label": "struct MultiSignerSafe.Transaction",
						"members": [
							{
								"astId": 26,
								"contract": "safe.sol:MultiSignerSafe",
								"label": "destination",
								"offset": 0,
								"slot": "0",
								"type": "t_address"
							},
							{
								"astId": 28,
								"contract": "safe.sol:MultiSignerSafe",
								"label": "value",
								"offset": 0,
								"slot": "1",
								"type": "t_uint256"
							},
							{
								"astId": 30,
								"contract": "safe.sol:MultiSignerSafe",
								"label": "data",
								"offset": 0,
								"slot": "2",
								"type": "t_bytes_storage"
							},
							{
								"astId": 32,
								"contract": "safe.sol:MultiSignerSafe",
								"label": "executed",
								"offset": 0,
								"slot": "3",
								"type": "t_bool"
							},
							{
								"astId": 34,
								"contract": "safe.sol:MultiSignerSafe",
								"label": "noOfConfirmations",
								"offset": 0,
								"slot": "4",
								"type": "t_uint256"
							}
						],
						"numberOfBytes": "160"
					},
					"t_uint256": {
						"encoding": "inplace",
						"label": "uint256",
						"numberOfBytes": "32"
					}
				}
			},
			"userdoc": {
				"kind": "user",
				"methods": {},
				"version": 1
			}
		}
	}
}